:020000021000EC
:10F00000008000207D5A0200AD5A0200AF5A020073
:10F0100000000000000000000000000000000000F0
:10F02000000000000000000000000000B75A0200CD
:10F030000000000000000000B95A0200BB5A0200A4
:10F04000BD5A0200BD5A0200090A0200BD5A020060
:10F05000BD5A0200BD5A020041050200BD5A02001D
:10F06000BD5A0200BD5A0200BD5A0200BD5A02003C
:10F07000BD5A0200BD5A0200BD5A0200BD5A02002C
:10F08000BD5A020035F80100BD5A0200BD5A020007
:10F090000DF90100BD5A0200495A0200BD5A020092
:10F0A000BD5A0200BD5A0200BD5A0200BD5A0200FC
:10F0B000BD5A0200BD5A020000000000000000001E
:10F0C000BD5A0200BD5A0200BD5A0200BD5A0200DC
:10F0D000BD5A0200BD5A02000000000000000000FE
:10F0E0000000000000000000000000000000000020
:10F0F0000000000000000000000000000000000010
:10F1000000000000000000000000000000000000FF
:10F1100000000000000000000000000000000000EF
:10F40000154B002B08BF134B9D46A3F5803A0021F6
:10F410008B460F461348144A121A00F065F80F4B3A
:10F42000002B00D098470E4B002B00D098470020AF
:10F43000002104000D000D48002802D00C48AFF355
:10F44000008000F02BF82000290003F0B3FC00F04E
:10F4500011F800BF0000080000800020000000003C
:10F46000000000008C280020703100200000000007
:10F470000000000008B5074B044613B10021AFF3AC
:10F480000080054B1868836A03B19847204600F056
:10F4900033F800BF00000000205B020070B50E4B87
:10F4A0000E4CE41AA41000251E46A54204D056F8BE
:10F4B000253098470135F8E706F024FB084C094B46
:10F4C000E41AA41000251E46A54204D056F82530A3
:10F4D00098470135F8E770BD8C2800208C28002063
:10F4E0008C2800208C28002002440346934202D03E
:10F4F00003F8011BFAE77047FEE700BF2DE9F84F5C
:10F50000244B1A788AB3DFF890B0DFF89090DFF8D8
:10F5100090A00024012703E00134E4B2944224D2F5
:10F5200026B2D9F80050DBF8003015F8360007FA9B
:10F5300000FE1EEA030F05EBC608EDD0164A23EACB
:10F540000E03136000F0F2FF15F83650DAF80030C1
:10F5500007FA05F6334000FA05F6B34207D00D4B23
:10F5600001341A78E4B29442DAD3BDE8F88FD8F8BF
:10F570000430002BF3D098F80110A1F10101B1FA89
:10F5800081F14909091AB1FA81F1490928469847D8
:10F59000E5E700BF94280020A02800209028002044
:10F5A00098280020F8B5134E0546306800F072FD2B
:10F5B00040B9114F01243B68AC401C4203D023EA00
:10F5C00004043C60F8BD284600F0B0FF0B4D2A68EB
:10F5D00060B122433B680A492A601C433C603068A2
:10F5E00009680022BDE8F84000F0DCBC22EA040211
:10F5F000F0E700BF9C280020A028002098280020C9
:10F600008C280020042A01D8072070472DE9F041FA
:10F6100082B088460546174600F030FE002834D0F8
:10F620001C4C1D481D491E4A1E4B2560002608F132
:10F63000FF340F6080F8008016601E60E4B203277C
:10F64000B8F1000F03D11AE0DBB2C4B11C4623B2FB
:10F6500005EBC30215F833009378134A8DF8053093
:10F6600001A98DF804708DF806608DF8076000F030
:10F670000DFE631E0028E7D002B0BDE8F0810B4A02
:10F680000B48002100F060FCF6E700F0C1FD002807
:10F69000C6D0F1E790280020942800208C28002074
:10F6A00098280020A0280020A5F50100FDF4010005
:10F6B0009C28002070B5084D2B785BB1074E0024C4
:10F6C0003368012113F8340000F0D4FE2B780134A4
:10F6D000A342F5D8002070BD942800209028002077
:10F6E000BFF34F8F0449054BCA6802F4E06213432D
:10F6F000CB60BFF34F8FFEE700ED00E00400FA059A
:10F70000484B494830B401214FF480344FF4003560
:10F710002F22C0F88050C3F848431046C3F808436E
:10F720005960013800BF00BF00BF00BF00BF00BF6D
:10F7300000BF00BF00BF00BF00BF00BF00BF00BFD1
:10F7400000BF00BF00BF00BF00BF00BF00BF00BFC1
:10F7500000BF00BF00BF00BF00BF00BF00BF00BFB1
:10F7600000BF00BF00BF00BF00BF00BF00BF00BFA1
:10F7700000BF00BF00BF00BF00BF00BF00BF00BF91
:10F7800000BF00BF00BF00BF00BF00BF00BF00BF81
:10F7900000BF00BF00BF00BFC3D1244C996000234D
:10F7A00010462360013800BF00BF00BF00BF00BF8C
:10F7B00000BF00BF00BF00BF00BF00BF00BF00BF51
:10F7C00000BF00BF00BF00BF00BF00BF00BF00BF41
:10F7D00000BF00BF00BF00BF00BF00BF00BF00BF31
:10F7E00000BF00BF00BF00BF00BF00BF00BF00BF21
:10F7F00000BF00BF00BF00BF00BF00BF00BF00BF11
:10F8000000BF00BF00BF00BF00BF00BF00BF00BF00
:10F8100000BF00BF00BF00BF00BFC3D1044A1370C8
:10F8200030BC70470010014000E100E0A428002037
:10F83000CC2800202DE9F0472B4B2C4A0026C3F89A
:10F840004061C3F84461C3F84861C3F84C61C3F830
:10F850000061C3F804611468621C38D0244AD3F8EC
:10F8600004351568234FDFF8A0805D1B25F07F4528
:10F8700001E0631C1DD03A6804EBC40402EB84036E
:10F880005A68AA4215D8D3F818A01C6AD8F8009074
:10F89000DB6950461946AD1A1644B9F1000F18D06D
:10F8A000C8470028E5D000221146FFF719FF631C66
:10F8B000E1D1114B11491A780B789A420CD01049BA
:10F8C000104A41F823604FF48013C2F80031BDE8BC
:10F8D000F0871846D047CCE7531CDBB2022B08BF99
:10F8E00000230B70EBE700BF00100140BC28002094
:10F8F000A4280020AC280020B8280020B928002027
:10F90000C428002000E100E0A82800202DE9F04FE5
:10F91000B64AB74913780978B6488DB000680690A2
:10F92000994200F05E810133DBB2022B08BF002355
:10F930001370B14A52F82330069A0393D318AD4A94
:10F9400023F07F43136001230593AC4BAC4A1B7833
:10F9500001931846AB4B12681B680293AA4B0B929B
:10F960001D68AA4B1B780893A24B1B680A930023BF
:10F970001E460793144613468246099600960AF1DE
:10F98000FF3A5FFA8AFABAF1FF0F7DD002980FFAB8
:10F990008AF200EBC20810F8322098F801002146E4
:10F9A00082420C46EBD002EB4207D8F8044098F8AC
:10F9B00002C014F837E00132D2B2944508BF0022E9
:10F9C000BEF1020F04EBC70414D0BEF1030FE7D160
:10F9D0004C1C18BF0B46E3D003EBC30305EB8301BC
:10F9E0000B6A0E75581CF7D1012498F80100009499
:10F9F0001946D5E7D4F804E04FEACE0909EB0E0C1E
:10FA000005EB8C0C9CF814B0BBF1000FC8D0481C5F
:10FA10000FD08E4500F0E1800F4602E0A6450DD0E4
:10FA2000274607EBC70005EB8000046AB4F1FF3FEF
:10FA3000F4D18CF8146098F80100B1E7BE4516D0F7
:10FA400009EB0E0405EB8404276AD4F804E007628E
:10FA50007C1CEED007EBC70705EB870419466068EE
:10FA6000704460608CF8146098F8010098E701EB2E
:10FA7000C10105EB810304461B6A5F1C00F09E80F8
:10FA8000CDF800B01946DFE7009A0494002A40F050
:10FA9000C581099B13B1574B0A9A1A60079B1BB18A
:10FAA0005A4B9DF820201A70059B002B40F079815D
:10FAB000049A0B9B9B1A18BF012305934FF0FF3E3E
:10FAC0001146002300939C464A4BD3F800A04C4BB0
:10FAD000D3F800B04D4B1B780393019B013BDBB285
:10FAE000FF2B019300F0CD801A46029BBEF1FF3F31
:10FAF0000F4603EBC20943D00EEBCE0405EB8404A2
:10FB0000F046A368E268D4F820E04148CAEB03015C
:10FB100021F07F4181427FD80A4462604FF00103A7
:10FB200023754FF0FF339F42C4F808C0C4F80CC0DF
:10FB3000236200F0A08007EBC70305EB8303606836
:10FB40005968884240F28E803E4604E059688142FE
:10FB500080F0858016461A6A401A02EBC203511CD7
:10FB600005EB8303F2D106EBC60605EB86063B46A2
:10FB7000606022621F46C6F82080BEF1FF3FBBD105
:10FB800099F8003099F801209A423946A5D05A1CBC
:10FB900099F80240D9F80400D2B203EB430394422F
:10FBA00089F8002008BF89F800C000EBC30110F8F5
:10FBB0003330012B3BD03B461F46DEE7154FCDF8D7
:10FBC0001CB00121B9600027CDF820B0CDF824B0D9
:10FBD000CDF800B019460A9736E76046644663469A
:10FBE0004AE7002303930593AFE600BFB82800203F
:10FBF000B9280020A4280020C4280020B028002014
:10FC0000BC280020B4280020AC280020C0280020F8
:10FC1000FEFF7F0000100140C3EB0A0323F07F4387
:10FC200093423ABFD31A6360C4F804C076E7D1F8B0
:10FC3000048008EBC80405EB8404207D0028BAD1B9
:10FC40008B68A360CA68E2600E6926614969E16158
:10FC5000039900293FF459AFA060034655E7091AFC
:10FC6000596080E7091A5960012243462762C3465A
:10FC700000921F4681E743460122C34600921F4679
:10FC80007BE7009B002B40F0CF80049B994200F063
:10FC900084804B1C00F0BF80674D684B684A1B682E
:10FCA0001268D5F80445674E01EBC10102EB8101F2
:10FCB0003078D1F804E0E21A22F07F4203320028C3
:10FCC0004BD161484FF48031C5F844134FF40037ED
:10FCD000C5F804130121C0F8807107602F20296046
:10FCE000013800BF00BF00BF00BF00BF00BF00BFA2
:10FCF00000BF00BF00BF00BF00BF00BF00BF00BF0C
:10FD000000BF00BF00BF00BF00BF00BF00BF00BFFB
:10FD100000BF00BF00BF00BF00BF00BF00BF00BFEB
:10FD200000BF00BF00BF00BF00BF00BF00BF00BFDB
:10FD300000BF00BF00BF00BF00BF00BF00BF00BFCB
:10FD400000BF00BF00BF00BF00BF00BF00BF00BFBB
:10FD500000BF00BF00BFC3D1317096452CBF03EB7D
:10FD60000E029A18344922F07F43C1F84035D1F889
:10FD70000425121B22F07F421B1B033223F07F431A
:10FD80009A4204D9304B4FF40032C3F800212F4A75
:10FD9000002313700DB0BDE8F08F059B002BF6D04B
:10FDA00077E72B4B049A1C68DDF80CC00020064650
:10FDB00007464FF0FF3E15E05968614520D81869A5
:10FDC0005F60C1EB0C0C0E441F751C6A40B10699B4
:10FDD000C3F820E0314421F07F41D8609646996015
:10FDE0000598224602EBC203511C05EB8303E3D1C5
:10FDF000B8B94FF0FF33049301230593049960E6EB
:10FE0000CDF80CC0A0B903980492091A59600123D7
:10FE10000593114655E6FFF773FCB8E70C4A1360EB
:10FE200037E60B4B1C60E4E7094BC3F800B02CE746
:10FE300007480460E7E700BF00100140A428002045
:10FE4000AC280020CC28002000E100E0C0280020E1
:10FE5000BC2800202DE9F04113F0030502D0072053
:10FE6000BDE8F081002BFAD00C46984617460646AE
:10FE7000FFF746FC29492A4A2A4B06980860147065
:10FE8000C3F80080002C47D021B201EBC10308EB7E
:10FE9000830344462570257524349C42FAD101EB36
:10FEA000C10189002048DFF89CE0204D08EB0103E8
:10FEB00007EB4702036003F118040020D20008F8A2
:10FEC0000100A1189F709F729F745C600A44184FD4
:10FED000184C58705A61D960187258721874587456
:10FEE000154A164B3870032121704FF0FF374FF43D
:10FEF000801460212F608EF80000114DC3F88041FE
:10FF000083F814131C60C2F8086583F81113D2F843
:10FF100004352B60BDE8F0812146C0E7A828002009
:10FF2000BA280020AC280020B4280020BC280020DB
:10FF3000B9280020B02800200010014000E100E0B6
:10FF4000A4280020B8280020F0B5144B1E68C6B1C4
:10FF5000A2B198B1124B1F786FB13378A3B106F1FB
:10FF60002404002303E014F8245B9E466DB10133A2
:10FF7000BB422646F7D104231846F0BD0723184696
:10FF8000F0BD08231846F0BD9E4601233370717002
:10FF9000B2610023C0F800E01846F0BDAC28002094
:10FFA000BA280020344B1B688BB1F0B5334C247851
:10FFB000844201D80720F0BD0429FBD900EBC0041E
:10FFC000A4001D191B5D012B03D00820F0BD0820E3
:10FFD00070472B4B6C785B68012CC3F308030CBF94
:10FFE0000F460027002B3AD0103B5CB2002C3CDBC4
:10FFF00004F1604303F5614393F800335B09DBB21E
:020000022000DC
:10000000012B30D0032B0CBF082310231D4C246878
:100010001C446378A678257803F1010EB64508BF25
:100020004FF0000E75451CD003EB43036668DB0000
:10003000F51816D04FF0010C06F803C0124E686098
:10004000124BD6F80405A8604FF48016E9602F61C2
:100050006A6184F801E0C3F800610020F0BD10235C
:10006000D4E70420F0BD0023D0E7094C03F00F03D0
:100070001C44237E5B09C2E7AC280020BA2800207C
:1000800000ED00E0B42800200010014000E100E095
:10009000FCEC00E02A4B1B685BB12A4A12788242D2
:1000A00001D80720704700EBC00213F82230012B63
:1000B00001D008207047F0B4234B5B68C3F30803FA
:1000C000002B2FD0103B5AB2002A31DB02F16043E3
:1000D00003F5614393F800335B09DBB2012B25D0B4
:1000E000032B0CBF08231023184A12681A445378B4
:1000F00095781478591CA94208BF00218C4213D06E
:1001000003EB43035468DB00E7180DD0104D0226C3
:10011000E6544FF48013786051700020C5F8003128
:10012000F0BC70471023DFE70420F9E70023DBE78A
:10013000084A03F00F031A44137E5B09CDE700BFA2
:10014000AC280020BA28002000ED00E0B4280020F0
:1001500000E100E0FCEC00E00A7B4B6810B40C68A6
:10016000002A0ABF234600220122027103605DF8C3
:10017000044B704710B40279034652B148681C68BA
:100180008A68011B914210D9A01818605DF8044BD1
:100190007047046808688A68211A91420BD80122C6
:1001A00018601A715DF8044B7047002218601A71CC
:1001B0005DF8044B7047A01A18605DF8044B704757
:1001C000002810B418DB00F1604303F561434901D6
:1001D000C9B283F80013C3B24009800000F1604047
:1001E00000F5614003F01F0201239340C0F8803105
:1001F00003605DF8044B7047C3B2044A03F00F0478
:1002000049012244C9B21176E6E700BFFCEC00E0E8
:1002100038B5184C25780DB1082038BD4FF0FF33A4
:10022000FF226363A363E36323646364A364E364FF
:100230002365012106206360A360E360236163619D
:10024000A361E3612362636284F85430A362E362D2
:1002500084F85630236384F8573084F85520FFF72C
:10026000AFFF054A4FF000410123C2F80413237089
:10027000284638BDD028002000600040024B187886
:10028000003018BF01207047D02800202DE9F04130
:10029000774D2C1894F93430002B02DB0820BDE890
:1002A000F08191F803C0BCF1000F7FD06B6801337F
:1002B00000F0D18000260827731C9C0005EB040881
:1002C000DFF8ACE1D8F80480B8F1FF3F77D0B31C79
:1002D0009F4268D99C000EEB0408D8F80480B8F15E
:1002E000FF3F6CD0F31C9F425DD99C000EEB0408CD
:1002F000D8F80480B8F1FF3F61D0331D9F4252D936
:100300009C000EEB0408D8F80480B8F1FF3F56D0EB
:10031000731D9F4247D99C00A644DEF804E0BEF15D
:10032000FF3F4CD0B31D9F423DD99C0005EB040814
:10033000DFF83CE1D8F80480B8F1FF3F3FD0F31D6F
:100340009F4230D99C000EEB0408D8F80480B8F125
:10035000FF3F34D006F108039F4224D99C000EEBE6
:100360000408D8F80480B8F1FF3F28D006F109034B
:100370009F4218D99C000EEB0408D8F80480B8F10D
:10038000FF3F1CD006F10A039F420CD99C00A644F3
:10039000DEF804E0BEF1FF3F11D00B36B74202D9C0
:1003A0002B6B013309D00420BDE8F0816B6A013367
:1003B0004FF0080655D00C277EE70B232C242E196E
:1003C0002C187260DAB284F83420BCF1000F02D12C
:1003D0002B4483F84C008B78B3B94C784FF0A0468F
:1003E00000F5E073A40046F82340CB7852B2ABB9D5
:1003F000083A1544097895F8542042EA811285F8A4
:1004000054201846BDE8F081830003F1A043D3F8DF
:10041000004724F00204C3F80047E6E7930003F125
:10042000804303F5C0430A78D3F8101521F447310F
:1004300021F44071C3F810151204000202F4403197
:10044000D3F8104500F4F8520A432243C3F81025AC
:100450000020BDE8F08100236A6084F834301A4639
:10046000B9E76A62334684F834603246B0E700BFC9
:10047000D028002030B42B4B1A1882B092F83440A8
:1004800062B2072A1CDD134493F84C309B09032BFE
:100490003AD0012B14BF4FF440334FF400338000A7
:1004A00000F1A040D0F8002722F44032C0F8002725
:1004B000D0F800271343C0F8003702B030BC7047B3
:1004C000072CFAD8900000F1804002F1400300F5BB
:1004D000C0409B009BB2D0F8104503F1804303F568
:1004E000C04344F001040025C0F810451D601B689E
:1004F0000193019B0029E0D00B4901239340C1F8EF
:10050000043302B030BC70474FF0A0420123D2F850
:100510001025834013420CBF4FF400334FF4403397
:10052000BDE700BFD0280020006000404FF0A0438E
:10053000D3F8103523FA00F000F00100704700BF37
:10054000F0B5BB4B1A68012A83B000F0D5800024B7
:10055000B84B1A68012A00F0E180B74B1A68012AEB
:1005600000F0EE80B54B1A68012A00F0FB80B44B16
:100570001A68012A00F00881B24B1A68012A00F0BB
:100580001581B14B1A68012A00F02281AF4B1A681D
:10059000012A00F02F81AE4B1A68012A00F03C813D
:1005A0000025210717D0E20700F15881A30700F1C9
:1005B000BE81670700F19C81260700F1A881E00653
:1005C00000F15C81A10600F16881620600F174818E
:1005D000230600F18081002C01DB03B0F0BD9D4CAF
:1005E00094F8541021F0C000231893F93430072BED
:1005F00014DD04EB83035E6886B1870007F1A04732
:100600000123D7F8002783402B424FEA9111C2F310
:10061000014240F0A381032A00F0B58194F85510FF
:100620008C4B21F0C000221892F93420072A14DDE7
:1006300003EB82035E6886B1870007F1A0470123C0
:10064000D7F8002783402B424FEA9111C2F30142B1
:1006500040F09281032A00F0B78194F856107D4B48
:1006600021F0C000221892F93420072A14DD03EB90
:1006700082035E6886B1870007F1A0470123D7F89F
:10068000002783402B424FEA9111C2F3014240F010
:100690006C81032A00F0878194F857106D4B21F08C
:1006A000C000044494F93420072A96DD03EB82034A
:1006B0005E68002E91D0830003F1A0430122D3F89D
:1006C000004782402A424FEA9111C4F3014440F0AE
:1006D0003E81032C81D1032940F03E814FF400324A
:1006E000D3F8004724F44034C3F80047D3F8004758
:1006F0002243C3F800272FE15749D1F8044314F0EF
:1007000001043FF425AF002119601B680093009B92
:10071000484B14461A68012A7FF41FAF4E4AD2F89C
:10072000042390077FF519AF00221A601B6800931D
:10073000009B414B1A68012A44F002047FF412AF77
:10074000454AD2F8042351077FF50CAF00221A6006
:100750001B680093009B394B1A68012A44F004047B
:100760007FF405AF3C4AD2F8042312077FF5FFAEB1
:1007700000221A601B680093009B314B1A68012A03
:1007800044F008047FF4F8AE334AD2F80423D706C5
:100790007FF5F2AE00221A601B680093009B294B84
:1007A0001A68012A44F010047FF4EBAE2A4AD2F80A
:1007B000042396067FF5E5AE00221A601B680093BD
:1007C000009B214B1A68012A44F020047FF4DEAE1E
:1007D000214AD2F8042355067FF5D8AE00221A60CC
:1007E0001B680093009B194B1A68012A44F04004CF
:1007F0007FF4D1AE184AD2F8042310067FF5CBAEB1
:1008000000221A601B680093009B114B1A68012A92
:1008100044F080047FF4C4AE00221A601B68019388
:100820004FF0A043019AD3F8105544F00044B8E6C5
:100830000061004004610040086100400C6100401C
:100840001061004014610040186100401C610040CC
:100850007C610040D028002000600040684B694A5D
:10086000D3F81005D3F810155368C0F30420C1F372
:1008700001419847A3077FF59CAE58E0604B614A61
:10088000D3F82005D3F820155369C1F30141C0F313
:1008900004209847A1067FF598AE594B594AD3F8E2
:1008A0002405D3F824159369C0F30420C1F3014152
:1008B000984762067FF58CAE514B524AD3F8280513
:1008C000D3F82815D369C0F30420C1F30141984738
:1008D00023067FF580AE4A4B4A4AD3F82C05D3F85D
:1008E0002C15136AC0F30420C1F30141984772E646
:1008F000434B444AD3F81805D3F81815D368C0F30E
:100900000420C1F30141984726077FF558AE3C4BC0
:100910003C4AD3F81C05D3F81C151369C0F3042016
:10092000C1F301419847E0067FF54CAEA6E7344B92
:10093000344AD3F81405D3F814159368C0F304208F
:10094000C1F30141984767077FF536AED0E7022C27
:100950007FF443AE03294AD0B0473EE6022A7FF433
:100960005DAE032949D0B04758E6022A7FF494AE21
:1009700003293FD0B0478FE6022A7FF46EAE0329E9
:1009800032D0B04769E60329EDD14FF40033D7F8F0
:10099000002722F44032C7F80027D7F80027134376
:1009A000C7F80037DFE70329E4D14FF4003ED7F85A
:1009B000002722F44032C7F80027D7F800374EEA64
:1009C0000303C7F80037D5E70329DAD14FF4003322
:1009D000D7F8002722F44032C7F80027D7F80027BD
:1009E0001343C7F80037CCE74FF44033F0E74FF438
:1009F000403275E64FF4403ED9E74FF44033C6E746
:100A000000600040D028002030B5834C834AE37D4D
:100A100085B0F3B11368002B40F0B980804A1168AB
:100A2000002940F09E807F4B1A6832B1E17C7A4801
:100A300000221A60002940F0CF807B4B1A6832B147
:100A4000A17C754800221A60002940F0D58005B0CD
:100A500030BD1168002959D0617D744813604FF48E
:100A60000173C0F8083329B903F1804303F5F0534B
:100A700001221A606D4A02238DF80030D2F88034CA
:100A8000C2F88034E268E07C0192002203938DF882
:100A9000080021686368E27468469847644B1A68E6
:100AA000A2B1228AA17C5C4892B291424FF000022E
:100AB0001A6040F28380028A038A85685B4992B299
:100AC0000133AA5C9BB20382C1F81C25554B1A68FE
:100AD000002ABCD0627D002119601AB1A3F5A2736F
:100AE00001221A60E27C4C4B002AB0D0197DDA68F2
:100AF0008DF80810002001218DF800100192D874A3
:100B000093E806006846904705B030BD494B1A6827
:100B1000002AC3D0454A1960207DD2F81855237D9C
:100B2000E17CE2680133DBB22375237D15549942E1
:100B3000B4D1637D13B9404B012119603B4963680F
:100B40004FF40170C1F8080301920122217D8DF854
:100B5000002000228DF8081068462168E27498474A
:100B60009CE732491360D1F83C25E17CD2B2914236
:100B70007FF459AFE2688DF8081001208DF800006D
:100B80000192684694E80600E37490474BE7274BD0
:100B90000020022110608DF80010D3F88024C3F8E3
:100BA00080240392D3F83C25E3680193E0748DF828
:100BB0000820216863686846984734E7002985D093
:100BC00083688DF808100193827490E80A008DF80C
:100BD00000206846984779E71449C368D1F83C1566
:100BE0008DF8081001218DF800100193C27490E86F
:100BF0000A006846984720E70C498368D1F84C15ED
:100C00008DF808100193827490E80A008DF8002096
:100C1000684698471BE700BF282900202421004090
:100C200010210040442100402021004000200040CD
:100C30001C210040082100400420004029DF7047AB
:100C400028DF7047F0B5594C237883B0032B38D890
:100C5000DFE803F0476002395549DFF864E10A78BC
:100C6000544D4FF0805602EB8202306901EB820254
:100C700080B21369B3FBF0F0CEF80000D788326978
:100C80002E68013B3B4492B2B3FBF2F398424A4BCD
:100C9000484F1B6806BF26F0010646F0020626F004
:100CA00003062E60002B3AD1B30738D4434B0222FF
:100CB0001A70FFF7C5FF20B1112863D146F008066E
:100CC0003E6003B0F0BD3E4B1868FFF7B9FF002847
:100CD000F7D011283CD1374A136843F0080313605A
:100CE000EFE7334B374D3848597800222A600260CD
:100CF0000029E6D01A78354902EB820203EB820321
:100D00001A79DB880B60032A4AD0042A48D0012ACA
:100D1000D7D1227003B0BDE8F04000F079BB274B7B
:100D20004FF0805000221A70426903690069013A4D
:100D30009BB203FB02F380B2B3FBF0F0FFF780FF3E
:100D40000028BED011281DD146F008062E60B8E755
:100D5000174D1E4A2B781268009203EB83039B0009
:100D6000E9180D46CA684B69194F097902EB42062A
:100D7000024605F10C0057F82650A84704232370BB
:100D800003B0F0BD0B78114A114F1268009203EBCB
:100D900083039B00CE183546F26873693179E5E725
:100DA00003B0BDE8F04000F015B800BF1A2A0020DB
:100DB00040290020282A00201C2A00201B2A00206D
:100DC0000C2A00202C2A0020142A0020242A00208B
:100DD000302A00202DE9F0414C4A4D4913784D4D01
:100DE00003EB830302EB83034FF08056DF6818693F
:100DF000B3F806E01C89326907EB470301EB830374
:100E000092B2B3F808C0B3F80A805968B0FBF2F3A5
:100E100008FB0C1102FB13024FF0000C0EEB040355
:100E20000344C5F800C0002A4AD1326992B29645FF
:100E300037D099425AD0022F33D03769DFF8E0E03B
:100E40002044BFB2B0FBF7F207FB12008008CEF8D7
:100E50000000326992B2B3FBF2F002FB1032CAB169
:100E60004FF080549BB22069226989B280B292B25D
:100E7000B1FBF0F0B3FBF2F2904233D0226921696A
:100E800089B2B3FBF1F001FB103392B29BB2D31ADB
:100E90009B082B60204B02221A70BDE8F041FFF73F
:100EA000D1BE4FF080531D4A1B691B4903249BB2DE
:100EB0000C70B0FBF3F01060BDE8F041FFF7C2BE6C
:100EC000022FEED03769DFF858E02044BFB2B0FB04
:100ED000F7F207FB12008008CEF800009942326951
:100EE000B8D1D7E7CB1A9B082B60D3E7002CD8D01A
:100EF000022FD6D033690A4920449BB2B0FBF3F2EB
:100F000003FB12039B080B603369C3E740290020F1
:100F1000302A0020102A00201A2A00200C2A002043
:100F20001C2A0020F0B5284A136813F0080583B086
:100F30000BD026482649007851F8201023F00803EA
:100F4000136003B0BDE8F0400847224C207800EB66
:100F5000800080002318197904292DD0DA681E4FEB
:100F60001E4E3F685B69009702EB4202204456F830
:100F700022600C302A46B0472278617802EB820367
:100F800004EB83030132D2B201200A2A1D71DD80F5
:100F90001D615D611D81D860114B18BF227001F188
:100FA000FF314FF00002617008BF25701A7003B066
:100FB000BDE8F040FFF746BE094B01221A7003B0AE
:100FC000BDE8F040FFF73EBE282A00201B2A002083
:100FD000245B020040290020242A0020302A00201F
:100FE0001A2A002070B54FF080531D4A5D691869B8
:100FF0001C6911681A69013D80B2A3B282B000FB7E
:1010000005F0C2F38D0201FB03F1FFF717FE30B1CB
:10101000112806D1134A136843F00803136002B085
:1010200070BD114C114A23781268009203EB8303C0
:101030009B00E1180E4ECA684B6902EB42050C4654
:101040000246097904F10C0056F82540A047094BE7
:1010500004221A7002B0BDE87040FFF7F3BD00BF74
:101060000C2A0020282A002040290020242A0020C1
:10107000302A00201A2A002070B54FF080511D4BF5
:1010800008691A684B6909691B4C013A80B2013B37
:1010900089B282B000FB02F001FB03F12268FFF786
:1010A000CDFD30B1112806D1144A136843F008036E
:1010B000136002B070BD124C124A2378126800927D
:1010C00003EB83039B00E1180F4ECA684B6902EBE8
:1010D00042050C460246097904F10C0056F82540F9
:1010E000A0470A4B04221A7002B0BDE87040FFF717
:1010F000A9BD00BF0C2A00201C2A0020282A00209D
:1011000040290020242A0020302A00201A2A00200A
:10111000F0B5224D224A2B78126803EB830305EBCE
:1011200083034FF08051DF8818890C691B694E6971
:10113000096938441844A3B2013EB0FBF3F489B204
:1011400003FB140383B001FB0631FFF777FD30B1D9
:10115000112806D1134A136843F00803136003B043
:10116000F0BD2B78104A114E1268009203EB8303F6
:101170009B00E9180D46CA684B69097902EB4204E5
:10118000024656F8244005F10C00A047084B042203
:101190001A7003B0BDE8F040FFF754BD40290020AD
:1011A000102A0020282A0020242A0020302A00208B
:1011B0001A2A002021490B68180717D470B5204857
:1011C0009A07204A006848BF43F0010382B04FF0FD
:1011D000020448BF0B601470FFF732FD20B11128E4
:1011E0000DD143F008030B6002B070BD1548164ADC
:1011F000007823F0080352F820200B601047134CAE
:10120000134A23781268009203EB83039B00E118D2
:10121000104ECA684B6902EB42050C46024609793A
:1012200004F10C0056F82540A0470B4B04221A701D
:1012300002B0BDE87040FFF705BD00BF282A0020BE
:101240000C2A00201B2A0020245B020040290020D9
:10125000242A0020302A00201A2A002070B5164BBC
:1012600082B01868FFF7ECFC30B1112806D1134AA0
:10127000136843F00803136002B070BD104C114AAC
:1012800023781268009203EB83039B00E1180E4E53
:10129000CA684B6902EB42050C460246097904F123
:1012A0000C0056F82540A047084B04221A7002B0E3
:1012B000BDE87040FFF7C6BC0C2A0020282A002099
:1012C00040290020242A0020302A00201A2A002049
:1012D00070B54FF0805182B04A690B690869013AD4
:1012E0009BB203FB02F380B2B3FBF0F0FFF7A8FC64
:1012F00030B1112806D1124A136843F00803136075
:1013000002B070BD0F4C104A23781268009203EBB4
:1013100083039B00E1180D4ECA684B6902EB42053E
:101320000C460246097904F10C0056F82540A04706
:10133000074B04221A7002B0BDE87040FFF782BC70
:10134000282A002040290020242A0020302A0020BA
:101350001A2A002070B5264C264923681A0782B045
:101360000AD50978244A52F8212023F00803236083
:1013700002B0BDE8704010474FF080520120087065
:101380001E4E55691069116936681269013D80B2B7
:1013900089B200FB05F0C2F38D0206FB01F1FFF7F5
:1013A0004DFC20B1112804D143F00803236002B0A2
:1013B00070BD134C134A23781268009203EB830329
:1013C0009B00E118104ECA684B6902EB42050C46BF
:1013D0000246097904F10C0056F82540A0470B4B52
:1013E00004221A7002B0BDE87040FFF72BBC00BFAA
:1013F000282A00201B2A0020245B02000C2A00203F
:1014000040290020242A0020302A00201A2A002007
:10141000F0B53D4C2578AE0073194FF0805704EBC2
:1014200083033969DA8889B28A4283B016D81F8962
:101430001869596992083844FFF700FC30B1112847
:101440002BD1324A136843F008031360354404EB90
:1014500085042F4BE2881A6003B0F0BD3D69B3F8F4
:1014600008E0186959693E69ABB2D31A7044C6F3F3
:101470008D0219441844FFF7E1FB30B1112828D13F
:10148000224A136843F0080313604FF08053204A48
:101490001B699BB2136003B0F0BD23781D4ADFF8CF
:1014A0007CC01268009203EB83039B00E1180F4697
:1014B000CA684B69097902EB420E024607F10C003B
:1014C0005CF82E70B847144B04221A70FFF7BAFB71
:1014D000BCE723780F4A114E1268009203EB830396
:1014E0009B00E1180C46CA684B69097902EB42057A
:1014F000024604F10C0056F82540A047064B042292
:101500001A70FFF79FFBC0E740290020282A00201F
:10151000142A0020242A00201A2A0020302A002021
:101520002DE9F041664E336813F0080C82B040F0AC
:101530008180644C644A94F800E015684FEA8E0795
:1015400007EB0E0104EB81014FF080580A69C8884F
:101550000989013A02440A44D8F81010002D41D1FB
:101560005A4908684FF08051096989B2B2FBF1F21B
:10157000904274D36AD0002D69D17744BF003C44B7
:10158000504E2179042900F09780E2685048636941
:101590000068504C009002EB4202F0190C3054F8F5
:1015A00022402A46A0473278717802EB820306EB8C
:1015B00083030132D2B201200A2A01F1FF311D71E9
:1015C000DD801D615D611D81D860434B18BF3270A5
:1015D000717008BF357000221A7002B0BDE8F0418A
:1015E000FFF730BB3948006889B2B2FBF1F18142A4
:1015F000B8D13A4A3A49C2F800C043F0010281F832
:1016000000C03260D8F81410D8F81020D8F81000B4
:10161000013992B202FB01F280B2B2FBF0F0FFF7A7
:101620000FFB20B111282AD143F00903336002B027
:10163000BDE8F0812A492B4A097852F8212023F08D
:101640000803336002B0BDE8F04110473DB1244BC0
:1016500003221A7002B0BDE8F041FFF759BD1F4DDB
:101660001F4A002702212F601170FFF7E9FA0028B6
:10167000DDD0112803D143F008033360D7E7237886
:10168000134A144E1268009203EB83039B00E11887
:101690000C46CA684B69097902EB4205024604F11F
:1016A0000C0056F82540A0470B4B04221A7002B0DC
:1016B000BDE8F041FFF7C6BA074B01228CE700BF37
:1016C000282A002040290020102A00200C2A00206F
:1016D000242A0020302A00201A2A00201C2A002058
:1016E0001B2A0020245B02002DE9F0417A4FD7F835
:1016F000008018F0080F82B077D17849784A0C68DA
:101700001268601C0860002A3DD1764E327802EBE8
:101710008202950006EB050E4FF08052DEF8103085
:10172000BEF806C01269BEF80840591E6144214443
:1017300092B2B1FBF2F290426ED36B4A69D0146858
:10174000002C00F0958018F001025AD16749624CD4
:101750000A704FF0805048F001023A604169026916
:101760000069013992B202FB01F280B2B2FBF0F0E3
:10177000FFF766FA20B111285DD148F00903236014
:1017800002B0BDE8F08159484FF080510426067040
:1017900008694D69096980B2013D89B204FB00F016
:1017A00001FB05F1FFF74AFA0028E9D011283CD0E7
:1017B0004C4C4F4A23781268009203EB83039B0042
:1017C000E1184C4FCA684B6902EB42050C460246D1
:1017D000097904F10C0057F82540A047464B1E70CC
:1017E00002B0BDE8F041FFF72DBA4049434A0978FD
:1017F00052F8212028F008033B6002B0BDE8F04118
:1018000010473A4B03221A7002B0BDE8F041FFF7CF
:101810007FBC1268002A96D1344A02211170FFF76A
:101820000FFA0028ACD0112805D148F008033B601E
:1018300002B0BDE8F08133782D4A2E4D1268009237
:1018400003EB83039B00F1180E46CA684B690979C4
:1018500002EB4204024655F8244006F10C00A04772
:10186000254B04221A7002B0BDE8F041FFF7EAB937
:101870009EF8041004292BD0DEF80C201C481D4FC4
:101880000068DEF81430009002EB420270190C3050
:1018900057F822502246A8473278717802EB82032B
:1018A00006EB83030132D2B201200A2A1C71DC80CC
:1018B0001C615C611C81D8600F4B18BF327001F154
:1018C000FF314FF00002717008BF34701A70CAE720
:1018D000094B01221A70C6E7282A00200C2A002092
:1018E0001C2A002040290020102A00201B2A00204A
:1018F000242A0020302A00201A2A0020245B02001B
:101900002DE9F843224EBDF8209096F801E0BEF193
:101910000A0F34D03778DFF880C00EEB0705092DA9
:10192000C8BF0A3D4FF0140808FB05659CF800404D
:101930006A61287103C90EF10102EB8005F10C0305
:1019400083E803007270A5F80890114BD4B908FB26
:10195000073310491A79DB880B60032A0AD0042A5E
:1019600008D0012A11D18CF80020FFF751FD204644
:10197000BDE8F883FFF72EFA2046BDE8F88304207F
:10198000BDE8F8830020BDE8F8832046BDE8F88371
:1019900040290020242A00201A2A00202DE9F043A3
:1019A000744D2C7814F0FB0F83B00DD002280ED0AC
:1019B000032809D1704A136819075CD5022C51D04D
:1019C000032C47D0012C45D003B0BDE8F083022C96
:1019D00048D0032C5BD0012CF6D1674A13681E0750
:1019E00038D4664F664A3B78166803EB83039A0047
:1019F000B918CB889E1BB6B2CE80002E40F09480E2
:101A0000C868DFF894E1D1F81490DEF80030DFF810
:101A10008CC10979009300EB400EB8184B46324652
:101A20000C305CF82E80C0473B78797803EB83025A
:101A3000013307EB8202DBB201390A2B1671D68023
:101A4000D4601661566116813B70797069D00023AD
:101A50002B7002E023F00803136003B0BDE8F043ED
:101A6000FFF7F0B8474A484B127853F8223003B0DA
:101A7000BDE8F0431847454A13680133B3F57A7F50
:101A8000136056D0022CE8D13E4A414BECE73A4A6B
:101A900013681807DED4394F3E4B3A781C684FEA7A
:101AA000820E0EEB020007EB8000013401691C601E
:101AB0004FF08053C6881B690089013931440144C5
:101AC0009BB2B1FBF3F39C42C7D34DD0724492005A
:101AD000BB182A4C1979042943D02F4ED868366890
:101AE0005B69DFF8B8E0009600EB4006A0180C3008
:101AF0005EF826600022B0472378607803EB83020B
:101B0000013304EB8202DBB20021012601380A2BEB
:101B10002370D6601171D1801161516111816070A3
:101B200095D100233B7092E703B0BDE8F043FFF787
:101B30006FBC1248184A03781268009203EB8303C3
:101B40009B00C118154CCA684B6902EB420208465B
:101B500054F8224009790C300D22A04704232B7041
:101B60007BE701232B7078E70D4B1B68002BADD171
:101B700073E700BF1A2A0020282A002040290020ED
:101B8000142A00201B2A0020385B02002C2A002087
:101B9000245B02000C2A0020242A0020302A002086
:101BA000102A0020414B4249DFF81CC100200122CD
:101BB000F0B5187058701871D88018615861188184
:101BC0001876588358629862988383F82C00D885D9
:101BD0009863D863188683F84000A3F84200D8645D
:101BE0001865A3F8440083F85400A3F8560018665B
:101BF0005866A3F85800DA601A625A639A64DA6584
:101C000008804FF0805183F868004C690969294FBA
:101C1000A3F86A00023C89B201FB04F11A67586715
:101C20009867A3F86C0083F87C00A3F87E00C3F8E3
:101C30008420C3F88800C3F88C00A3F8800083F8E0
:101C40009000A3F89200C3F89820C3F89C00C3F852
:101C5000A000A3F8940083F8A400A3F8A600C3F89A
:101C6000AC20C3F8B000C3F8B400A3F8A80083F810
:101C7000B800A3F8BA00C3F8C020C3F8C4000E4AE5
:101C8000C3F8C8000D4EA3F8BC000D4D0D4BDFF896
:101C90003CE0CCF8001004213870306028601060FF
:101CA000108150811960CEF80000F0BD402900205D
:101CB000182A00201A2A0020302A00202C2A00206E
:101CC000142A0020282A0020202A00200C2A002084
:101CD000294B1B685A0701D40820704760B159B1DD
:101CE00003684BB1F0B54FF08054828823699BB2F2
:101CF0009A4203D90720F0BD0E2070470F2AF9D968
:101D0000C388002BF6D0DFF87CE065692669DEF831
:101D100000706C1EB5B204FB05F402FB0373A34212
:101D2000E8D89307E6D1154D2C88012C21D081E805
:101D300090000C2303FB04F3114A0168D150D11821
:101D40004FF080568288C3884F600A814B8130698A
:101D5000316903FB02F389B25A1E013483B292FB4C
:101D6000F3F303FB01110F442C80CEF80070002028
:101D7000F0BD0420F0BD00BF282A0020182A002052
:101D8000302A0020202A0020124B1B685B0702D457
:101D900008231846704728B122B103682BB10723E6
:101DA000184670470E231846704770B40A4C2568D1
:101DB0004DB1466865892089646800FB016100FBBC
:101DC0000540814203D30723184670BC7047136057
:101DD0005160F9E7282A0020302A0020F0B51B4C7A
:101DE0002468670783B002D4082003B0F0BD29B18E
:101DF00020B104682CB1072003B0F0BD0E2003B061
:101E0000F0BD134C2568002DF5D0268965896468DE
:101E1000476806FB0544A742EDD2002AEBD0964264
:101E2000E9D3D418A642E6DB8E0701D01020DCE708
:101E30009D07FBD1BC07F9D11C46009413460A4606
:101E400001460120FFF75CFDCFE700BF282A0020F4
:101E5000302A0020F0B51B4C2468670783B002D4F9
:101E6000082003B0F0BD29B120B104682CB10720CF
:101E700003B0F0BD0E2003B0F0BD134C2568002D5B
:101E8000F5D0268965896468476806FB0544A74242
:101E9000EDD2002AEBD09642E9D3D418A642E6DB75
:101EA0008E0701D01020DCE79D07FBD1BC07F9D1DC
:101EB0001C46009413460A4601460420FFF720FD05
:101EC000CFE700BF282A0020302A00202DE9F04F5C
:101ED000244C2468660783B004D40824204603B049
:101EE000BDE8F08F39B130B10C684CB10724204601
:101EF00003B0BDE8F08F0E24204603B0BDE8F08F9C
:101F0000194E3568002DF1D0B6F808E0B6F80AC0D1
:101F100075684F680EFB0C55AF42E7D2002AE5D03A
:101F20009645E3D3D518AE45E0DB850701D01024F4
:101F3000D4E79D07FBD117F0030BF8D18846D919D8
:101F40009146824603F0CBFDD8F80010CDF8009002
:101F50000C2303FB01F15A467558534640460221B3
:101F6000A847BBE7282A0020302A00201E4B1B6808
:101F70005B0701D408207047A0B103680BB10720AC
:101F800070471A4B1A68002AF9D070B55C681D8931
:101F90005B89426805FB03439A4282B004D3072061
:101FA00002B070BD0E207047960701D01020F7E7F1
:101FB000141BB4FBF5F605FB1644002CEFD1B1FB66
:101FC000F5F405FB1414A4B2002CE8D10029E6D0E6
:101FD0000A449342E3D300220B46009201460320B9
:101FE000FFF78EFCDCE700BF282A0020302A002003
:101FF000064B1B685B0701D40820704720B1044BD7
:102000005B780360002070470E207047282A00206C
:10201000402900204FF0A042D2F80435D94301F402
:10202000002103F40023C2F80815C2F80C357047EC
:102030000D282DE9F04707D00E2839D00F2839D0C8
:10204000102839D0BDE8F08700250129044611D0B9
:1020500020D30229F6D1224B05EB45051D446E78AD
:10206000002EEFD01F4B1B68002BEBD03046BDE895
:10207000F0471847DFF868806F007B1908EB030210
:1020800018F803605378CBB92F444744164BBA78FD
:102090005A55E5E7154B1868FDF7FCFF1049124A41
:1020A00005EB45030B44565D9B789E42CAD1D7E7AA
:1020B0000125CAE70225C8E70325C6E70C4BDFF870
:1020C00034901968094B01EB810149004A461868B0
:1020D000FDF768FF0028D7D189F80040D4E700BF9A
:1020E000602A0020542A0020482A0020442A002088
:1020F0004C2A00203C2A0020CE4B1B68DB0700D472
:10210000704770B5CC4B1C78172C22D8DFE814F040
:102110006A0074007400AB00D000F50018013901AA
:102120003A0022003A00220018003E013E013E0122
:102130003E013E0150005A009B006101180018004A
:102140004FF0A0434FF4F0110022C3F80C15C3F870
:10215000082570BD4FF0A042B84CD2F80435B848FD
:10216000D94301F4802103F48023C2F80815C2F892
:102170000C352168006801EB81010022BDE8704048
:10218000FDF710BF4FF0A042AC4CD2F80435AC487C
:10219000D94301F4802103F48023C2F80815C2F862
:1021A0000C35216800680022BDE87040FDF7FABEDA
:1021B0004FF0A0434FF4F0110022C3F80815C3F804
:1021C0000C2570BD4FF0A0434FF4E01000224FF4F7
:1021D0000031C3F80805C3F80C25C3F80C15C3F883
:1021E000082570BD4FF0A0434FF4B0110022C3F892
:1021F0000815C3F80C2570BD4FF0A0404FF4A01295
:102200000025C0F80825C0F80C55D0F8042582F444
:10221000F01212F4003200F02181022C4FF400324F
:10222000C0F8082514BF28211221C0F80C55834A94
:10223000834812681C7002FB01F100680022BDE8AF
:102240007040FDF7AFBE4FF0A04300224FF4D01016
:102250004FF48021C3F80805C3F80C25C3F80C150A
:10226000C3F8082570BD4FF0A0404FF4A012002421
:10227000C0F80825C0F80C45D0F8042582F4F01207
:1022800012F4003200F0E2804FF40032C0F808256A
:102290000821C0F80C45694A69481268006803249F
:1022A0001C7002FB01F1BDE870400022FDF77ABE10
:1022B0004FF0A0404FF4A0120024C0F80825C0F849
:1022C0000C45D0F8042582F4F01212F4003200F02C
:1022D000A1804FF40032C0F808252821C0F80C4531
:1022E000564A57481268006804241C7002FB01F12A
:1022F000BDE870400022FDF755BE4FF0A0414FF4FD
:10230000A0120020C1F80825C1F80C05D1F8042559
:1023100082F4F01212F4003200F084804FF40032A4
:10232000C1F80825C1F80C054449454A09681068F8
:1023300005241C7049000022BDE87040FDF732BE44
:102340004FF0A0414FF4A0120020C1F80825C1F8B9
:102350000C05D1F8042582F4F01212F4003252D0A8
:102360004FF40032C1F80825C1F80C05344A33494E
:102370001068096806241C700022BDE87040FDF753
:1023800011BE4FF0A0434FF4A0101FE72D4D286859
:10239000FDF780FED4F1110402462AD048BB012C7F
:1023A0000DD0C826284B25492868096806FB04F487
:1023B000A3FB04435B0901FB03F1FDF7F3FD4FF0C1
:1023C000A0434FF400210022C3F80C15C3F80825E0
:1023D00070BD4FF0A04300224FF4C0104FF4C02155
:1023E000C3F80805C3F80C25C3F80C15C3F8082575
:1023F00070BD4FF0A0434FF400210022C3F8081530
:10240000C3F80C2570BD4FF40030C1F80C05C1F8BD
:102410000825ABE74FF40031C0F80C150421C0F8D3
:1024200008255DE74FF40030C1F80C05C1F8082518
:102430007AE700BF402A0020582A00204C2A0020BA
:102440005C2A0020502A00201F85EB514FF40031F8
:10245000C0F80C150221C0F808251CE74FF4003124
:10246000022CC0F80C1514BF04210221C0F8082565
:10247000DDE600BF03780D2B15D00E2B15D00F2BEA
:1024800004D0102B08BF032301D070470223084A51
:1024900003EB4303134458780028F6D0054B1B6820
:1024A000002BF2D018470023F1E70123EFE700BF2C
:1024B000602A0020542A0020032803D900230B702F
:1024C00000207047074A4FF0A04352F82000D3F88D
:1024D000102501238340934314BF012300230B7075
:1024E000002070474C5B020070B5CB4B1A6812F0AD
:1024F000010201D1104670BD0346172800F2CB81BE
:10250000DFE810F023013001300171009700BD00B9
:10251000E1005A0030001800300018000401570193
:1025200057015701570157017C010F01190146005E
:10253000640064004FF0A042B84CD2F80435B848AB
:10254000D94301F4802103F48023C2F80815C2F8AE
:102550000C352168006801EB81010022BDE8704064
:10256000FDF720BD4FF0A042AC4CD2F80435AC488A
:10257000D94301F4802103F48023C2F80815C2F87E
:102580000C35216800680022BDE87040FDF70ABDE7
:10259000A4484FF0A0434FF4C01200214FF4C025CF
:1025A0001524C3F80825C3F80C150A46C3F80C55C2
:1025B000C3F8081504709DE74FF0A04399484FF405
:1025C000A01200214FF400350724EAE74FF0A041A4
:1025D000944C4FF4F0120020C1F80C25C1F8080506
:1025E0000246237086E74FF0A0424FF4A01300206C
:1025F000C2F80835C2F80C05D2F8043583F4F0139C
:1026000013F4003300F030814FF40033C2F8083582
:102610000821C2F80C05814B81481A68814B00687B
:1026200003241C7002FB01F1BDE870400022FDF79D
:10263000B9BC4FF0A0424FF4A0130020C2F80835F7
:10264000C2F80C05D2F8043583F4F01313F4003308
:1026500000F012814FF40033C2F808352821C2F887
:102660000C056E4B6E481A686E4B006804241C7093
:1026700002FB01F1BDE870400022FDF793BC4FF072
:10268000A0424FF4A0130021C2F80835C2F80C157F
:10269000D2F8043583F4F01313F4003300F0F4801F
:1026A0004FF40033C2F80835C2F80C155B4B5C4A96
:1026B00019685C4B106805241C7049000022BDE8B5
:1026C0007040FDF76FBC4FF0A0424FF4A013002103
:1026D000C2F80835C2F80C15D2F8043583F4F013AB
:1026E00013F4003300F0AE804FF40033C2F8083525
:1026F000C2F80C154B4B4A4A484910680968062431
:102700001C700022BDE87040FDF74CBC4FF0A043A8
:102710004FF4F0120021C3F80C250A46C3F808153F
:10272000E8E64FF0A0433F484FF4E01200214FF499
:102730000035132435E74FF0A0433A484FF4D01248
:1027400000214FF4802514242BE74FF0A041354899
:1027500000234FF4B012C1F80825C1F80C351A4611
:102760000370C7E64FF0A0404FF4A0120024C0F859
:102770000825C0F80C45D0F8042582F4F01212F4B4
:10278000003266D0022B4FF40032C0F8082514BF87
:1027900028211221C0F80C45204A224C12682048FA
:1027A000237002FB01F100680022BDE87040FDF7D4
:1027B000F9BB1D4D04462868FDF76CFCD4F11103EC
:1027C000024635D0A0BB012B0ED0C824174E1349AA
:1027D0002868096804FB03F3A6FB03435B0901FBBC
:1027E00003F1FDF7DFFB02464FF0A0434FF400205A
:1027F0000021C3F80C05C3F808157BE64FF0A04391
:1028000008484FF4F01200211224C3F80825C3F839
:102810000C150A4604706DE6402A00204C2A002060
:102820005C2A0020582A0020502A00201F85EB51E6
:102830004FF0A0434FF400200021C3F80805C3F86F
:102840000C1557E64FF40031C2F80C15C2F80835E4
:1028500050E74FF40031022BC0F80C1514BF0421CF
:102860000221C0F8082597E74FF40031C2F80C1593
:102870000221C2F80835CEE64FF40031C2F80C153B
:102880000421C2F80835ECE64FF40031C2F80C150B
:10289000C2F808350AE700222CE600BFF8B5224D41
:1028A000224E234B2860044610F0020031601A606B
:1028B00011D0204B20484A080E270D210F26102545
:1028C0001970DF7004219E715D72FCF79BFEF8B1F8
:1028D000E30702D4F8BDE2070CD54FF0A0434FF454
:1028E000F0120021C3F80825C3F80C15C3F8182509
:1028F0000028EFD1114A12480021FDF725FB0028DE
:10290000E8D1104A10480121BDE8F840FDF71CBB92
:10291000FCF7D0FE0028DBD101460C4A0C48FDF73D
:1029200013FBE107E4D5D8E7402A00204C2A002019
:10293000542A0020602A00205C5B0200F92002007B
:102940005C2A002015200200502A00207524020075
:10295000442A0020032801D907207047012A12D0F9
:10296000012917D008D30229F6D10D4B00EB400006
:10297000034400205A707047094B00EB40000344A9
:1029800000209A707047012901D00022E8E700F189
:102990000D02D2B200EB400301490020CA54704737
:1029A000602A002070B41D4D1D4CD5F800371D491C
:1029B0001D4A10F0010F14BF4FF44036002623F4D7
:1029C00040333343C5F80037D4F8003710F0020F16
:1029D00014BF4FF44035002523F440332B43C4F893
:1029E0000037D1F8003710F0040F14BF4FF4403413
:1029F000002423F440332343C1F80037D2F80037D2
:102A000010F0080F23F4403314BF4FF4403100217D
:102A10000B43C2F80037002070BC704734000050F0
:102A2000380000503C0000504000005008B5032022
:102A3000FFF7B8FF10B1062808BF002008BD00BF8F
:102A400010B50388102B08D0112B05D1264B186820
:102A50000138186038B110BD10BD234C216881B118
:102A60000131216010BD01220221FFF773FF48B33D
:102A7000072827D01D4B1B68002BECD0BDE8104069
:102A8000184701220846FFF765FF48B1072807D01D
:102A9000164B1B6803B1984721680131216010BDB6
:102AA000072202210120FFF755FF08B10728EFD1C7
:102AB000042202210020FFF74DFF0028ECD0072858
:102AC000E6D1E9E7072202210120FFF743FF08B121
:102AD0000728CFD1002108460A22FFF73BFF002834
:102AE000B9D00728C6D110BD702A00206C2A00205A
:102AF00010B5204B82B01860B1B10C4600200DF12A
:102B00000601FFF7D9FC08B102B010BD0DF10701B5
:102B10000120FFF7D1FC0028F6D19DF8073013BB48
:102B20009DF8063013BB2370134B186810B10020BA
:102B300002B010BD01220221FFF70CFF08B10728E7
:102B4000E2D1072202210120FFF704FF08B1072884
:102B5000DAD1002108460A22FFF7FCFE0028E6D061
:102B60000728D1D1E3E702232370DDE70B2323708D
:102B7000DAE700BF6C2A0020702A002076DF704759
:102B800078DF70477ADF70477CDF704760DF70471F
:102B90003CDF704748DF704700221146FCF7A0BDBC
:102BA00008B50F490F48FDF7E5FA0F4A0F491368BA
:102BB000088001330E48136001F082FE30F00802F5
:102BC0000DD043F20402904209D043F201429042F8
:102BD00005D000221146BDE80840FCF781BD08BDC4
:102BE0009C2A0020F82A0020502E0020582E002079
:102BF000882A002008B50D490D48FDF7BBFAC1B27F
:102C00000C4801F06BFA30F008020DD043F20402D8
:102C1000904209D043F20142904205D00022114671
:102C2000BDE80840FCF75CBD08BD00BF782A002065
:102C3000482E0020002B002010B50446FEF7AEFE03
:102C40002046BDE8104001F0DFB800BF0AB90020FF
:102C5000704708B5104600221146FCF741FD0020E0
:102C600008BD00BF027802B1704708B5054B3B2193
:102C70001888FFF783FF00B908BD1146BDE808407A
:102C8000FCF72EBD6028002010B5044602F0DEF9E6
:102C90002146154801F05AFD2146144801F022F959
:102CA000204601F025FB2046FFF7CAFE2388102BA3
:102CB0000AD0112B03D10E4B4FF6FF721A8020461B
:102CC000BDE8104001F01EB80720FFF70DFC18B159
:102CD00000221146FCF704FD054BA2881A8020460D
:102CE000BDE8104001F00EB8882A0020002B00201B
:102CF00060280020072808B51ED00A2810D0042814
:102D000000D008BD144B13211888FFF737FF30F0AF
:102D10000803F6D000221146BDE80840FCF7E0BCED
:102D20000020FFF7E1FB90B9FFF780FE50B9FFF7F5
:102D30002FFF0028EED108BD01F092F830F0080313
:102D4000E8D108BD00221146FCF7CAFCEFE70022DB
:102D50001146FCF7C5FCE7E76028002010B50446E3
:102D600030B1032803D10220FFF7BEFB50B910BDDC
:102D7000FFF7BAFB60B9FFF759FE70B9FFF708FF1C
:102D80000028F4D000221146BDE81040FCF7A8BC92
:102D900022462146FCF7A4FCEDE700221146FCF791
:102DA0009FFCEBE70A4601460148FCF799BC00BFCF
:102DB000EFBEADDEF0B59FB0002400942046C94BB5
:102DC00005220921FDF746F818B122462146FCF7F5
:102DD00087FCC54AC5480121FDF7B6F818B10022A5
:102DE0001146FCF77DFCC24AC2480121FDF7ACF850
:102DF00018B100221146FCF773FCBF4A40F6CD41E2
:102E00000320FFF74BFD18B100221146FCF768FCC8
:102E10000EA90020FFF76CFE18B100221146FCF746
:102E20005FFC9DF83840B549A4F10204B4FA84F47B
:102E3000002348220820640902F0CCFD18B10022CA
:102E40001146FCF74DFC082200210EA8FCF74CFBB4
:102E50009DF83830002243F001030EA88DF8383079
:102E60000F92FFF793FE10B11146FCF739FCA4480E
:102E700002F0D6FD18B100221146FCF731FCA14842
:102E800002F0D8FD18B100221146FCF729FC8DF89C
:102E90001440FEF787FE18B100221146FCF720FC13
:102EA00005A801F0FFFF18B100221146FCF718FC3D
:102EB000052200210DF13D00FCF716FB9DF83D3089
:102EC000914A0E9243F00103032203F0FD0362F3E3
:102ED00084036FF345130725102401228B488DF8D6
:102EE0003D300EA98DF83E508DF83F408DF83C20C6
:102EF00002F074F818B100221146FCF7F1FB9DF8BE
:102F000014308348012262F3030362F307138DF840
:102F1000143002F0EFFD7E4982B205A8FFF734FEBF
:102F200018B100221146FCF7DBFB40F24130FFF7FD
:102F300027FE18B100221146FCF7D2FB082200211F
:102F40000EA8FCF7D1FA4FF4A07400224FF40271DE
:102F50004FF4C8730EA8ADF83840ADF83A10ADF88C
:102F60003C20ADF83E30FFF70DFE10B11146FCF7E6
:102F7000B7FB382200210DEB0200FCF7B5FA022264
:102F80000620644B8DF838200021012503242422DB
:102F90008DF83B0005A8ADF8484013930C468DF81A
:102FA0003A50FCF7A1FA4FF49670B42609900094B9
:102FB0002146594B8DF8205005AA0EA80A9600F01C
:102FC000BFFD18B122462146FCF78AFB534C0C2268
:102FD00020460021FCF788FA0C22002102A8FCF709
:102FE00083FA9DF80C309DF80D509DF80E20049446
:102FF0000120002460F3030305F0F00502F0F00265
:1030000060F3071364F3071564F3071202A9444839
:103010008DF80C308DF80D5002948DF80E2001F0D3
:10302000BDFB18B122462146FCF75AFB14220021B1
:103030000DEB0200FCF758FA9DF821209DF8225074
:103040009DF824409DF823603648012363F3030272
:1030500063F3030563F3030406F0F00663F307125A
:1030600063F3071563F3071400276FF307168DF852
:10307000183005A964238DF821208DF822508DF891
:1030800024408DF82360059707978DF8203000F0D5
:1030900053FF18B13A463946FCF722FB4022002183
:1030A0000EA8FCF721FA20490EA801F03BFC9DF880
:1030B00074309DF87520012161F3030302F0F002E2
:1030C00061F307136FF307120EA88DF874308DF8B3
:1030D000752001F0CDF948B300221146FCF700FB42
:1030E00024E000BF182B0020F52B0200542E0020F6
:1030F000A12B0200742A0020F52C0200B02A002027
:10310000892C0200392C02004D2C0200AC2A002030
:103110007C5B0200642800205D2D0200582E0020F8
:10312000882A0020002B0020885B02002F4B3048AB
:1031300001246422194651251D605A609C601C734D
:10314000FDF70AF82B4B2C481C60194600240A2274
:103150004FF496755D609A601C73FCF7FDFF214685
:103160001C220EA8FCF7C0F9244B254A5F89254B89
:103170000E944FF420364FF4702503210EA88DF8DD
:103180004840ADF846700F9610958DF84410139294
:10319000149301F073F818B122462146FCF7A0FA07
:1031A000194B002218684FF48031FCF7FBFE18B170
:1031B00000221146FCF794FA144B002218684FF4D1
:1031C0000041FCF7EFFE18B100221146FCF788FA27
:1031D000032000F079FD18B9FFF7DCFC0028FBD0D4
:1031E00000221146FCF77CFAF6E700BF782A00209F
:1031F000482E00209C2A0020F82A0020882A00203F
:10320000652C0200992B0200542E0020742A002005
:1032100071DF704772DF704779DF70477DDF70477D
:1032200065DF70472DE9F04F83B004880C9FBDF82F
:103230003490B7F800A0002C4CD0984600231646D6
:103240008B4605461C4603E02A880134A24224DD51
:103250006A6852F82400019000220DF1030101A8D0
:10326000FFF7DEFF10BB9DF80320B242ECD103B3A1
:103270003A8893194B4518DC42440DF1030101A82B
:103280000123FFF7CDFF88B93A889DF803100A445F
:103290003A802A880134A242DADCDBB13B88013B68
:1032A000CAEB03039BB2FF2B12D90C2003B0BDE87D
:1032B000F08F3B885A1C334402334B4592B2F4DC06
:1032C0003A8008F802B03A88013292B23A80D3E7E5
:1032D00008F80A30002003B0BDE8F08F2DE9F04770
:1032E000002314881380436B84B0BBB1022C03D835
:1032F0000C2004B0BDE8F08702261D780E701388FC
:1033000001339BB211261380CE54138801339BB234
:103310001380CD54138801339BB21380056B002DAD
:103320006FD003F11206A642E2D81126CE541388BC
:1033300001339BB210261380CE54138801339BB205
:103340001380EE7BCE54138801339BB21380AE7B87
:10335000CE54138801339BB213806E7BCE541388F6
:1033600001339BB213802E7BCE54138801339BB262
:103370001380EE7ACE54138801339BB21380AE7A59
:10338000CE54138801339BB213806E7ACE541388C7
:1033900001339BB213802E7ACE54138801339BB233
:1033A0001380EE79CE54138801339BB21380AE792B
:1033B000CE54138801339BB213806E79CE54138898
:1033C00001339BB213802E79CE54138801339BB204
:1033D0001380EE78CE54138801339BB21380AE78FD
:1033E000CE54138801339BB213806E78CE54138869
:1033F00001339BB213802D78CD54138801339BB2D7
:10340000138090F82E50002D40F00681154690F85C
:103410002D200E460746002A40F01681BA78002A71
:1034200040F03D81FA78A2B1D91CA1423FF660AFCD
:103430000221F1542B8801339BB201212B80F154DE
:103440002B880B449BB22B80F2542B880B449BB2ED
:103450002B807A68A2B1D91CA1423FF649AF022164
:103460001278F1542B8801339BB20A212B80F1543E
:103470002B8801339BB22B80F2542B8801332B8095
:103480003B89002B40F08F813B8A002B40F0A681C6
:103490003B8B002B40F0BB81396A002944D02B883C
:1034A0009A1DA2423FF624AF0A88052A40F2948171
:1034B0006FF4486802EB080080B24FF27D3E704521
:1034C00040F28A814888052840F286816FF4486C72
:1034D00084441FFA8CFCF44540F27E814FF6FF7E57
:1034E000724504D0704502D0824200F275810522F7
:1034F000F2542B8801339BB212222B80F2542B887A
:1035000001339BB22B800A88F2543344120A5A705A
:103510002B8802339BB22B804A88F2543344120A20
:103520005A702B8802332B80D7F82480B8F1000F13
:1035300031D0B8F804202988131D0B44A3423FF66C
:10354000D7AE931CFE2B3FF6D3AE033272542B88BA
:1035500001339BB2FF222B80F2542B8801339BB2A4
:103560002B80B8F80020F2543344120A5A7028888D
:10357000023080B22880B8F8042062B1D8F8081070
:10358000002900F02981304402F0A9FAB8F804308B
:103590002A8813442B8097F82C30002B40F0A18010
:1035A000387800283FF4A5AE3B88012B00F0148149
:1035B0002B8803F1020EA6453FF69AAE012805D1ED
:1035C0007A7802321A449442FFF492AE023CE31A33
:1035D00004A99BB221F8083D06EB0E00FFF71EFE82
:1035E00000287FF486AE3A78022A00F02981012A69
:1035F00000F0D4801A460821FE2A3FF679AE2B88C7
:10360000541CF4542B8801339BB22B80F1542B882B
:1036100001331A442A806CE6DE1CA6423FF668AEEF
:103620000226CE54138801339BB21C261380CE543D
:10363000138801339BB2013D1380032D00F2CC802F
:10364000DFE805F0A6A39CA90933A3423FF650AEDC
:1036500002A8FFF7DDFD00287FF44BAE2B8808227F
:10366000CA542B8801339BB21B222B80CA54288852
:10367000013080B22880062208440DF1090102F0D1
:103680002EFA2B889DF8082006339BB22B8002B1BE
:103690000122F2542B8801339BB22B80BEE6043307
:1036A000A3423FF625AE02A8FFF7B6FD00287FF43F
:1036B00020AE2B88BDF808200321F1542B8801335C
:1036C0009BB219212B80F1542B8801339BB2F11846
:1036D0002B80F254120A4A702B8802339BB22B8043
:1036E000A0E6D7F82880B8F1000F75D0B8F804200C
:1036F0000232FE2A3FF6FCAD2B884FF000094FF056
:10370000160A08E0BA6A02EB8808B8F80420023208
:10371000FE2A3FF6EDAD0132F2542B8801339BB205
:103720002B8006F803A02B8801339BB22B80B8F8BE
:103730000020F2543344120A5A702B8802339BB291
:103740002B80B8F80410F0180A4661B1D8F8083098
:103750001946002B40D002F0C2F9B8F804302A888C
:1037600013449BB22B8009F1010997F82C205FFAD2
:1037700089F94A4509EB4908C4D811E70225CD5417
:10378000138801339BB2138040E60125CD54F7E73F
:103790000025CD54F4E70325CD54F1E77A78934220
:1037A000BFF429AF26E707F108080222019400952B
:1037B000404611463346FFF735FD00287FF499ADAA
:1037C000019400954046334610220621FFF72AFD5A
:1037D00000287FF48EAD57E607208AE507F1100830
:1037E000019400954046334602220321FFF71AFD5B
:1037F00000287FF47EAD01940095404633461022A8
:103800000721FFF70FFD00287FF473AD40E607F1B5
:103810001808019400954046334602221421FFF710
:1038200001FD00287FF465AD0194009540463346C4
:1038300010221521FFF7F6FC00287FF45AAD2BE685
:10384000BDF808209342FFF4D5AE0921D4E600BFAD
:1038500030B593B01F230D46ADF80430ADF80630F7
:1038600010B3C3785B0702D4072013B030BD02A9A0
:1038700001AAFFF733FD0028F7D102ACC5B1EB7800
:10388000002BF1D128460AA90DF10602FFF726FD0B
:103890000028EAD19DF806300AAA20469DF80410B7
:1038A000FFF7B8FC13B030BDADF804000446E5E7FF
:1038B0002B46ADF806502A46EFE700BF73DF70478E
:1038C00074DF704730B5944C944887B007220021CC
:1038D000FBF70AFE637823B3914D2B78012B3FD081
:1038E000A278002A3AD1022B4AD1227B03232B70E3
:1038F000002A4ED1237E04222A70002B00F007817B
:10390000884B1A68002A4AD02378002B47D0864B70
:103910001B78002B43D1854B01210720197090475C
:1039200040E0A3787E4D2BB32B78022B18D0012BCF
:1039300026D102232B70A378002BD6D0774B5A7850
:1039400052B99A7842B9DA7832B91A7922B95A79E1
:1039500012B99B79002BC8D002231AE0022B0FD199
:10396000704A1268002A00F0CF80714B01210820B4
:10397000197090472B78012B00F09980022BDAD038
:10398000227B0AB9032BB5D0227E12B9042B00F09A
:10399000BE80644A126812B1033B012BB4D9634B59
:1039A00000221A70182200216846FBF79DFD297835
:1039B00000234A1E8DF8003001938DF808300393E0
:1039C000032A27D8DFE802F0664B2902594BE06949
:1039D0001A79216AADF81000ADF81210002A00F033
:1039E0008B802278002A00F08B804F4A11780029C2
:1039F00040F08680504A0393042402231046D4707A
:103A00008DF80830FFF724FF002841D14B4B29786F
:103A100006221A70002934D02FE0464B60691A79CB
:103A20002169ADF81200ADF81010002A5DD022789F
:103A3000002A5DD03C4A1178002959D13E4A0393AF
:103A4000042402231046D4708DF80830FFF700FFDD
:103A5000F0B93A4B297805221A7091B10DE02F493F
:103A60003648A268636801910224012104708DF830
:103A70000010ADF81220ADF810306846FFF71EFFB9
:103A800030B9284B1B6813B12C4A10789847002096
:103A900007B030BD214B29490193012200230A7050
:103AA0008DF80020ADF81230ADF81030E5E76278FF
:103AB000002A3FF43EAF194A517800297FF469AFDC
:103AC000917800297FF465AFD17800297FF461AF48
:103AD000117900297FF45DAF517900297FF459AF46
:103AE0009279002A3FF425AF53E71A7B002A9ED132
:103AF000124B03221A70C0E71A7B002A7FF471AFC1
:103B00000E4B04221A70B8E709490A7033E70B4AD2
:103B1000002313702B7042E7DC2E0020D42E0020EF
:103B2000742F0020A82E0020CF2E0020532F00201D
:103B3000752F0020242F0020642E0020882F0020C5
:103B40002DE9F047DDF820C0002800F09B80002A16
:103B500000F098801746054698460E460FCFDFF8CE
:103B600058E1DFF858A1DFF85891AEE80F000FCF09
:103B7000AEE80F0000243A68444BCEF800202146FE
:103B800007224348434FC3F800C08AF80040C9F8F1
:103B90000080FBF7A9FC404B404ADFF828E11A609F
:103BA000214638223846C3F808E0FBF79DFC05F1B2
:103BB000100393E80300AA78EB7895F800E0BA7058
:103BC000FB7007F1100395F801C087F800E083E867
:103BD000030005F1080393E8030007F1080E05F15F
:103BE00018038EE8030093E803006A6A87F801C0AF
:103BF00007F1180383E80300B2B1294B7B62686ABE
:103C0000284A9A60B0F804E001881980A3F804E01B
:103C1000BEF1000F08D0013A23468168C95C02F862
:103C2000011F01337345F8D1AB6AB3B11E4BBB62C0
:103C3000A86A1E4A9A6084889C800188198044B1D1
:103C4000013A00238168C95C02F8011F0133A342D5
:103C5000F8D195F82C3087F82C302B6A33B1144BFF
:103C60003B622A6A5188598012881A806B681BB19E
:103C7000104B7B606B687B6031460648BDE8F047BF
:103C8000FFF7E6BD0E20BDE8F08700BFD02E002074
:103C9000D42E0020642E0020242F0020002F00208E
:103CA0009C2E0020B02E00207C2F0020342F0020DE
:103CB000782F0020202F0020DC2E0020742F0020E1
:103CC000A82E0020542F002010B582B002AB002493
:103CD00043F8044D094A10701846FEF789F9082880
:103CE00007D020B9019B2BB1054B01221A7002B0FD
:103CF00010BD0194FFF7E6FD02B010BD742F002047
:103D0000AC2E002030B50388112B83B018D0192BAE
:103D10000AD0102B01D003B030BD037D012BFAD1A6
:103D2000324B82881A80F6E78379002BF3D1304A30
:103D30001378013B032BEED8DFE803F03423491A54
:103D40002A4B82881B882B4900249A420C70E2D1AE
:103D500002A8274B40F8044D01251D70FEF748F9D5
:103D6000082829D068BB019B3BB3234B1D70D2E7C9
:103D7000224B234A1B6800201070002BCBD09847A1
:103D8000C9E702A80024032340F8044D1370FEF78E
:103D90002FF9082810D0A0B9019B73B1164B01224E
:103DA0001A70B8E702A80024022340F8044D1370EB
:103DB000FEF71EF90828EED10194FFF783FD0028D5
:103DC000A9D0104B1B68002BA5D09847A3E702A8E9
:103DD0000B490024042340F8044D03250D70137093
:103DE000FEF706F90828D6D1E6E700BF70280020C4
:103DF000742F0020CF2E0020AC2E0020A82E0020F3
:103E0000882F0020D02E00200238012816D830B587
:103E1000114C237883B00BB903B030BD02A8002544
:103E200040F8045D2570FEF7E3F8082807D058B97C
:103E3000019B2BB10123237003B030BD7047019566
:103E4000FFF740FD0028E7D0044B1B68002BE3D0B0
:103E5000984703B030BD00BFAC2E0020D02E00200C
:103E6000164B1B7863B1164B1A784AB930B5154A10
:103E7000127883B032B1FFF723FD18B103B030BD23
:103E80000020704702A8002540F8045D01241C7042
:103E9000FEF7AEF8082806D048B9019B23B10A4BBB
:103EA0001C7003B030BD0195FFF70CFD18B1074B36
:103EB0001B6803B19847002003B030BDDC2E002002
:103EC000CF2E0020742F0020AC2E0020D02E0020FA
:103ED000A0DF7047A2DF7047A3DF7047A4DF704701
:103EE000A6DF70470B88112B06D0502B08D0102B63
:103EF00004BF8B88438270474FF6FF73438270473D
:103F0000037D002BF7D010B54389CC889C4282B04A
:103F100001D002B010BDCB8B022BFAD10268002A6F
:103F2000F7D091F8203002A903F0010383F00103D8
:103F300001F8043D9047ECE7F0B50E4693B03368C6
:103F4000036012A94FF6FF7341F60F024382012569
:103F500021F8382D3279027504460374021D284673
:103F60008DF81250FFF7B4FF08B113B0F0BD237DF8
:103F7000002B40F09B801C2200210BA8FBF7B4FA19
:103F80009DF82C20237D42F00202002163F30412ED
:103F90008DF82C200C910E910F91002B40F0828017
:103FA0000025012742F6192E2946032203A8ADF861
:103FB00014E0109311958DF81670FBF795FA9DF8A3
:103FC0000E30B27B8DF80C2067F3420303F0E70359
:103FD00065F30003F27B8DF80E302946337B8DF8B4
:103FE0000D2006A814228DF80330FBF77DFA03A8F4
:103FF0000DF1030E0790ADF822500BA905AD06AAEE
:10400000A31DA0880695ADF82070ADF82470CDF8FA
:1040100028E0FFF75FFF05460028A6D1B06800281A
:1040200042D042F608132946032203A88DF81670E1
:10403000ADF81430FBF758FA9DF80E309DF80D20BE
:10404000307CB1688DF80C0067F3420365F3C3035D
:1040500001AF65F3041365F3030265F3000365F331
:10406000071238468DF80E308DF80D2000F054FC04
:1040700029460646142206A8FBF736FAB3B2ADF875
:104080002030ADF8243005AB069306A903AB04F14C
:104090000E02E0880A970793ADF82250FFF71CFF45
:1040A00013B0F0BD02AB7BE7E0815EE7014603227F
:1040B00002A8FBF719FA9DF808309DF80A20717BD9
:1040C0008DF8091065F3030365F3071365F34202E6
:1040D0008DF808308DF80A204DE700BF70B5037CDD
:1040E00088B08B428DF8071021D0044608220021A9
:1040F00002A8FBF7F9F99DF8073023740125002683
:104100000DF1070302AAE188608AADF80850ADF806
:104110000A600393FFF7E2FE38B9628A4FF6FF7335
:104120009A4201D0237D2BB9082008B070BD002031
:1041300008B070BD0146102204A8FBF7D5F9E68847
:10414000BDF80A20039B608A8DF8125002AC04A9C6
:104150000694ADF81060ADF814200793FFF7C0FE89
:10416000E3E700BF75DF704776DF70477ADF70479F
:104170007BDF7047184B18884FF6FF7398422AD0A0
:1041800010B5164A164C1378217B0133DBB29942E5
:1041900082B013700CD2237C002111708BB963693B
:1041A00023B102A8002200F8042D984702B010BDE8
:1041B0000C49FFF7D7FF0028F8D0A369002BF4D1F2
:1041C000F4E73B21FFF7D0FF0028E8D0A369002BDC
:1041D000E5D09847E3E77047B82F0020942F0020E0
:1041E000982F0020BC2F002070B51E4B1E4A5B8804
:1041F0001188994282B00FD852889A420CD31B4B37
:104200005B6923B102A8012200F8042D9847184CDD
:104210000023237002B070BD154C227862B1134B9D
:104220005B69002BF4D002A8002200F8042D984707
:104230000023237002B070BD0C4D0E4BA8681E7891
:1042400069680D4B002E18BF01461868FBF7AAFEDF
:104250000028DDD0AB69002BDAD09847002323700B
:1042600002B070BD8C2F0020BC2F0020982F0020A2
:10427000892F0020942F0020B42F0020F8B5054688
:104280000FCD144C144F0FC4064695E807000023C9
:1042900084E807003B70B6B13068104B716803C307
:1042A000A3F10800FFF762FF90B90D4D0D4C0E4AC7
:1042B0000E4800234FF6FF762E8023701946BDE886
:1042C000F840FBF741BE0548FFF752FF0028ECD04D
:1042D000F8BD00BF982F0020892F0020BC2F0020A0
:1042E000B82F0020942F002075410200B42F002029
:1042F00070B50288112A27D0034612D9122A07D096
:10430000502A47D1244CC188E289914230D070BDF7
:1043100053F8060F214A596803C2BDE87040FFF701
:1043200063BF102A35D102461B4C52F8160F1C4EA3
:1043300051689B88194A1B4DE4893380002303C2CE
:104340002B70002CE9D070BD174A1549154B106829
:104350004FF6FF7400220C801A70FBF79BFE0028BA
:10436000D5D00D4B9B69002BD1D0BDE870401847CC
:10437000C28B022ACBD190F82030DB07CDD40A4B78
:104380001868FBF787FE0028C1D0A369002BECD189
:10439000BDE770BD70BD00BF982F00208C2F00209E
:1043A000B82F0020942F0020B42F0020A0DF7047EA
:1043B000A2DF70472DE9F04304468FB015469946B9
:1043C000884600294DD025B92A4629462846FBF7BC
:1043D00087F907A81C220021FBF786F89DF81C60CE
:1043E000ADF8044000242146012746F00206684645
:1043F00003228DF81C6008940A940B940C940D947D
:104400008DF80670FBF770F89DF8022099F80030DF
:104410008DF8003067F3420202F0E70364F3000313
:1044200099F801608DF80230214602A814228DF817
:104430000160FBF759F80D4BADF8124002AA07A92D
:104440001888169BCDF80CD001ACADF81050ADF823
:104450001450CDF818800294FFF7AAFF0FB0BDE802
:10446000F0830A460846FBF73BF9ACE70C30002026
:10447000F0B595B014A941F60A0321F8403D012397
:104480000446A44A8DF812301846FFF78FFF002823
:1044900040F0EE802288002A40F0EC802289002A39
:1044A00040F0F780228A002A40F00081228B002A07
:1044B00040F00981228C002A40F01281228D002ACE
:1044C00040F01B81236B002B64D01A688DF81820F4
:1044D0001A68120A8DF819205A888DF81A20DA788D
:1044E0008DF81B205A688DF81C209B688DF81D30B4
:1044F0001D0A1C221B0C00210DA88DF81E508DF8E2
:104500001F30FAF7F1FF9DF83430002503AE42F674
:10451000232E43F002030127294630460322ADF83B
:1045200014E08DF834308DF816700E9510951195B5
:1045300012951395FAF7D8FF9DF80E3094F83C20A9
:104540008DF80C2067F3420303F0E70365F30003E3
:1045500094F83D708DF80E302946142208A88DF885
:104560000D70FAF7C1FF6B4A099610886A4BADF8D7
:104570002A5008260DF1140E06AF08AA0DA9CDF891
:1045800020E0ADF82860ADF82C600C97FFF710FF25
:1045900000286DD1636B5BB11A7919685F4B00938A
:1045A00042F62A2004F13C03FFF704FF00285FD104
:1045B000A06B00285CD003788DF8183043888DF804
:1045C00019301B0A8DF81A3083888DF81B301B0AAE
:1045D0008DF81C30C3888DF81D301C221B0A002169
:1045E0000DA88DF81E30FAF77FFF9DF834300025B6
:1045F00003AE43F00203012742F6502E294630460F
:1046000003228DF834308DF81670ADF814E00E9555
:104610001095119512951395FAF766FF9DF80E30D7
:1046200094F83C208DF80C2067F3420303F0E70375
:1046300094F83D408DF80D4065F30003294614229F
:1046400008A88DF80E30FAF74FFF324A0996072472
:104650001088334BADF82A5005AF06AE08AA0DA955
:104660000897ADF82840ADF82C400C96FFF7A0FE57
:1046700015B0F0BD2B4B6168009342F6292004F180
:104680003C03FFF797FE0028F2D12289002A3FF46D
:1046900009AF254BE168009342F6242004F13C0366
:1046A000FFF788FE00283FF4FDAEE1E71F4B61698C
:1046B000009342F6252004F13C03FFF77BFE00281F
:1046C0003FF4F4AED4E71A4BE169009342F6272099
:1046D00004F13C03FFF76EFE00283FF4EBAEC7E7A2
:1046E000144B616A009342F6262004F13C03FFF765
:1046F00061FE00283FF4E2AEBAE70F4BE16A009397
:1047000042F6282004F13C03FFF754FE00283FF452
:10471000D9AEADE70C300020D42F0020E42F0020CC
:10472000EC2F0020DC2F0020CC2F0020FC2F0020BD
:10473000F42F002004300020C42F0020A0DF704799
:10474000A2DF7047A6DF704763DF70470B88112B2D
:1047500006D0502B08D0102B04BF8B88C381704724
:104760004FF6FF73C381704710B54389CC889C42D4
:1047700082B001D002B010BDCB8B022BFAD10268FF
:10478000002AF7D091F8203002A903F0010383F04A
:10479000010301F8043D9047ECE700BF2DE9F0412B
:1047A00094B005460E4604A84349102201F097F93B
:1047B00004A805F11001FFF7C7FF10B114B0BDE860
:1047C000F08133682B6014A901274FF6FF73EB814A
:1047D00021F8487D2B7C8DF80A3038462A1DFFF7DA
:1047E000ADFF04460028E9D1214668460322FAF7C6
:1047F0007BFE9DF800309DF802E032798DF80120B3
:1048000067F3030367F3071367F3420E21460DA80E
:104810001C228DF800308DF802E0FAF765FE9DF855
:1048200006309DF8342095F81080DFF890E0CDF840
:1048300038E067F3420364F3C30364F30413DBB2A9
:104840003B43042142F012024FF0020C77798DF8BD
:1048500006308DF83420B379ADF83C10ADF83E1039
:1048600008A8214614228DF80E80ADF80CC0D6F8A9
:1048700008808DF804708DF805300C26CDF848D0EE
:1048800010941194139401AFFAF72EFE0DF10C0E53
:1048900008AA0DA9AB1DA888CDF83080ADF82A4034
:1048A000CDF820E00997ADF82860ADF82C60FFF74F
:1048B00047FF14B0BDE8F081742800208428002050
:1048C000C2894FF6FF739A4201D10820704770B534
:1048D000044686B00C230D461022002102A8ADF834
:1048E0000630FAF701FEE688E089059501240022EA
:1048F0000DF1060302A9ADF808608DF80A40ADF885
:104900000C200493FFF71EFF20B9BDF806300C2BD6
:1049100018BF0C2006B070BD0B7803704B78437045
:104920000220704738B5044608460D4601F0E2F80B
:104930006560208038BD00BF7FDF704782DF704731
:10494000A7DF7047A9DF7047AADF704700207047D4
:1049500000207047002070472DE9F8430646407854
:10496000324900EBC0039B00CA18546864B142008E
:104970002F4D171805EB8707BF7A17F0800F1DD151
:104980000024A046274603E0294DA04627464200C2
:10499000104405EB800023460089DFF894904246DE
:1049A0003946FFF7CFFF0B2811D0002848F241030A
:1049B00018BF1846012C16D0BDE8F8837F06DFD457
:1049C00003F108071FFA84F80F44CC58E0E7737826
:1049D00003EB430309EB830942463946B9F8080063
:1049E0000123FFF7AFFF737803EB430305EB830568
:1049F0004FF6FF7228890C21FFF7A2FFA0B143F206
:104A0000020398420CD008280AD043F204039842CB
:104A100006D0112848F2410018BF0020BDE8F883F5
:104A200048F24100BDE8F883BDE8F8832831002052
:104A300034300020F0B54B78304D89B003EB4303A0
:104A400005EB830308AA0C461A2122F81E1D064610
:104A500001A918890323FFF777FF10B1002009B0DF
:104A6000F0BD6078264FBDF8022000EBC00007EBD8
:104A70008000083001A901F023F898B9607800EBB4
:104A8000400305EB8305AB7A03F0020303F0FF015B
:104A9000002BE3D100EBC00007EB80002422FAF7E3
:104AA00023FDDBE76378BDF80220DFF85CE0154DFD
:104AB00003EBC3039B000321F950617801EBC101B3
:104AC00007EB81013B445B684A60607800EBC00003
:104AD00007EB800001A90830002B08BF754600F0E5
:104AE000FEFF617801EBC10107EB810130463823FD
:104AF0002422A847002009B0F0BD00BF34300020B8
:104B000028310020551E0200DD1D020038B54B780B
:104B10000A4C03EBC3020D463823014604EB820026
:104B20002422FDF7D3F940B96B7803EBC30304EB00
:104B300083046368013308BF606038BD28310020FA
:104B40002DE9F047DFF86C8190B0D8F80040189F4D
:104B5000002C48D0742F46D81D4600246FF0FF0368
:104B600091460E4682460995089701938DF81040AC
:104B700002E00134072C12D002AAA1B24548FDF789
:104B800003F90028F5D108220DEB0201504600F090
:104B900097FF0028EDD1E4B28DF8064003E09DF8C0
:104BA0000640FF2C1FD0032E2ED03B4BEB1AC32BFD
:104BB0001CD93A4BEB1A1B2B34D80AAA1823002114
:104BC000099208938DF8051007AA2023022E52D0CF
:104BD00043F002038DF810300592D8F800304A46B1
:104BE00004A901A8984710B0BDE8F08707AA2C488F
:104BF000B9F1000F10D00368012101FA04F423EA8F
:104C0000040303602023E1E7742F0CBF2323432315
:104C10008DF8103007AADFE701210368A14019428F
:104C2000E1D0E9E71F482B1A232B12D91E4A9542DF
:104C30004FF040032BD01D4A52F824209542D2D188
:104C40001B4AD17AA14207AAC0D100218DF80510D4
:104C5000BCE7174B9A7A0025302302F002020124A8
:104C600002F0FF018DF810308DF805508DF80740E7
:104C700032B107AAAAE743F001038DF81030ABE781
:104C80002422FAF731FC9DF8103007AA9EE743234F
:104C9000BEE700BF04310020403000200C3100206E
:104CA0004C31002028310020CC5B02001030002065
:104CB0003430002050310020002070470020704721
:104CC000002070470020704738B54B780A4C03EB42
:104CD000C3020D463823014604EB82002422FDF76F
:104CE000F5F840B96B7803EBC30304EB8304636806
:104CF000013308BF606038BD283100202DE9F8433A
:104D0000064640782F4900EBC0039B00CA18546840
:104D100064B142002C4D171805EB8707BF7A17F0D6
:104D2000800F20D10024A046274603E0264DA04650
:104D300027464200104405EB800023460089DFF837
:104D4000889042463946FFF7FDFD0B2814D028B164
:104D5000012C1DD048F24100BDE8F883012C17D08A
:104D60000020BDE8F8837F06DCD403F108071FFAB2
:104D700084F80F44CC58DDE7737803EB430309EB69
:104D8000830942463946B9F808000123FFF7DAFDE6
:104D9000737803EB430305EB83054FF6FF72288915
:104DA0000C21FFF7CDFD0028DAD043F20203984230
:104DB000D0D00828CED043F204039842CAD011289C
:104DC000CED1C7E72831002034300020F0B54B7831
:104DD000304D89B003EB430305EB830308AA0C466F
:104DE0001A2122F81E1D064601A918890323FFF780
:104DF000ABFD10B1002009B0F0BD6078264FBDF8C2
:104E0000022000EBC00007EB8000083001A900F091
:104E100057FE98B9607800EB400305EB8305AB7A49
:104E200003F0020303F0FF01002BE3D100EBC0000D
:104E300007EB80002422FAF757FBDBE76378BDF825
:104E40000220DFF85CE0154D03EBC3039B00032158
:104E5000F950617801EBC10107EB81013B445B68CC
:104E60004A60607800EBC00007EB800001A90830C1
:104E7000002B08BF754600F032FE617801EBC101DE
:104E800007EB8101304638232422A847002009B0CF
:104E9000F0BD00BF3430002028310020551E020034
:104EA000DD1D020000286ED02DE9F04F404B414A35
:104EB000414C424F424EDFF820A10121002599725A
:104EC0004FF6FF711981D97285B029461560557268
:104ED0009572814607221846FAF706FB29462422D6
:104EE0003848FAF701FBA846062200212046FAF7C7
:104EF000FBFA10220021A4F11100FAF7F5FA4FF0A5
:104F0000010BDAF8003047F8048F0BFA05F25D4424
:104F100023EA02024FF6FF71FF23072D04F8013C3C
:104F20006372A4F80710CAF8002006F8013F04F1E4
:104F30001C04D9D104A8244B40F8103D2349ADF8F6
:104F400006507423ADF80430FCF7C2FEC0B9204F00
:104F500099F8004087F800B0C4B91E4D1B48A1B2B3
:104F600002AAFCF711FF0134064603461C2202A9DF
:104F7000C8B92846FCF7AAFF1C35B8B9072CEDD1F3
:104F800005B0BDE8F08F48F20E007047BDF8041080
:104F9000BDF806300D4811FB03F189B2FCF7E6FFBE
:104FA00005B0BDE8F08F00233B70E9E73E70E7E70E
:104FB0003430002050310020513000200C300020CF
:104FC0002B30002028310020414B0200043100200A
:104FD00033300020403000204C310020194B1B782A
:104FE00013B948F208007047024650B149B10B6846
:104FF0003BB1F0B4144C256848F2040025B1F0BC74
:10500000704748F20E0070470F46264657F8050FC6
:1050100046F8043B3B7960603371237AE079097983
:10502000A17265F30003DBB240F0030143F0020319
:1050300065F3820365F382012372E17128461570DE
:10504000DDE700BF33300020503100202DE9F04370
:10505000AB4B8DB01B78FF210191002B00F08A80B3
:10506000A84FD7F80080B8F1000F00F083800388C4
:105070008DF80910041D054600222A20102B8DF8FA
:105080000A108DF80B100494ADF814008DF8082068
:105090009D4E00F09F81B27AA888940706D54FF6FE
:1050A000FF74A04269D03489844266D00C46113B1B
:1050B000412B5FD8DFE813F00E015E003801850157
:1050C0005E005E006800F0005E005E005E00420070
:1050D0005E005E005E005E005E005E005E005E00E0
:1050E0005E005E005E005E005E005E005E005E00D0
:1050F0005E005E005E005E005E005E005E005E00C0
:105100005E005E005E005E005E005E005E005E00AF
:105110005E005E005E005E005E005E005E005E009F
:105120005E005E005E005E005E005E005E005E008F
:105130005E005E005E005E005E00070113238DF8D6
:105140000C30002402AD2246284603A9C0479DF832
:105150000C30122B0ED1B27A6B4B012A0AD04FF6CB
:10516000FF7401251846072200219D721C81DC7204
:10517000FAF7BAF90DB0BDE8F083F47A8DF80A4079
:1051800000218DF8091092E77B7A5F4823F0010334
:1051900002F0FB027B72B272A97914238DF80C30F5
:1051A000002940F08281EB7903F0040303F0FF0E45
:1051B000002B00F07781FF2C00F01D82EB7A42F08B
:1051C000080282729A0708D5504BC4EBC40203EB65
:1051D00082039A7E22F001029A76F37A4A4AFF2BE2
:1051E000AFD01378DFF82481022B00F0A082C4EB4B
:1051F000C40308EB830392E803009A7E186122F04F
:105200000202080C998298759A760DF118092146C8
:105210004A463F48FCF7B8FD002840F008819DF859
:1052200009209DF80A103B4D3B4C02EB420206EB75
:105230008202C1EBC101937A13F0400F08BF2C46E4
:10524000034608EB81011C224846A04790B99DF80F
:105250000930324D03EB430206EB8202C3EBC3017C
:10526000907A1C2320F04000907205EB81011A46D1
:105270004846A0479DF80830294A03EB430307EB53
:10528000830302AD9B7A484652F82330294698475B
:10529000D7F80080002456E7AB79112B02D1130711
:1052A00000F14B81B87A1F4B62F07F02152102ADED
:1052B00053F82030B2728DF80C102846984700241D
:1052C000D7F800803FE7BA7A164B02A853F822308D
:1052D00098474FE702F0FD0302F00802B37202F0B4
:1052E000FF09094D002A00F0B580190600F1C681BA
:1052F00002AD10221223B2728DF80C30002422E786
:105300003330002050310020343000204030002065
:1053100004310020DD1D0200551E02000C3100206A
:105320009C5B0200BC5B0200F37AB64C42F00402C4
:105330001321FF2BB2728DF80C107AD1DFF8D082D6
:1053400098F81A20FF2A00F0038298F83620FF2AE6
:1053500000F0008298F85220FF2A00F0048298F8AA
:105360006E20FF2A00F0038298F88A20FF2A00F0BE
:10537000FC8198F8A620FF2A00F0F48098F8C2205B
:10538000FF2A08BF062300F0EE8048F243049E4F38
:105390009E4AA8880692C3EBC303002508EB83034B
:1053A0000A933A1D294606AB09950B950795089572
:1053B000FFF7C2FA00287FF4DDAED7F8008002AD17
:1053C000C1E6F37AFF2B7DD09049914A0023FFF785
:1053D000B5FACFE6B37AD8077FF5CCAE0223B37225
:1053E000AB8833816B7D55F8060F8DF80920AC88AA
:1053F000A979B480112213F001043060B1718DF8E5
:105400000C2000F086805B08824AD35CFF2B00F002
:10541000F580019399B20A2506AA7F48F372B57206
:105420008DF80A30FCF7B0FC002800F06B8102AD6B
:105430002EE716231A22002178488DF80C30FAF74F
:1054400053F8A27AE37ADFF8C88142F04002A272F0
:1054500000249CE7FF2C3FF44BAFC4EBC4036C4D1E
:105460009B00E81806221D4449461130FAF73CF823
:10547000102249462846FAF737F86948694A03680E
:1054800042F824900121A140FF224FF6FF7423EA45
:105490000103D7F800802C832A74AA768DF80A209D
:1054A000036025E7744602AD4DE6C47A5A482146AA
:1054B00006AAFCF769FC002870D0AC79D7F8008008
:1054C00002AD40E65249EB890C8B9C4200F05381BF
:1054D0008C8E9C4200F04D81B1F850409C4200F00F
:1054E0005081B1F86C409C4200F04981B1F888408D
:1054F0009C4200F04281B1F8A4409C4200F09680AA
:10550000B1F8C010994208BF062300F09080002136
:105510005BE7DFF8148140460722294600F0D0FA05
:1055200008F11C08002800F017810134072CF2D183
:10553000D7F80080002402AD05E61A220021374882
:10554000F9F7D2FFB27A7B7AD7F8008042F0600296
:1055500043F002031621B2727B728DF80C10002406
:1055600002ADF0E5052332782649022A00F0EB80EF
:1055700003C9DA00D41A08EB84040F0CA18220615D
:10558000A775FD21D21A08EB82028DF80430DBB238
:1055900091768DF80A30F3720024F8E606A874219B
:1055A000FCF7E4FC8146002887D1194AC4EBC40308
:1055B0009B00D01802EB0308494606221130F9F788
:1055C00093FF102249464046F9F78EFF1449154AC9
:1055D0000B6842F82490012202FA04F44FF6FF709F
:1055E000FF2223EA0403A8F8180088F8102088F89E
:1055F0001A200B6061E70C4602ADA4E519460A25A6
:105600000AE700BF34300020503100200C31002068
:10561000403000202C3000200431002030310020A8
:105620004C3100201030002050300020052342F083
:105630000801DCB2B17206AA194653480193F4720C
:105640008DF80A40FCF7A0FB90B99DF809304F4A4D
:10565000C3EBC3001C2302EB800006A91A46FCF72B
:1056600035FCBA7A4A4B06A853F8223002A998476B
:10567000F37AA888FF2B3FF44AAFA5E60DF118098D
:1056800021464A464048FCF77FFB00285ED19DF842
:1056900009309DF80A103F4ADFF804E13E4C03EB65
:1056A000430305EB8305C1EBC101AB7A13F0400F57
:1056B00008BF7446034602EB810148461C22A047FE
:1056C00078B99DF80910314D0C2303FB01631C22AE
:1056D000987A20F04000987202FB01511346484628
:1056E000A0479DF808302D4A03EB430307EB8303E3
:1056F00002AD9B7A484652F8233029469847D7F89E
:105700000080F6E59DF80930204AC3EBC3001C2356
:1057100006A902EB80001A46FCF7D8FBBA7A1C4BAC
:1057200002AD06A853F8223029469847B0E5C4EBED
:10573000C40308EB8303154A518A9A7E198322F029
:1057400001029A7661E5FE21DA001BE702ADD6E799
:10575000002308E7012306E7B57A019445F0080520
:10576000E3B2A1B258E60223FDE60423FBE60323DD
:10577000F9E601235BE7002359E7042357E70323F6
:1057800055E7022353E700BF043100200C3100200D
:10579000AC5B020040300020551E02009C5B020002
:1057A0004D490200454B1B78062B18D0444AD2F8CD
:1057B000883043F47003C2F88830BFF34F8FBFF3D3
:1057C0006F8F4FF01023D3F80022002A45DBD3F867
:1057D0000032002B41DB3B4B3B4A1A6070473B4B8E
:1057E0001B681A07E2D13A4B1B6803F0F003302B19
:1057F00028D0374B1B6803F0F003302B11D0344B0B
:105800001B6803F0F003302BD0D1324B1A6812F032
:10581000F002CBD14FF08043C3F80C21C3F8102124
:10582000C4E72C4B1B6813F0F00FE8D1234B2A4A36
:105830001B780321062B1160B8D1244B1B681B0772
:10584000B4D1DCE7234B1B6813F0F00FD1D1234A0E
:10585000D36823F08073D360CBE7214B0122C3F8D8
:105860000425D3F80024002AFBD04FF01023152282
:105870001B49C3F80022D1F80034002BFBD04FF0B5
:10588000102315221649C3F80422D1F80024144B22
:10589000002AFAD00022C3F80425D3F80024002AF5
:1058A000FBD0BFF34F8F06490E4BCA6802F4E0628B
:1058B0001343CB60BFF34F8FFEE700BFE00F00F054
:1058C00000ED00E0882800200090D003E40F00F0F5
:1058D000E80F00F0EC0F00F0A0050040F0ED00E054
:1058E00000E001400400FA052EDF704751DF7047E9
:1058F00010DF704761DF704708B508461146FDF7B5
:1059000051FA08BD2DE9F043DFF8C090DFF8C08000
:10591000D9F80050D8F800402A4F2B4EB5FA85F53B
:10592000B4FA84F46D0983B064099DB1002C3BD1B5
:1059300033683A88ADF80420184601A9FFF7DAFF6A
:10594000052831D030B300221146F9F7C9FE0024F2
:10595000002DEBD101A8FFF7C9FF05280CD00022CC
:105960001146E0B1F9F7BCFE0CB301A8FFF7BEFF8A
:1059700005284FF00104F2D1B4B933683A88ADF884
:105980000420184601A9FFF7B5FF05280CD0012512
:105990000028D8D11846D8F800309847D7E7D9F86A
:1059A000003001989847DFE703B0BDE8F083336823
:1059B0003A88ADF80420184601A9FFF79BFF052897
:1059C000C0D1D2E75E310020603100206431002078
:1059D0006831002011B111F0030F01D0072070478A
:1059E000F8B50A4F0A4E0B4D32800C460A493C600E
:1059F0002B60FFF77DFF00B1F8BD084B01221A7044
:105A00001620BDE8F840FFF76FBF00BF60310020EF
:105A10005E3100206C310020F95802005C3100201A
:105A2000034618B1024A0020136070470E207047E9
:105A300068310020034618B1024A00201360704705
:105A40000E2070476431002008B50A4B1B6843B133
:105A5000984700B908BD00221146BDE80840F9F793
:105A60003FBE054B1B78002BF4D0BDE80840FFF784
:105A700049BF00BF6C3100205C3100200649074A55
:105A8000074B9B1A03DD043BC858D050FBDC05488C
:105A90008047054800470000D85B0200002800202E
:105AA0008C280020A557020001F40100FEE7FEE764
:105AB000FEE7FEE7FEE7FEE7FEE7FEE7FEE7C0469D
:105AC00010B501390244904207D010F8013B11F89B
:105AD000014FA342F7D0181B10BD002010BD10B518
:105AE000431E0A44914204D011F8014B03F8014FC0
:105AF000F8E710BD034613F8012B002AFBD1181A52
:105B000001387047F8B500BFF8BC08BC9E46704726
:105B1000F8B500BFF8BC08BC9E46704743000000C3
:105B200000280020D1120200E50F02005D120200E1
:105B3000111102007910020055130200B511020084
:105B4000E9160200250F0200211502000D000000D9
:105B50000E0000000F000000100000000D00030008
:105B6000312002000E000300312002000F0003006C
:105B70003120020010000300312002004E6F7264D9
:105B800069635F644F5045004E6F7264696353658B
:105B90006D69636F6E647563746F7200BD4C020053
:105BA000354A0200C14C0200CD4D0200B94C020042
:105BB0000D4B020051490200C94C0200C54C0200C5
:105BC0005949020055490200FD4C0200FFFFFFFF4A
:085BD0003098FF7F0100000086
:105BD80000000000000000000000000000000000BD
:105BE80000000000000000000000000000000000AD
:105BF8001C5B020000000000000000000000000024
:105C0800000000000000000000000000000000008C
:105C1800000000000000000000000000000000007C
:105C2800000000000000000000000000000000006C
:105C3800FFFF0000010001000F1801000A18010011
:105C4800FFFF000035F9038DA0BD4FFF90318A4E4C
:0C5C58000000775853594E430090D003D1
:0400000320005A7D02
:00000001FF
