:020000021000EC
:10F000000080002099580200C9580200CB58020025
:10F0100000000000000000000000000000000000F0
:10F02000000000000000000000000000D3580200B3
:10F030000000000000000000D5580200D758020070
:10F04000D9580200D95802002D100200D9580200E8
:10F05000D9580200D95802002D070200D9580200E1
:10F06000D9580200D9580200D9580200D9580200D4
:10F07000D9580200D9580200D9580200D9580200C4
:10F08000D9580200B1F80100D9580200D95802003D
:10F0900089F90100D958020065580200D9580200C8
:10F0A000D9580200D9580200D9580200D958020094
:10F0B000D9580200D95802000000000000000000EA
:10F0C000D9580200D9580200D9580200D958020074
:10F0D000D9580200D95802000000000000000000CA
:10F0E0000000000000000000000000000000000020
:10F0F0000000000000000000000000000000000010
:10F1000000000000000000000000000000000000FF
:10F1100000000000000000000000000000000000EF
:10F40000154B002B08BF134B9D46A3F5803A0021F6
:10F410008B460F461348144A121A00F065F80F4B3A
:10F42000002B00D098470E4B002B00D098470020AF
:10F43000002104000D000D48002802D00C48AFF355
:10F44000008000F02BF82000290004F0F5F800F00F
:10F4500011F800BF0000080000800020000000003C
:10F460000000000068280020883100200000000013
:10F470000000000008B5074B044613B10021AFF3AC
:10F480000080054B1868836A03B19847204600F056
:10F4900033F800BF00000000DC67020070B50E4BBF
:10F4A0000E4CE41AA41000251E46A54204D056F8BE
:10F4B000253098470135F8E707F082F9084C094BE9
:10F4C000E41AA41000251E46A54204D056F82530A3
:10F4D00098470135F8E770BD6828002068280020AB
:10F4E000682800206828002002440346934202D086
:10F4F00003F8011BFAE77047FEE700BF2DE9F84F5C
:10F50000244B1A788AB3DFF890B0DFF89090DFF8D8
:10F5100090A00024012703E00134E4B2944224D2F5
:10F5200026B2D9F80050DBF8003015F8360007FA9B
:10F5300000FE1EEA030F05EBC608EDD0164A23EACB
:10F540000E03136001F0E8F815F83650DAF80030D1
:10F5500007FA05F6334000FA05F6B34207D00D4B23
:10F5600001341A78E4B29442DAD3BDE8F88FD8F8BF
:10F570000430002BF3D098F80110A1F10101B1FA89
:10F5800081F14909091AB1FA81F1490928469847D8
:10F59000E5E700BF702800207C2800206C280020B0
:10F5A00074280020F8B5134E0546306800F0B0FD11
:10F5B00040B9114F01243B68AC401C4203D023EA00
:10F5C00004043C60F8BD284601F0A6F80B4D2A68FB
:10F5D00060B122433B680A492A601C433C603068A2
:10F5E00009680022BDE8F84000F01ABD22EA0402D2
:10F5F000F0E700BF782800207C2800207428002035
:10F6000068280020042A01D8072070472DE9F0411E
:10F6100082B088460546174600F026FF002834D001
:10F620001C4C1D481D491E4A1E4B2560002608F132
:10F63000FF340F6080F8008016601E60E4B203277C
:10F64000B8F1000F03D11AE0DBB2C4B11C4623B2FB
:10F6500005EBC30215F833009378134A8DF8053093
:10F6600001A98DF804708DF806608DF8076000F030
:10F6700003FF631E0028E7D002B0BDE8F0810B4A0B
:10F680000B48002100F09EFCF6E700F0B7FE0028D2
:10F69000C6D0F1E76C2800207028002068280020E0
:10F6A000742800207C280020A5F50100FDF401004D
:10F6B0007828002070B5084D2B785BB1074E0024E8
:10F6C0003368012113F8340000F0CAFF2B780134AD
:10F6D000A342F5D8002070BD702800206C280020BF
:10F6E000BFF34F8F0449054BCA6802F4E06213432D
:10F6F000CB60BFF34F8FFEE700ED00E00400FA059A
:10F7000059B10AB909207047531E1A40FAD18260D4
:10F7100001608380C260104670470E20704700BFB2
:10F7200010B48468C26803468088121B904203D2DA
:10F7300004205DF8044B7047DA681C680240002022
:10F74000A154DA680132DA605DF8044B704700BFFB
:10F7500003468068DA68904201D10520704710B4F2
:10F760009A6898881C6802400020A25C0A709A6817
:10F7700001329A605DF8044B704700BF484B49481E
:10F7800030B401214FF480344FF400352F22C0F8FB
:10F790008050C3F848431046C3F808435960013805
:10F7A00000BF00BF00BF00BF00BF00BF00BF00BF61
:10F7B00000BF00BF00BF00BF00BF00BF00BF00BF51
:10F7C00000BF00BF00BF00BF00BF00BF00BF00BF41
:10F7D00000BF00BF00BF00BF00BF00BF00BF00BF31
:10F7E00000BF00BF00BF00BF00BF00BF00BF00BF21
:10F7F00000BF00BF00BF00BF00BF00BF00BF00BF11
:10F8000000BF00BF00BF00BF00BF00BF00BF00BF00
:10F8100000BF00BFC3D1244C996000231046236071
:10F82000013800BF00BF00BF00BF00BF00BF00BF66
:10F8300000BF00BF00BF00BF00BF00BF00BF00BFD0
:10F8400000BF00BF00BF00BF00BF00BF00BF00BFC0
:10F8500000BF00BF00BF00BF00BF00BF00BF00BFB0
:10F8600000BF00BF00BF00BF00BF00BF00BF00BFA0
:10F8700000BF00BF00BF00BF00BF00BF00BF00BF90
:10F8800000BF00BF00BF00BF00BF00BF00BF00BF80
:10F8900000BF00BF00BFC3D1044A137030BC704723
:10F8A0000010014000E100E080280020A82800208E
:10F8B0002DE9F0472B4B2C4A0026C3F84061C3F8D2
:10F8C0004461C3F84861C3F84C61C3F80061C3F8F0
:10F8D00004611468621C38D0244AD3F804351568D2
:10F8E000234FDFF8A0805D1B25F07F4501E0631CFE
:10F8F0001DD03A6804EBC40402EB84035A68AA42A0
:10F9000015D8D3F818A01C6AD8F80090DB695046C7
:10F910001946AD1A1644B9F1000F18D0C84700288F
:10F92000E5D000221146FFF7DBFE631CE1D1114B4D
:10F9300011491A780B789A420CD01049104A41F8B4
:10F9400023604FF48013C2F80031BDE8F0871846F9
:10F95000D047CCE7531CDBB2022B08BF00230B704F
:10F96000EBE700BF0010014098280020802800200D
:10F97000882800209428002095280020A028002016
:10F9800000E100E0842800202DE9F04FB64AB74995
:10F9900013780978B6488DB000680690994200F057
:10F9A0005E810133DBB2022B08BF00231370B14A22
:10F9B00052F82330069A0393D318AD4A23F07F43BD
:10F9C000136001230593AC4BAC4A1B780193184696
:10F9D000AB4B12681B680293AA4B0B921D68AA4B93
:10F9E0001B780893A24B1B680A9300231E460793BB
:10F9F000144613468246099600960AF1FF3A5FFACA
:10FA00008AFABAF1FF0F7DD002980FFA8AF200EB62
:10FA1000C20810F8322098F80100214682420C46B4
:10FA2000EBD002EB4207D8F8044098F802C014F873
:10FA300037E00132D2B2944508BF0022BEF1020F76
:10FA400004EBC70414D0BEF1030FE7D14C1C18BF60
:10FA50000B46E3D003EBC30305EB83010B6A0E7582
:10FA6000581CF7D1012498F8010000941946D5E7F5
:10FA7000D4F804E04FEACE0909EB0E0C05EB8C0C30
:10FA80009CF814B0BBF1000FC8D0481C0FD08E45B5
:10FA900000F0E1800F4602E0A6450DD0274607EBB7
:10FAA000C70005EB8000046AB4F1FF3FF4D18CF885
:10FAB000146098F80100B1E7BE4516D009EB0E04BA
:10FAC00005EB8404276AD4F804E007627C1CEED0BE
:10FAD00007EBC70705EB8704194660687044606050
:10FAE0008CF8146098F8010098E701EBC10105EB70
:10FAF000810304461B6A5F1C00F09E80CDF800B0B5
:10FB00001946DFE7009A0494002A40F0C581099B5A
:10FB100013B1574B0A9A1A60079B1BB15A4B9DF8B9
:10FB200020201A70059B002B40F07981049A0B9BD2
:10FB30009B1A18BF012305934FF0FF3E1146002387
:10FB400000939C464A4BD3F800A04C4BD3F800B02E
:10FB50004D4B1B780393019B013BDBB2FF2B0193C1
:10FB600000F0CD801A46029BBEF1FF3F0F4603EB2B
:10FB7000C20943D00EEBCE0405EB8404F046A36823
:10FB8000E268D4F820E04148CAEB030121F07F414C
:10FB900081427FD80A4462604FF0010323754FF021
:10FBA000FF339F42C4F808C0C4F80CC0236200F0C1
:10FBB000A08007EBC70305EB8303606859688842A0
:10FBC00040F28E803E4604E05968814280F0858094
:10FBD00016461A6A401A02EBC203511C05EB830356
:10FBE000F2D106EBC60605EB86063B466060226254
:10FBF0001F46C6F82080BEF1FF3FBBD199F8003008
:10FC000099F801209A423946A5D05A1C99F8024029
:10FC1000D9F80400D2B203EB4303944289F80020E0
:10FC200008BF89F800C000EBC30110F83330012B86
:10FC30003BD03B461F46DEE7154FCDF81CB00121F7
:10FC4000B9600027CDF820B0CDF824B0CDF800B0D1
:10FC500019460A9736E76046644663464AE700233A
:10FC600003930593AFE600BF942800209528002059
:10FC700080280020A02800208C2800209828002020
:10FC800090280020882800209C280020FEFF7F006C
:10FC900000100140C3EB0A0323F07F4393423ABFB5
:10FCA000D31A6360C4F804C076E7D1F8048008EB87
:10FCB000C80405EB8404207D0028BAD18B68A360BA
:10FCC000CA68E2600E6926614969E1610399002909
:10FCD0003FF459AFA060034655E7091A596080E721
:10FCE000091A5960012243462762C34600921F4603
:10FCF00081E743460122C34600921F467BE7009BF3
:10FD0000002B40F0CF80049B994200F084804B1C74
:10FD100000F0BF80674D684B684A1B681268D5F8D1
:10FD20000445674E01EBC10102EB81013078D1F847
:10FD300004E0E21A22F07F42033200284BD16148EE
:10FD40004FF48031C5F844134FF40037C5F804135D
:10FD50000121C0F8807107602F202960013800BFA1
:10FD600000BF00BF00BF00BF00BF00BF00BF00BF9B
:10FD700000BF00BF00BF00BF00BF00BF00BF00BF8B
:10FD800000BF00BF00BF00BF00BF00BF00BF00BF7B
:10FD900000BF00BF00BF00BF00BF00BF00BF00BF6B
:10FDA00000BF00BF00BF00BF00BF00BF00BF00BF5B
:10FDB00000BF00BF00BF00BF00BF00BF00BF00BF4B
:10FDC00000BF00BF00BF00BF00BF00BF00BF00BF3B
:10FDD00000BFC3D1317096452CBF03EB0E029A18B9
:10FDE000344922F07F43C1F84035D1F80425121B75
:10FDF00022F07F421B1B033223F07F439A4204D937
:10FE0000304B4FF40032C3F800212F4A0023137007
:10FE10000DB0BDE8F08F059B002BF6D077E72B4B9C
:10FE2000049A1C68DDF80CC00020064607464FF017
:10FE3000FF3E15E05968614520D818695F60C1EB45
:10FE40000C0C0E441F751C6A40B10699C3F820E0E3
:10FE5000314421F07F41D86096469960059822464A
:10FE600002EBC203511C05EB8303E3D1B8B94FF099
:10FE7000FF33049301230593049960E6CDF80CC089
:10FE8000A0B903980492091A5960012305931146F9
:10FE900055E6FFF773FCB8E70C4A136037E60B4BE7
:10FEA0001C60E4E7094BC3F800B02CE70748046086
:10FEB000E7E700BF001001408028002088280020CC
:10FEC000A828002000E100E09C28002098280020BD
:10FED0002DE9F04113F0030502D00720BDE8F081C1
:10FEE000002BFAD00C46984617460646FFF746FC0C
:10FEF00029492A4A2A4B069808601470C3F80080E2
:10FF0000002C47D021B201EBC10308EB8303444628
:10FF10002570257524349C42FAD101EBC10189007A
:10FF20002048DFF89CE0204D08EB010307EB470277
:10FF3000036003F118040020D20008F80100A118A2
:10FF40009F709F729F745C600A44184F184C5870E1
:10FF50005A61D9601872587218745874154A164B41
:10FF60003870032121704FF0FF374FF48014602167
:10FF70002F608EF80000114DC3F8804183F81413F0
:10FF80001C60C2F8086583F81113D2F804352B60A1
:10FF9000BDE8F0812146C0E7842800209628002093
:10FFA00088280020902800209828002095280020EC
:10FFB0008C2800200010014000E100E08028002093
:10FFC00094280020F0B5144B1E68C6B1A2B198B1B8
:10FFD000124B1F786FB13378A3B106F124040023CC
:10FFE00003E014F8245B9E466DB10133BB42264604
:10FFF000F7D104231846F0BD07231846F0BD0823A7
:020000022000DC
:100000001846F0BD9E46012333707170B261002323
:10001000C0F800E01846F0BD88280020962800208F
:10002000344B1B688BB1F0B5334C2478844201D833
:100030000720F0BD0429FBD900EBC004A4001D1962
:100040001B5D012B03D00820F0BD082070472B4B0F
:100050006C785B68012CC3F308030CBF0F460027C4
:10006000002B3AD0103B5CB2002C3CDB04F1604327
:1000700003F5614393F800335B09DBB2012B30D009
:10008000032B0CBF082310231D4C24681C446378E9
:10009000A678257803F1010EB64508BF4FF0000E93
:1000A00075451CD003EB43036668DB00F51816D0DA
:1000B0004FF0010C06F803C0124E6860124BD6F8E0
:1000C0000405A8604FF48016E9602F616A6184F826
:1000D00001E0C3F800610020F0BD1023D4E7042044
:1000E000F0BD0023D0E7094C03F00F031C44237E2E
:1000F0005B09C2E7882800209628002000ED00E078
:10010000902800200010014000E100E0FCEC00E03D
:100110002A4B1B685BB12A4A1278824201D8072019
:10012000704700EBC00213F82230012B01D00820E9
:100130007047F0B4234B5B68C3F30803002B2FD048
:10014000103B5AB2002A31DB02F1604303F56143F0
:1001500093F800335B09DBB2012B25D0032B0CBFD6
:1001600008231023184A12681A4453789578147893
:10017000591CA94208BF00218C4213D003EB430352
:100180005468DB00E7180DD0104D0226E6544FF4FA
:100190008013786051700020C5F80031F0BC7047C2
:1001A0001023DFE70420F9E70023DBE7084A03F028
:1001B0000F031A44137E5B09CDE700BF8828002097
:1001C0009628002000ED00E09028002000E100E0EB
:1001D000FCEC00E070B5161E07DD0C468D1914F816
:1001E000010B00F0CDF8A542F9D1304670BD00BF3B
:1001F00010B50C46204600F0BDF80528FAD00120C5
:1002000010BD00BF30B50478012C83B017D0022C8C
:100210002CD00CB103B030BD21492248FFF798FA29
:10022000F8B1204B9A68DB689A42F3D102A8032305
:1002300000F8083D1C4B1B68984703B030BD43686D
:100240001A4D19782846FFF76BFAC0B9AA68EB680F
:100250009B1A012B1BD00121154800F017FE03B09B
:1002600030BD01210E4800F083FDDAE70E4BC26875
:1002700001928DF800401B6868469847CAE70A4B10
:1002800001908DF800401B6868469847E3E702AB91
:10029000054A03F8080D126818469047DBE700BFCF
:1002A000AC280020B8280020B0280020C828002052
:1002B000B42800202DE9F041284C88B022600029A4
:1002C00048D00C4605468A88254809681E46FFF72F
:1002D00017FA10B108B0BDE8F081A289A1682148E1
:1002E000FFF70EFA0028F5D11F4F95F804C095F8D6
:1002F00005E00FCF6C460FC497E80F001CF1000714
:1003000084E80F0018BF0127AB680693BEF1000F09
:1003100014BF4FF00E084FF0000895F803C0AC78FA
:100320002A786B7811498DF81C6068468DF8147036
:100330008DF81580CDF808C003940192009300F069
:1003400059FC0028C6D100F059FE0121084800F0F0
:100350009DFDBFE7072008B0BDE8F081B028002070
:10036000C8280020B8280020E0670200050202002B
:10037000B428002001460148FFF7EAB9C828002048
:10038000084B10B50121044618461C7000F0F0FC23
:10039000112800D010BD21460348BDE81040FFF7EA
:1003A000BFB900BFD8280020B8280020002810B40A
:1003B00018DB00F1604303F561434901C9B283F8DA
:1003C0000013C3B24009800000F1604000F56140B5
:1003D00003F01F0201239340C0F8803103605DF8F1
:1003E000044B7047C3B2044A03F00F04490122448E
:1003F000C9B21176E6E700BFFCEC00E038B5184C56
:1004000025780DB1082038BD4FF0FF33FF2263631C
:10041000A363E36323646364A364E364236501214A
:1004200006206360A360E36023616361A361E3610D
:100430002362636284F85430A362E36284F8563026
:10044000236384F8573084F85520FFF7AFFF054A3F
:100450004FF000410123C2F804132370284638BD31
:10046000DC28002000600040024B1878003018BFE4
:1004700001207047DC2800202DE9F041774D2C1831
:1004800094F93430002B02DB0820BDE8F08191F8AC
:1004900003C0BCF1000F7FD06B68013300F0D18046
:1004A00000260827731C9C0005EB0408DFF8ACE16C
:1004B000D8F80480B8F1FF3F77D0B31C9F4268D9C9
:1004C0009C000EEB0408D8F80480B8F1FF3F6CD014
:1004D000F31C9F425DD99C000EEB0408D8F8048001
:1004E000B8F1FF3F61D0331D9F4252D99C000EEB03
:1004F0000408D8F80480B8F1FF3F56D0731D9F421E
:1005000047D99C00A644DEF804E0BEF1FF3F4CD082
:10051000B31D9F423DD99C0005EB0408DFF83CE188
:10052000D8F80480B8F1FF3F3FD0F31D9F4230D987
:100530009C000EEB0408D8F80480B8F1FF3F34D0DB
:1005400006F108039F4224D99C000EEB0408D8F85A
:100550000480B8F1FF3F28D006F109039F4218D963
:100560009C000EEB0408D8F80480B8F1FF3F1CD0C3
:1005700006F10A039F420CD99C00A644DEF804E071
:10058000BEF1FF3F11D00B36B74202D92B6B0133BE
:1005900009D00420BDE8F0816B6A01334FF00806F2
:1005A00055D00C277EE70B232C242E192C187260B3
:1005B000DAB284F83420BCF1000F02D12B4483F866
:1005C0004C008B78B3B94C784FF0A04600F5E0733F
:1005D000A40046F82340CB7852B2ABB9083A154490
:1005E000097895F8542042EA811285F8542018467B
:1005F000BDE8F081830003F1A043D3F8004724F065
:100600000204C3F80047E6E7930003F1804303F5D3
:10061000C0430A78D3F8101521F4473121F4407112
:10062000C3F810151204000202F44031D3F810454B
:1006300000F4F8520A432243C3F810250020BDE815
:10064000F08100236A6084F834301A46B9E76A62A0
:10065000334684F834603246B0E700BFDC2800201F
:1006600030B42B4B1A1882B092F8344062B2072A89
:100670001CDD134493F84C309B09032B3AD0012B1B
:1006800014BF4FF440334FF40033800000F1A0401A
:10069000D0F8002722F44032C0F80027D0F8002715
:1006A0001343C0F8003702B030BC7047072CFAD8AB
:1006B000900000F1804002F1400300F5C0409B0033
:1006C0009BB2D0F8104503F1804303F5C04344F0DA
:1006D00001040025C0F810451D601B680193019BB3
:1006E0000029E0D00B4901239340C1F8043302B044
:1006F00030BC70474FF0A0420123D2F81025834050
:1007000013420CBF4FF400334FF44033BDE700BF3A
:10071000DC280020006000404FF0A043D3F81035E3
:1007200023FA00F000F00100704700BFF0B5BB4BAA
:100730001A68012A83B000F0D5800024B84B1A68EB
:10074000012A00F0E180B74B1A68012A00F0EE8020
:10075000B54B1A68012A00F0FB80B44B1A68012AD5
:1007600000F00881B24B1A68012A00F01581B14BE4
:100770001A68012A00F02281AF4B1A68012A00F0A2
:100780002F81AE4B1A68012A00F03C810025210719
:1007900017D0E20700F15881A30700F1BE81670777
:1007A00000F19C81260700F1A881E00600F15C8140
:1007B000A10600F16881620600F17481230600F150
:1007C0008081002C01DB03B0F0BD9D4C94F85410E7
:1007D00021F0C000231893F93430072B14DD04EB0B
:1007E00083035E6886B1870007F1A0470123D7F82D
:1007F000002783402B424FEA9111C2F3014240F09F
:10080000A381032A00F0B58194F855108C4B21F098
:10081000C000221892F93420072A14DD03EB82036A
:100820005E6886B1870007F1A0470123D7F800274B
:1008300083402B424FEA9111C2F3014240F0928172
:10084000032A00F0B78194F856107D4B21F0C000C8
:10085000221892F93420072A14DD03EB82035E6824
:1008600086B1870007F1A0470123D7F8002783400E
:100870002B424FEA9111C2F3014240F06C81032AEE
:1008800000F0878194F857106D4B21F0C0000444AC
:1008900094F93420072A96DD03EB82035E68002E6C
:1008A00091D0830003F1A0430122D3F80047824096
:1008B0002A424FEA9111C4F3014440F03E81032CD7
:1008C00081D1032940F03E814FF40032D3F8004734
:1008D00024F44034C3F80047D3F800472243C3F858
:1008E00000272FE15749D1F8044314F001043FF4E5
:1008F00025AF002119601B680093009B484B1446EC
:100900001A68012A7FF41FAF4E4AD2F804239007D9
:100910007FF519AF00221A601B680093009B414BC2
:100920001A68012A44F002047FF412AF454AD2F853
:10093000042351077FF50CAF00221A601B68009357
:10094000009B394B1A68012A44F004047FF405AF78
:100950003C4AD2F8042312077FF5FFAE00221A604A
:100960001B680093009B314B1A68012A44F008046D
:100970007FF4F8AE334AD2F80423D7067FF5F2AEFF
:1009800000221A601B680093009B294B1A68012AF9
:1009900044F010047FF4EBAE2A4AD2F80423960602
:1009A0007FF5E5AE00221A601B680093009B214B87
:1009B0001A68012A44F020047FF4DEAE214AD2F8FE
:1009C000042355067FF5D8AE00221A601B680093F9
:1009D000009B194B1A68012A44F040047FF4D1AE01
:1009E000184AD2F8042310067FF5CBAE00221A6015
:1009F0001B680093009B114B1A68012A44F0800485
:100A00007FF4C4AE00221A601B6801934FF0A0432C
:100A1000019AD3F8105544F00044B8E60061004054
:100A200004610040086100400C610040106100401A
:100A300014610040186100401C6100407C6100406E
:100A4000DC28002000600040684B694AD3F810059C
:100A5000D3F810155368C0F30420C1F3014198473F
:100A6000A3077FF59CAE58E0604B614AD3F82005A0
:100A7000D3F820155369C1F30141C0F3042098470E
:100A8000A1067FF598AE594B594AD3F82405D3F8FF
:100A900024159369C0F30420C1F30141984762060D
:100AA0007FF58CAE514B524AD3F82805D3F8281560
:100AB000D369C0F30420C1F30141984723067FF5B1
:100AC00080AE4A4B4A4AD3F82C05D3F82C15136A4A
:100AD000C0F30420C1F30141984772E6434B444AF6
:100AE000D3F81805D3F81815D368C0F30420C1F360
:100AF0000141984726077FF558AE3C4B3C4AD3F856
:100B00001C05D3F81C151369C0F30420C1F301417F
:100B10009847E0067FF54CAEA6E7344B344AD3F84D
:100B20001405D3F814159368C0F30420C1F30141F0
:100B3000984767077FF536AED0E7022C7FF443AEC7
:100B400003294AD0B0473EE6022A7FF45DAE03296E
:100B500049D0B04758E6022A7FF494AE03293FD02B
:100B6000B0478FE6022A7FF46EAE032932D0B04739
:100B700069E60329EDD14FF40033D7F8002722F4BA
:100B80004032C7F80027D7F800271343C7F80037CB
:100B9000DFE70329E4D14FF4003ED7F8002722F421
:100BA0004032C7F80027D7F800374EEA0303C7F8EA
:100BB0000037D5E70329DAD14FF40033D7F80027FF
:100BC00022F44032C7F80027D7F800271343C7F8AC
:100BD0000037CCE74FF44033F0E74FF4403275E68E
:100BE0004FF4403ED9E74FF44033C6E70060004081
:100BF000DC2800202DE9F843584CA37D13B10820D0
:100C0000BDE8F883002800F0A5800568437FE37500
:100C10004FF0A04205F5E0754FF0030942F825902A
:100C20000768DFF838E10125BD40C2F8085545687E
:100C30004B4F05F5E0754FF0000C42F825C0856973
:100C4000C7F8245563BB90F815C0057D4CEA05052F
:100C5000C7F86C5545680668C7F80C65C7F81455A1
:100C600090F814C0BCF1010F52D00269616022609B
:100C700051B1017F002B68D0394B3A4AC3F80423A5
:100C80000220FFF793FBE37D002B37D0344B082283
:100C9000C3F8002500200123A3756075BDE8F88323
:100CA00090F81580057D48EA0505C7F86C5545683C
:100CB0000668C7F80C65C7F81455057D012DD4D119
:100CC000C36803F5E07342F82390C36805FA03F3A1
:100CD000C2F80835836803F5E07342F823C08368DF
:100CE000C268C7F80825C7F810350369CEF80410A4
:100CF000CEF800300029C9D0017FBDE7184B04228F
:100D0000C3F8002500200123A3756075BDE8F883B2
:100D1000C56805F5E07542F82590C5680CFA05F53B
:100D2000C2F80855856805F5E07542F825308368F6
:100D3000C268C7F80825C7F810350369CEF8041053
:100D4000CEF800300029D9D0017F054B064AC3F800
:100D5000042395E70548062558E700BF34290020FD
:100D60000020004010030200800002000068020022
:100D70003F4A937C0BB111207047F0B4D47D91743D
:100D800090601382A4B93B493B4B0C6001251D6068
:100D90000C60148A138A394D5668A4B20133005D81
:100DA0009BB21382C5F81C0556B10020F0BC7047F9
:100DB000040C2404B4F1005F33D01020F0BC704761
:100DC0001746907C138A2A4C9BB2984205D818E0AB
:100DD000138A9BB2B3F5807F02D00B68002BF7D04B
:100DE000138A9BB2B3F5807FECD00E603C8A3B8ABD
:100DF000B868A4B20133005D9BB23B82C5F81C0504
:100E0000DFE7238A9BB2B3F5807F2AD019490B68AC
:100E1000002BFCD01A4B0121196000200023937491
:100E2000C4E7184D184C154E134F2B602360012357
:100E3000C6F84405C6F848153B605368002BB4D18A
:100E4000204600E079B92B680E4E0F4C0168002B4C
:100E5000F8D000230029336014BF0F201846236008
:100E6000DCE70F20DAE733600F202360D6E700BF0E
:100E7000342900201C2100400820004000200040B0
:100E80000C2000402021004058210040544BDA7CC7
:100E90000AB1112070472DE9F04FDC7DD974D8607C
:100EA0001A759CB95A7D32B94E484F4C4F49026071
:100EB0000120226008605A68002A3BD04B4B4FF457
:100EC0000172C3F804230020BDE8F08F040C240451
:100ED000B4F1005F02D01020BDE8F08F444D454CC6
:100EE0005F68424E2A6022600122C6F83405C6F8C7
:100EF00038153260002FE6D106F5927602E05AB935
:100F000000285ED12968DFF8E8C02268DFF8E4E055
:100F1000344F30680029F2D0354E364D314C002127
:100F20003160D9742960216000BB002ACBD00F202A
:100F3000BDE8F08FDFF8ACE02B492E4FDFF8ACB006
:100F4000DEF800200C68DFF898C0DFF8A0A0DFF81A
:100F50009480DFF8A09038685CB948BB002AEFD0D5
:100F60002448204900220260DA740A600320BDE8A8
:100F7000F08F002AF4D1E8B908601C7DDBF8186511
:100F80001A7DDD680132D2B21A751A7D2E55DC7CCD
:100F90009442D5D89CF81530C9F800008CF813009D
:100FA000C8F80000B3B10123CAF80030BDE8F08FE3
:100FB000002AD5D10F480B4900220260DA740A607A
:100FC000B5E7CCF80020DA74CEF800203A600320B0
:100FD000BDE8F08F084B01221A60BDE8F08F00BF1A
:100FE0003429002024210040082100400020004036
:100FF000102100404421004004200040074A537D56
:1010000053B90749074810B4074C0B60012123600E
:10101000517501605DF8044B704700BF3429002012
:1010200024210040002000400821004030B5834CBE
:10103000834AE37D85B0F3B11368002B40F0B9809B
:10104000804A1168002940F09E807F4B1A6832B1B7
:10105000E17C7A4800221A60002940F0CF807B4B67
:101060001A6832B1A17C754800221A60002940F04C
:10107000D58005B030BD1168002959D0617D744814
:1010800013604FF40173C0F8083329B903F18043AA
:1010900003F5F05301221A606D4A02238DF80030E7
:1010A000D2F88034C2F88034E268E07C01920022F9
:1010B00003938DF8080021686368E27468469847D6
:1010C000644B1A68A2B1228AA17C5C4892B2914218
:1010D0004FF000021A6040F28380028A038A85681A
:1010E0005B4992B20133AA5C9BB20382C1F81C2512
:1010F000554B1A68002ABCD0627D002119601AB1D4
:10110000A3F5A27301221A60E27C4C4B002AB0D0F6
:10111000197DDA688DF80810002001218DF8001083
:101120000192D87493E806006846904705B030BD38
:10113000494B1A68002AC3D0454A1960207DD2F86D
:101140001855237DE17CE2680133DBB22375237DF2
:1011500015549942B4D1637D13B9404B01211960F4
:101160003B4963684FF40170C1F808030192012202
:10117000217D8DF8002000228DF808106846216836
:10118000E27498479CE732491360D1F83C25E17C32
:10119000D2B291427FF459AFE2688DF80810012075
:1011A0008DF800000192684694E80600E3749047C9
:1011B0004BE7274B0020022110608DF80010D3F878
:1011C0008024C3F880240392D3F83C25E36801937C
:1011D000E0748DF80820216863686846984734E712
:1011E000002985D083688DF808100193827490E8F7
:1011F0000A008DF800206846984779E71449C368CB
:10120000D1F83C158DF8081001218DF800100193DC
:10121000C27490E80A006846984720E70C49836842
:10122000D1F84C158DF808100193827490E80A00EB
:101230008DF80020684698471BE700BF342900203E
:101240002421004010210040442100402021004082
:10125000002000401C2100400821004004200040E4
:1012600029DF704728DF7047F0B5594C237883B0E9
:10127000032B38D8DFE803F0476002395549DFF81F
:1012800064E10A78544D4FF0805602EB82023069D7
:1012900001EB820280B21369B3FBF0F0CEF80000DC
:1012A000D78832692E68013B3B4492B2B3FBF2F31C
:1012B00098424A4B484F1B6806BF26F0010646F08D
:1012C000020626F003062E60002B3AD1B30738D46D
:1012D000434B02221A70FFF7C5FF20B1112863D1DA
:1012E00046F008063E6003B0F0BD3E4B1868FFF7BD
:1012F000B9FF0028F7D011283CD1374A136843F0D2
:1013000008031360EFE7334B374D38485978002214
:101310002A6002600029E6D01A78354902EB820281
:1013200003EB82031A79DB880B60032A4AD0042A74
:1013300048D0012AD7D1227003B0BDE8F04000F0B8
:1013400079BB274B4FF0805000221A704269036925
:101350000069013A9BB203FB02F380B2B3FBF0F0E9
:10136000FFF780FF0028BED011281DD146F00806E7
:101370002E60B8E7174D1E4A2B781268009203EBD7
:1013800083039B00E9180D46CA684B69194F097918
:1013900002EB4206024605F10C0057F82650A8471A
:1013A0000423237003B0F0BD0B78114A114F12686B
:1013B000009203EB83039B00CE183546F2687369F5
:1013C0003179E5E703B0BDE8F04000F015B800BFA3
:1013D000262A00204C290020342A0020282A002018
:1013E000272A0020182A0020382A0020202A00203E
:1013F000302A00203C2A00202DE9F0414C4A4D497A
:1014000013784D4D03EB830302EB83034FF08056BB
:10141000DF681869B3F806E01C89326907EB4703F7
:1014200001EB830392B2B3F808C0B3F80A8059689D
:10143000B0FBF2F308FB0C1102FB13024FF0000C9F
:101440000EEB04030344C5F800C0002A4AD13269F8
:1014500092B2964537D099425AD0022F33D037698D
:10146000DFF8E0E02044BFB2B0FBF7F207FB120068
:101470008008CEF80000326992B2B3FBF2F002FBB2
:101480001032CAB14FF080549BB22069226989B2F0
:1014900080B292B2B1FBF0F0B3FBF2F2904233D0E3
:1014A0002269216989B2B3FBF1F001FB103392B2DA
:1014B0009BB2D31A9B082B60204B02221A70BDE806
:1014C000F041FFF7D1BE4FF080531D4A1B691B4905
:1014D00003249BB20C70B0FBF3F01060BDE8F04148
:1014E000FFF7C2BE022FEED03769DFF858E0204484
:1014F000BFB2B0FBF7F207FB12008008CEF8000085
:1015000099423269B8D1D7E7CB1A9B082B60D3E751
:10151000002CD8D0022FD6D033690A4920449BB280
:10152000B0FBF3F203FB12039B080B603369C3E7C4
:101530004C2900203C2A00201C2A0020262A0020BA
:10154000182A0020282A0020F0B5284A136813F032
:10155000080583B00BD026482649007851F82010A2
:1015600023F00803136003B0BDE8F0400847224CA5
:10157000207800EB800080002318197904292DD0F1
:10158000DA681E4F1E4E3F685B69009702EB42020D
:10159000204456F822600C302A46B0472278617801
:1015A00002EB820304EB83030132D2B201200A2A48
:1015B0001D71DD801D615D611D81D860114B18BFFB
:1015C000227001F1FF314FF00002617008BF2570F9
:1015D0001A7003B0BDE8F040FFF746BE094B012288
:1015E0001A7003B0BDE8F040FFF73EBE342A002079
:1015F000272A0020206802004C290020302A0020E1
:101600003C2A0020262A002070B54FF080531D4A46
:101610005D6918691C6911681A69013D80B2A3B23D
:1016200082B000FB05F0C2F38D0201FB03F1FFF76E
:1016300017FE30B1112806D1134A136843F008038E
:10164000136002B070BD114C114A237812680092E9
:1016500003EB83039B00E1180E4ECA684B6902EB53
:1016600042050C460246097904F10C0056F8254063
:10167000A047094B04221A7002B0BDE87040FFF782
:10168000F3BD00BF182A0020342A00204C29002076
:10169000302A00203C2A0020262A002070B54FF076
:1016A00080511D4B08691A684B6909691B4C013A46
:1016B00080B2013B89B282B000FB02F001FB03F172
:1016C0002268FFF7CDFD30B1112806D1144A136806
:1016D00043F00803136002B070BD124C124A237825
:1016E0001268009203EB83039B00E1180F4ECA6857
:1016F0004B6902EB42050C460246097904F10C00E5
:1017000056F82540A0470A4B04221A7002B0BDE8E3
:101710007040FFF7A9BD00BF182A0020282A00202A
:10172000342A00204C290020302A00203C2A0020A6
:10173000262A0020F0B5224D224A2B78126803EBAE
:10174000830305EB83034FF08051DF8818890C6910
:101750001B694E69096938441844A3B2013EB0FBC5
:10176000F3F489B203FB140383B001FB0631FFF7E6
:1017700077FD30B1112806D1134A136843F00803EE
:10178000136003B0F0BD2B78104A114E126800921E
:1017900003EB83039B00E9180D46CA684B6909797E
:1017A00002EB4204024656F8244005F10C00A04723
:1017B000084B04221A7003B0BDE8F040FFF754BD97
:1017C0004C2900201C2A0020342A0020302A002026
:1017D0003C2A0020262A002021490B68180717D42C
:1017E00070B520489A07204A006848BF43F00103BB
:1017F00082B04FF0020448BF0B601470FFF732FD57
:1018000020B111280DD143F008030B6002B070BD68
:101810001548164A007823F0080352F820200B6080
:101820001047134C134A23781268009203EB83038A
:101830009B00E118104ECA684B6902EB42050C464A
:101840000246097904F10C0056F82540A0470B4BDD
:1018500004221A7002B0BDE87040FFF705BD00BF5A
:10186000342A0020182A0020272A0020206802009D
:101870004C290020302A00203C2A0020262A002063
:1018800070B5164B82B01868FFF7ECFC30B1112828
:1018900006D1134A136843F00803136002B070BD09
:1018A000104C114A23781268009203EB83039B00CB
:1018B000E1180E4ECA684B6902EB42050C4602461F
:1018C000097904F10C0056F82540A047084B042282
:1018D0001A7002B0BDE87040FFF7C6BC182A00209D
:1018E000342A00204C290020302A00203C2A0020E5
:1018F000262A002070B54FF0805182B04A690B69EA
:101900000869013A9BB203FB02F380B2B3FBF0F02B
:10191000FFF7A8FC30B1112806D1124A136843F032
:101920000803136002B070BD0F4C104A2378126890
:10193000009203EB83039B00E1180D4ECA684B69CC
:1019400002EB42050C460246097904F10C0056F8F8
:101950002540A047074B04221A7002B0BDE8704032
:10196000FFF782BC342A00204C290020302A0020B6
:101970003C2A0020262A002070B5264C26492368E0
:101980001A0782B00AD50978244A52F8212023F098
:101990000803236002B0BDE8704010474FF080524A
:1019A000012008701E4E5569106911693668126968
:1019B000013D80B289B200FB05F0C2F38D0206FB47
:1019C00001F1FFF74DFC20B1112804D143F00803C9
:1019D000236002B070BD134C134A23781268009242
:1019E00003EB83039B00E118104ECA684B6902EBBE
:1019F00042050C460246097904F10C0056F82540D0
:101A0000A0470B4B04221A7002B0BDE87040FFF7EC
:101A10002BBC00BF342A0020272A002020680200A7
:101A2000182A00204C290020302A00203C2A0020BF
:101A3000262A0020F0B53D4C2578AE0073194FF0F2
:101A4000805704EB83033969DA8889B28A4283B00C
:101A500016D81F891869596992083844FFF700FCA5
:101A600030B111282BD1324A136843F008031360B8
:101A7000354404EB85042F4BE2881A6003B0F0BDB7
:101A80003D69B3F808E0186959693E69ABB2D31AE9
:101A90007044C6F38D0219441844FFF7E1FB30B1DE
:101AA000112828D1224A136843F0080313604FF02D
:101AB0008053204A1B699BB2136003B0F0BD2378AA
:101AC0001D4ADFF87CC01268009203EB83039B0081
:101AD000E1180F46CA684B69097902EB420E0246CB
:101AE00007F10C005CF82E70B847144B04221A70F2
:101AF000FFF7BAFBBCE723780F4A114E1268009239
:101B000003EB83039B00E1180C46CA684B69097913
:101B100002EB4205024604F10C0056F82540A047AE
:101B2000064B04221A70FFF79FFBC0E74C290020E8
:101B3000342A0020202A0020302A0020262A0020D3
:101B40003C2A00202DE9F041664E336813F0080C62
:101B500082B040F08180644C644A94F800E01568DB
:101B60004FEA8E0707EB0E0104EB81014FF080581E
:101B70000A69C8880989013A02440A44D8F8101051
:101B8000002D41D15A4908684FF08051096989B246
:101B9000B2FBF1F2904274D36AD0002D69D1774440
:101BA000BF003C44504E2179042900F09780E26840
:101BB000504863690068504C009002EB4202F019F3
:101BC0000C3054F822402A46A0473278717802EB54
:101BD000820306EB83030132D2B201200A2A01F10B
:101BE000FF311D71DD801D615D611D81D860434B3A
:101BF00018BF3270717008BF357000221A7002B0C1
:101C0000BDE8F041FFF730BB3948006889B2B2FB4C
:101C1000F1F18142B8D13A4A3A49C2F800C043F0E2
:101C2000010281F800C03260D8F81410D8F81020F2
:101C3000D8F81000013992B202FB01F280B2B2FB77
:101C4000F0F0FFF70FFB20B111282AD143F0090370
:101C5000336002B0BDE8F0812A492B4A097852F876
:101C6000212023F00803336002B0BDE8F0411047A3
:101C70003DB1244B03221A7002B0BDE8F041FFF7DA
:101C800059BD1F4D1F4A002702212F601170FFF719
:101C9000E9FA0028DDD0112803D143F008033360AE
:101CA000D7E72378134A144E1268009203EB83039C
:101CB0009B00E1180C46CA684B69097902EB4205A2
:101CC000024604F10C0056F82540A0470B4B0422B5
:101CD0001A7002B0BDE8F041FFF7C6BA074B012207
:101CE0008CE700BF342A00204C2900201C2A002049
:101CF000182A0020302A00203C2A0020262A002012
:101D0000282A0020272A0020206802002DE9F0411F
:101D10007A4FD7F8008018F0080F82B077D1784951
:101D2000784A0C681268601C0860002A3DD1764E23
:101D3000327802EB8202950006EB050E4FF08052DE
:101D4000DEF81030BEF806C01269BEF80840591E11
:101D50006144214492B2B1FBF2F290426ED36B4ADD
:101D600069D01468002C00F0958018F001025AD157
:101D70006749624C0A704FF0805048F001023A60A7
:101D8000416902690069013992B202FB01F280B235
:101D9000B2FBF0F0FFF766FA20B111285DD148F0F0
:101DA0000903236002B0BDE8F08159484FF080512B
:101DB0000426067008694D69096980B2013D89B23F
:101DC00004FB00F001FB05F1FFF74AFA0028E9D017
:101DD00011283CD04C4C4F4A23781268009203EBF8
:101DE00083039B00E1184C4FCA684B6902EB420524
:101DF0000C460246097904F10C0057F82540A0472B
:101E0000464B1E7002B0BDE8F041FFF72DBA4049C5
:101E1000434A097852F8212028F008033B6002B0B9
:101E2000BDE8F04110473A4B03221A7002B0BDE8FA
:101E3000F041FFF77FBC1268002A96D1344A022194
:101E40001170FFF70FFA0028ACD0112805D148F027
:101E500008033B6002B0BDE8F08133782D4A2E4D77
:101E60001268009203EB83039B00F1180E46CA68C8
:101E70004B69097902EB4204024655F8244006F109
:101E80000C00A047254B04221A7002B0BDE8F041B7
:101E9000FFF7EAB99EF8041004292BD0DEF80C20D5
:101EA0001C481D4F0068DEF81430009002EB42021F
:101EB00070190C3057F822502246A84732787178B2
:101EC00002EB820306EB83030132D2B201200A2A1D
:101ED0001C71DC801C615C611C81D8600F4B18BFD9
:101EE000327001F1FF314FF00002717008BF3470A1
:101EF0001A70CAE7094B01221A70C6E7342A00207B
:101F0000182A0020282A00204C2900201C2A002002
:101F1000272A0020302A00203C2A0020262A0020E0
:101F2000206802002DE9F843224EBDF8209096F873
:101F300001E0BEF10A0F34D03778DFF880C00EEB35
:101F40000705092DC8BF0A3D4FF0140808FB0565B9
:101F50009CF800406A61287103C90EF10102EB8010
:101F600005F10C0383E803007270A5F80890114B8B
:101F7000D4B908FB073310491A79DB880B60032AB0
:101F80000AD0042A08D0012A11D18CF80020FFF7CA
:101F900051FD2046BDE8F883FFF72EFA2046BDE844
:101FA000F8830420BDE8F8830020BDE8F8832046CC
:101FB000BDE8F8834C290020302A0020262A002082
:101FC0002DE9F043744D2C7814F0FB0F83B00DD045
:101FD00002280ED0032809D1704A136819075CD56E
:101FE000022C51D0032C47D0012C45D003B0BDE8C2
:101FF000F083022C48D0032C5BD0012CF6D1674A29
:1020000013681E0738D4664F664A3B78166803EBA0
:1020100083039A00B918CB889E1BB6B2CE80002EDF
:1020200040F09480C868DFF894E1D1F81490DEF8AD
:102030000030DFF88CC10979009300EB400EB8182E
:102040004B4632460C305CF82E80C0473B7879789E
:1020500003EB8302013307EB8202DBB201390A2B67
:102060001671D680D4601661566116813B70797006
:1020700069D000232B7002E023F00803136003B043
:10208000BDE8F043FFF7F0B8474A484B127853F8E1
:10209000223003B0BDE8F0431847454A13680133C6
:1020A000B3F57A7F136056D0022CE8D13E4A414BFB
:1020B000ECE73A4A13681807DED4394F3E4B3A78BA
:1020C0001C684FEA820E0EEB020007EB8000013421
:1020D00001691C604FF08053C6881B690089013973
:1020E000314401449BB2B1FBF3F39C42C7D34DD0C2
:1020F00072449200BB182A4C1979042943D02F4E00
:10210000D86836685B69DFF8B8E0009600EB4006F7
:10211000A0180C305EF826600022B0472378607863
:1021200003EB8302013304EB8202DBB200210126C0
:1021300001380A2B2370D6601171D1801161516171
:102140001181607095D100233B7092E703B0BDE828
:10215000F043FFF76FBC1248184A037812680092E8
:1021600003EB83039B00C118154CCA684B6902EB53
:102170004202084654F8224009790C300D22A0474B
:1021800004232B707BE701232B7078E70D4B1B6832
:10219000002BADD173E700BF262A0020342A00208F
:1021A0004C290020202A0020272A00203468020021
:1021B000382A002020680200182A0020302A002037
:1021C0003C2A00201C2A0020414B4249DFF81CC158
:1021D00000200122F0B5187058701871D88018616D
:1021E000586118811876588358629862988383F8EA
:1021F0002C00D8859863D863188683F84000A3F82C
:102200004200D8641865A3F8440083F85400A3F88A
:10221000560018665866A3F85800DA601A625A63C6
:102220009A64DA6508804FF0805183F868004C6941
:102230000969294FA3F86A00023C89B201FB04F145
:102240001A6758679867A3F86C0083F87C00A3F8B6
:102250007E00C3F88420C3F88800C3F88C00A3F87C
:10226000800083F89000A3F89200C3F89820C3F888
:102270009C00C3F8A000A3F8940083F8A400A3F87E
:10228000A600C3F8AC20C3F8B000C3F8B400A3F8AC
:10229000A80083F8B800A3F8BA00C3F8C020C3F8B8
:1022A000C4000E4AC3F8C8000D4EA3F8BC000D4D83
:1022B0000D4BDFF83CE0CCF80010042138703060A2
:1022C00028601060108150811960CEF80000F0BDC8
:1022D0004C290020242A0020262A00203C2A002005
:1022E000382A0020202A0020342A00202C2A00200E
:1022F000182A0020294B1B685A0701D40820704770
:1023000060B159B103684BB1F0B54FF08054828889
:1023100023699BB29A4203D90720F0BD0E20704773
:102320000F2AF9D9C388002BF6D0DFF87CE0656965
:102330002669DEF800706C1EB5B204FB05F402FBE2
:102340000373A342E8D89307E6D1154D2C88012CDE
:1023500021D081E890000C2303FB04F3114A0168AB
:10236000D150D1184FF080568288C3884F600A81BF
:102370004B813069316903FB02F389B25A1E013483
:1023800083B292FBF3F303FB01110F442C80CEF8D0
:1023900000700020F0BD0420F0BD00BF342A0020F2
:1023A000242A00203C2A00202C2A0020124B1B68E3
:1023B0005B0702D408231846704728B122B103688E
:1023C0002BB10723184670470E231846704770B488
:1023D0000A4C25684DB1466865892089646800FB10
:1023E000016100FB0540814203D30723184670BCFE
:1023F000704713605160F9E7342A00203C2A00201E
:10240000F0B51B4C2468670783B002D4082003B0E2
:10241000F0BD29B120B104682CB1072003B0F0BD94
:102420000E2003B0F0BD134C2568002DF5D0268991
:1024300065896468476806FB0544A742EDD2002A17
:10244000EBD09642E9D3D418A642E6DB8E0701D042
:102450001020DCE79D07FBD1BC07F9D11C46009496
:1024600013460A4601460120FFF75CFDCFE700BF97
:10247000342A00203C2A0020F0B51B4C2468670752
:1024800083B002D4082003B0F0BD29B120B10468A4
:102490002CB1072003B0F0BD0E2003B0F0BD134CEB
:1024A0002568002DF5D0268965896468476806FB94
:1024B0000544A742EDD2002AEBD09642E9D3D418C6
:1024C000A642E6DB8E0701D01020DCE79D07FBD19A
:1024D000BC07F9D11C46009413460A460146042065
:1024E000FFF720FDCFE700BF342A00203C2A002060
:1024F0002DE9F04F244C2468660783B004D40824E7
:10250000204603B0BDE8F08F39B130B10C684CB152
:102510000724204603B0BDE8F08F0E24204603B008
:10252000BDE8F08F194E3568002DF1D0B6F808E0FF
:10253000B6F80AC075684F680EFB0C55AF42E7D27B
:10254000002AE5D09645E3D3D518AE45E0DB8507F4
:1025500001D01024D4E79D07FBD117F0030BF8D16D
:102560008846D9199146824603F0C7F9D8F8001079
:10257000CDF800900C2303FB01F15A4675585346E1
:1025800040460221A847BBE7342A00203C2A00200D
:102590001E4B1B685B0701D408207047A0B103687D
:1025A0000BB1072070471A4B1A68002AF9D070B592
:1025B0005C681D895B89426805FB03439A4282B0CF
:1025C00004D3072002B070BD0E207047960701D0DB
:1025D0001020F7E7141BB4FBF5F605FB1644002C9E
:1025E000EFD1B1FBF5F405FB1414A4B2002CE8D133
:1025F0000029E6D00A449342E3D300220B4600921E
:1026000001460320FFF78EFCDCE700BF342A0020E0
:102610003C2A0020064B1B685B0701D4082070474A
:1026200020B1044B5B780360002070470E20704798
:10263000342A00204C2900204FF0A042D2F8043563
:10264000D94301F4002103F40023C2F80815C2F8AD
:102650000C3570470D282DE9F04707D00E2839D0EA
:102660000F2839D0102839D0BDE8F087002501297E
:10267000044611D020D30229F6D1224B05EB4505A3
:102680001D446E78002EEFD01F4B1B68002BEBD043
:102690003046BDE8F0471847DFF868806F007B19C7
:1026A00008EB030218F803605378CBB92F44474472
:1026B000164BBA785A55E5E7154B1868FDF728FD13
:1026C0001049124A05EB45030B44565D9B789E4228
:1026D000CAD1D7E70125CAE70225C8E70325C6E71F
:1026E0000C4BDFF834901968094B01EB810149006C
:1026F0004A461868FDF794FC0028D7D189F80040B5
:10270000D4E700BF6C2A0020602A0020542A002051
:10271000502A0020582A0020482A0020CE4B1B684F
:10272000DB0700D4704770B5CC4B1C78172C22D82F
:10273000DFE814F06A0074007400AB00D000F5000C
:10274000180139013A0022003A00220018003E0127
:102750003E013E013E013E0150005A009B006101D6
:10276000180018004FF0A0434FF4F0110022C3F8F6
:102770000C15C3F8082570BD4FF0A042B84CD2F834
:102780000435B848D94301F4802103F48023C2F80A
:102790000815C2F80C352168006801EB81010022A0
:1027A000BDE87040FDF73CBC4FF0A042AC4CD2F805
:1027B0000435AC48D94301F4802103F48023C2F8E6
:1027C0000815C2F80C35216800680022BDE8704089
:1027D000FDF726BC4FF0A0434FF4F0110022C3F8E0
:1027E0000815C3F80C2570BD4FF0A0434FF4E0105E
:1027F00000224FF40031C3F80805C3F80C25C3F8D4
:102800000C15C3F8082570BD4FF0A0434FF4B0116C
:102810000022C3F80815C3F80C2570BD4FF0A04086
:102820004FF4A0120025C0F80825C0F80C55D0F8C8
:10283000042582F4F01212F4003200F02181022CFF
:102840004FF40032C0F8082514BF28211221C0F827
:102850000C55834A834812681C7002FB01F1006822
:102860000022BDE87040FDF7DBBB4FF0A043002223
:102870004FF4D0104FF48021C3F80805C3F80C259D
:10288000C3F80C15C3F8082570BD4FF0A0404FF4F5
:10289000A0120024C0F80825C0F80C45D0F8042583
:1028A00082F4F01212F4003200F0E2804FF40032B1
:1028B000C0F808250821C0F80C45694A6948126823
:1028C000006803241C7002FB01F1BDE87040002287
:1028D000FDF7A6BB4FF0A0404FF4A0120024C0F8B3
:1028E0000825C0F80C45D0F8042582F4F01212F443
:1028F000003200F0A1804FF40032C0F808252821F2
:10290000C0F80C45564A57481268006804241C70E9
:1029100002FB01F1BDE870400022FDF781BB4FF0E2
:10292000A0414FF4A0120020C1F80825C1F80C0501
:10293000D1F8042582F4F01212F4003200F0848001
:102940004FF40032C1F80825C1F80C054449454A46
:102950000968106805241C7049000022BDE8704019
:10296000FDF75EBB4FF0A0414FF4A0120020C1F86C
:102970000825C1F80C05D1F8042582F4F01212F4F0
:10298000003252D04FF40032C1F80825C1F80C05CE
:10299000344A33491068096806241C700022BDE8D7
:1029A0007040FDF73DBB4FF0A0434FF4A0101FE770
:1029B0002D4D2868FDF7ACFBD4F1110402462AD056
:1029C00048BB012C0DD0C826284B2549286809682A
:1029D00006FB04F4A3FB04435B0901FB03F1FDF7D1
:1029E0001FFB4FF0A0434FF400210022C3F80C1549
:1029F000C3F8082570BD4FF0A04300224FF4C0106B
:102A00004FF4C021C3F80805C3F80C25C3F80C1512
:102A1000C3F8082570BD4FF0A0434FF400210022F9
:102A2000C3F80815C3F80C2570BD4FF40030C1F889
:102A30000C05C1F80825ABE74FF40031C0F80C15C0
:102A40000421C0F808255DE74FF40030C1F80C05FB
:102A5000C1F808257AE700BF4C2A0020642A00202C
:102A6000582A0020682A00205C2A00201F85EB518C
:102A70004FF40031C0F80C150221C0F808251CE7FE
:102A80004FF40031022CC0F80C1514BF04210221B0
:102A9000C0F80825DDE600BF03780D2B15D00E2BFE
:102AA00015D00F2B04D0102B08BF032301D0704783
:102AB0000223084A03EB4303134458780028F6D056
:102AC000054B1B68002BF2D018470023F1E70123C8
:102AD000EFE700BF6C2A0020602A0020032803D9FA
:102AE00000230B7000207047074A4FF0A04352F8B4
:102AF0002000D3F8102501238340934314BF012302
:102B000000230B70002070474868020070B5CB4B63
:102B10001A6812F0010201D1104670BD0346172851
:102B200000F2CB81DFE810F02301300130017100A9
:102B30009700BD00E1005A00300018003000180076
:102B40000401570157015701570157017C010F013B
:102B500019014600640064004FF0A042B84CD2F85E
:102B60000435B848D94301F4802103F48023C2F826
:102B70000815C2F80C352168006801EB81010022BC
:102B8000BDE87040FDF74CBA4FF0A042AC4CD2F813
:102B90000435AC48D94301F4802103F48023C2F802
:102BA0000815C2F80C35216800680022BDE87040A5
:102BB000FDF736BAA4484FF0A0434FF4C0120021ED
:102BC0004FF4C0251524C3F80825C3F80C150A4690
:102BD000C3F80C55C3F8081504709DE74FF0A043E7
:102BE00099484FF4A01200214FF400350724EAE77A
:102BF0004FF0A041944C4FF4F0120020C1F80C2586
:102C0000C1F808050246237086E74FF0A0424FF452
:102C1000A0130020C2F80835C2F80C05D2F804351C
:102C200083F4F01313F4003300F030814FF40033D9
:102C3000C2F808350821C2F80C05814B81481A6892
:102C4000814B006803241C7002FB01F1BDE8704059
:102C50000022FDF7E5B94FF0A0424FF4A013002089
:102C6000C2F80835C2F80C05D2F8043583F4F01325
:102C700013F4003300F012814FF40033C2F808352A
:102C80002821C2F80C056E4B6E481A686E4B00681E
:102C900004241C7002FB01F1BDE870400022FDF726
:102CA000BFB94FF0A0424FF4A0130021C2F808357D
:102CB000C2F80C15D2F8043583F4F01313F4003382
:102CC00000F0F4804FF40033C2F80835C2F80C1558
:102CD0005B4B5C4A19685C4B106805241C7049000A
:102CE0000022BDE87040FDF79BB94FF0A0424FF4C1
:102CF000A0130021C2F80835C2F80C15D2F804352B
:102D000083F4F01313F4003300F0AE804FF400337B
:102D1000C2F80835C2F80C154B4B4A4A48491068AE
:102D2000096806241C700022BDE87040FDF778B9E0
:102D30004FF0A0434FF4F0120021C3F80C250A46CF
:102D4000C3F80815E8E64FF0A0433F484FF4E012FF
:102D500000214FF40035132435E74FF0A0433A48E3
:102D60004FF4D01200214FF4802514242BE74FF0AC
:102D7000A041354800234FF4B012C1F80825C1F82E
:102D80000C351A460370C7E64FF0A0404FF4A0126E
:102D90000024C0F80825C0F80C45D0F8042582F4BA
:102DA000F01212F4003266D0022B4FF40032C0F859
:102DB000082514BF28211221C0F80C45204A224CB6
:102DC00012682048237002FB01F100680022BDE870
:102DD0007040FDF725B91D4D04462868FDF798F9A8
:102DE000D4F11103024635D0A0BB012B0ED0C8246C
:102DF000174E13492868096804FB03F3A6FB034335
:102E00005B0901FB03F1FDF70BF902464FF0A0430C
:102E10004FF400200021C3F80C05C3F808157BE629
:102E20004FF0A04308484FF4F01200211224C3F8D9
:102E30000825C3F80C150A4604706DE64C2A0020DC
:102E4000582A0020682A0020642A00205C2A0020DA
:102E50001F85EB514FF0A0434FF400200021C3F831
:102E60000805C3F80C1557E64FF40031C2F80C15ED
:102E7000C2F8083550E74FF40031022BC0F80C15AA
:102E800014BF04210221C0F8082597E74FF4003150
:102E9000C2F80C150221C2F80835CEE64FF4003115
:102EA000C2F80C150421C2F80835ECE64FF40031E5
:102EB000C2F80C15C2F808350AE700222CE600BF5C
:102EC000F8B5224D224E234B2860044610F0020034
:102ED00031601A6011D0204B20484A080E270D217E
:102EE0000F2610251970DF7004219E715D72FCF7AA
:102EF00089FBF8B1E30702D4F8BDE2070CD54FF027
:102F0000A0434FF4F0120021C3F80825C3F80C15B4
:102F1000C3F818250028EFD1114A12480021FDF707
:102F200051F80028E8D1104A10480121BDE8F840C6
:102F3000FDF748B8FCF7BEFB0028DBD101460C4A80
:102F40000C48FDF73FF8E107E4D5D8E74C2A00200C
:102F5000582A0020602A00206C2A002058680200AD
:102F60001D270200682A0020392602005C2A002062
:102F7000992A0200502A0020032801D9072070470F
:102F8000012A12D0012917D008D30229F6D10D4BFE
:102F900000EB4000034400205A707047094B00EBDF
:102FA0004000034400209A707047012901D000229C
:102FB000E8E700F10D02D2B200EB40030149002026
:102FC000CA5470476C2A002070B41D4D1D4CD5F8B2
:102FD00000371D491D4A10F0010F14BF4FF4403651
:102FE000002623F440333343C5F80037D4F80037C4
:102FF00010F0020F14BF4FF44035002523F4403386
:103000002B43C4F80037D1F8003710F0040F14BF79
:103010004FF44034002423F440332343C1F80037F5
:10302000D2F8003710F0080F23F4403314BF4FF4E8
:10303000403100210B43C2F80037002070BC7047BC
:1030400034000050380000503C0000504000005058
:1030500008B50320FFF7B8FF10B1062808BF00200D
:1030600008BD00BF10B50388102B08D0112B05D167
:10307000264B18680138186038B110BD10BD234CBC
:10308000216881B10131216010BD01220221FFF7C9
:1030900073FF48B3072827D01D4B1B68002BECD0CB
:1030A000BDE81040184701220846FFF765FF48B108
:1030B000072807D0164B1B6803B1984721680131D8
:1030C000216010BD072202210120FFF755FF08B142
:1030D0000728EFD1042202210020FFF74DFF00282E
:1030E000ECD00728E6D1E9E7072202210120FFF70B
:1030F00043FF08B10728CFD1002108460A22FFF775
:103100003BFF0028B9D00728C6D110BD7C2A00207B
:10311000782A002010B5204B82B01860B1B10C465F
:1031200000200DF10601FFF7D9FC08B102B010BD77
:103130000DF107010120FFF7D1FC0028F6D19DF821
:10314000073013BB9DF8063013BB2370134B186870
:1031500010B1002002B010BD01220221FFF70CFFC8
:1031600008B10728E2D1072202210120FFF704FF5E
:1031700008B10728DAD1002108460A22FFF7FCFE31
:103180000028E6D00728D1D1E3E702232370DDE74A
:103190000B232370DAE700BF782A00207C2A002066
:1031A0003CDF704748DF704775DF704776DF704758
:1031B00086DF704787DF704788DF704760DF7047C2
:1031C0000378022B02D0012B00D070470022406808
:1031D0001146FCF785BA00BF30B595B0082500242C
:1031E00004AA0CAB694618488DF804508DF80C40C1
:1031F0000092029301F042FEB8B9144B197801F025
:10320000FE0100226FF34101A025502418461970D9
:103210001D815C815A609A81FFF7CAFF80B9012045
:10322000FFF774FC30B915B030BD22462146FCF7DB
:1032300057FAE2E700221146FCF752FA15B030BD0A
:103240001146FCF74DFAEAE7D52C0020EC2D0020C2
:103250000B78012B06D0022B03D149880D4802F0D0
:1032600057BB704710B504460B4801F069FD60B9C3
:10327000204601F00DFA18B100221146FCF730FA91
:103280000648BDE8104002F043BB00221146FCF79F
:1032900027FAEDE7B0680200642E00208C68020077
:1032A0000B78012B02D006D3022B03D149780C48AE
:1032B00002F02EBB704710B5044600F0CDFB50B9AC
:1032C000204600F085FB00B910BD00221146BDE884
:1032D0001040FCF705BA00221146FCF701FAEFE7AF
:1032E000C468020030B5044683B0023CFEF768FEB5
:1032F000012C02D80C4C23780BB903B030BD00254B
:1033000001A82570FFF786F940B9019B1BB1012385
:10331000237003B030BDFFF75FFFEEE72A46294672
:10332000FCF7DEF9F1E700BFFC2D0020F0B5044604
:1033300083B001F0C5FE21464D4800F09BFD2146BB
:103340004C4801F05BF921464B4800F0DDFA20467D
:10335000FFF788FE23881B2B1FD01D2B12D0192BA3
:1033600001D003B0F0BDA379022BFAD101A8FFF779
:1033700051F9002874D1019B002B6CD03F4B0122E6
:103380001A70EEE7A11DA088FFF70EFF0028E8D015
:1033900000221146FCF7A4F9E3E7A67BF60804F146
:1033A0000F03DED0277CE07B022F014656D000229F
:1033B00003E04D78995C022D14D001310A44B242E9
:1033C00003EB0201F5D3032F4FD0002203E049782D
:1033D000985C032935D001300244B24203EB02016C
:1033E000F5D3BEE70232013989B213444908B8D097
:1033F0001A8841F60D06B24218BF002008D10CE031
:10340000DD78927842EA0522B24203F1020304D049
:10341000013088421A46F3D1A3E7FFF7CBFE002024
:10342000FFF774FB90B9164B164A1D781946A01D7C
:103430006FF341051D70FFF7BFFE134B00221A709A
:103440008FE70232411E89B21344CFE700221146B2
:10345000FCF746F9E7E7FFF7BFFE82E73A46C2E727
:1034600000221146FCF73CF985E70222EAE700BF9B
:10347000002E0020802A0020D82C0020FC2D0020C7
:10348000EC2D002084680200D42C0020072808B509
:103490001ED00A2810D0042800D008BD134B1321D9
:1034A0001888FFF783FE30F00803F6D0002211469B
:1034B000BDE80840FCF714B90020FFF727FB80B9EE
:1034C000FFF7C6FD40B9FFF76BFE0028EED108BD3F
:1034D000074B01221A7008BD00221146FCF700F9C3
:1034E000F1E700221146FCF7FBF8E9E7FE2D00208A
:1034F000D42C002030B50B78113B054683B0104624
:10350000122B2FD8DFE803F00A40523A2E2E2E2E2F
:103510002E2E2E2E2E2E2E2E3131310007200C462F
:10352000FFF7F4FA00284CD16368394928681C88F1
:10353000384A086019883848148000F067FC002871
:103540003AD1364B1C780134E4B21C7054B9684649
:10355000FFF760F800284CD1009B002B46D0304B81
:1035600001221A70002003B030BD0028FAD00022DA
:103570001146FCF7B5F8002003B030BD294801F032
:1035800087F80028EED0F2E7622200212248FBF7FC
:10359000ABFF0020FFF7BAFAC0B9204C2378012B0B
:1035A00019D0013B0020237003B030BD184801F052
:1035B000C7FB0028D6D0DAE700221146FCF790F8C6
:1035C000BFE700221146FCF78BF8ADE70022114659
:1035D000FCF786F8E1E701A8FFF71CF890B9019B1A
:1035E00063B10F4A237801211170DAE7FFF7F4FD88
:1035F000B8E722462146FCF773F8ADE7FFF7ECFD8C
:103600002378CEE700221146FCF76AF8E7E700BF0F
:10361000642E0020FE2D0020002E0020E42C00202F
:10362000FC2D0020802A00200A4601460148FCF7B4
:1036300057B800BFEFBEADDE70B58AB0002400946D
:103640002046704B03220521FCF742FC18B12246AC
:103650002146FCF745F86C4A40F6CD410320FFF7C0
:103660002FFC18B100221146FCF73AF806A90020F9
:10367000FFF750FD18B100221146FCF731F8634BFB
:10368000634A9DF81850069293E8070003AC84E85B
:10369000070001235F490793A5F102054FF48076E7
:1036A000B5FA85F5089120465B4A0996032306A9D9
:1036B0006D09FCF7FFFD18B100221146FCF710F868
:1036C000564802F025F9002348225549082002F007
:1036D0008FF818B100221146FCF702F808220021E9
:1036E00006A8FBF701FF9DF8183006A86FF300034A
:1036F0008DF81830FFF762FD18B100221146FBF774
:10370000EFFF484802F09AF818B100221146FBF783
:10371000E7FF454802F09CF818B100221146FBF77C
:10372000DFFF8DF80C50FEF74FFD18B10022114657
:10373000FBF7D6FF204601F047FA18B100221146E8
:10374000FBF7CEFF052200210DF11D00FBF7CCFE9B
:103750009DF81D3035499DF82020069143F0030364
:10376000032161F384030A436FF3451302260725FF
:1037700010242F488DF81D3006A98DF820208DF8D3
:103780001C608DF81E508DF81F4001F0B1FA18B181
:1037900000221146FBF7A4FF00F0FAFA18B100224C
:1037A0001146FBF79DFF234B2348069306A900F023
:1037B00003FF18B100221146FBF792FF1F4B204870
:1037C000069306A900F07EF818B100221146FBF717
:1037D00087FF06A8FEF71EFF18B100221146FBF76F
:1037E0007FFF069B5BB1174B01221A70FFF7DAFCD3
:1037F0000028FBD000221146FBF772FFF6E7FFF727
:10380000EBFCF3E7D42A00208D3402007868020034
:10381000E82C0020EC2C0020C1310200D868020006
:103820008C2A00202D330200E5320200F53402001C
:10383000D52C002051320200802A0020A132020043
:10384000D82C0020FC2D002095DF704797DF7047B3
:1038500003782BB94268194922F07F428A4200D08E
:10386000704730B5164A418812681180017A83B0DA
:1038700071B1458942F61924A54213D0012907D90F
:10388000C38AA34217D0022902D0438CA34208D096
:1038900002A9002301F8043D10469368984703B03D
:1038A00030BD022303EB430300EB8303998A51806D
:1038B0005B8A9380ECE70123F4E700BF0F18010057
:1038C000102F0020D0B1C9B130B5034683B002A893
:1038D00000224FF6FF751D805A809A8041F60F0432
:1038E0000A6820F8044D064C9A60064923600122BC
:1038F0008DF8062000F062FA03B030BD0E2070474C
:10390000102F00205138020030B583B000283FD07E
:1039100000293DD00B88103B282B39D8DFE803F075
:103920004838383838383838383838383838383807
:103930003838383838383838383838383838383807
:1039400038383838381538223A008A8983889A42BC
:1039500008D18B7C8DF8053002238DF8043001A945
:1039600083689847174C184A2368126893420FD00F
:1039700003EB8300154D800029188A78E2B10831E5
:10398000285AFFF763FF18B9013303F007032360D8
:1039900003B030BD8A8983889A42F9D18B7C8DF837
:1039A000053001238DF8043001A983689847EFE7BB
:1039B0008B88038003B030BD8988285AFFF744FF05
:1039C000E1E700BF6C2E0020682E0020702E002042
:1039D000002833D0F8B51D4F1D4E3B681D4DB0F883
:1039E00000E02C68408803EB83018900013303F079
:1039F0000702731826F801E002213A6058811F1D62
:103A00000020D98194424FF001011F6198815871C3
:103A10001972197199700FD004EB84039B00F1188F
:103A20008A786AB98988F05AFFF70EFF20B9013405
:103A300004F007042C60F8BD0020F8BD0E2070478C
:103A40000831F05AFFF702FFF0E700BF682E0020B0
:103A5000702E00206C2E0020F8B5154F154E3B68D7
:103A6000154D848803EB83029200B11801338C80DA
:103A70002C680088B05203F007030022A3423B6089
:103A80008A700ED004EB84039B00F1188A7852B937
:103A90008988F05AFFF7D8FE18B9013404F00704FA
:103AA0002C600020F8BD0831F05AFFF7CFFEF3E795
:103AB000682E0020702E00206C2E002090DF7047B2
:103AC00092DF704793DF70472DE9F04FDFF81081E8
:103AD00090F86020D8F8006083B08EB102EB42030A
:103AE000C2EBC3035B00C5183A4CAD78A778AF4270
:103AF00009D0012E04D9A77ADFF8D8E0AF423FD031
:103B000003B0BDE8F08FB4F800E0C75ABE45F0D16D
:103B1000002304EBC304D4F804A0BAF1000FEFD0E3
:103B20002D4F3D68012DEBD84FEAC50CC5EB0C03BA
:103B3000DFF8A8E0B0F85C40DB000EEB0309A9F861
:103B4000024039BB02220EF80320C5EB0C0C0EEB31
:103B5000CC0E0135AE42CEF834A03D601F4CCFD123
:103B6000636B20469847D8F80030012B03D9E36EE9
:103B700004F13800984700233B6003B0BDE8F08FA4
:103B8000C35ABEF808509D4208BF0123C1D003B0FC
:103B9000BDE8F08F2E24002104FB02040EF8031070
:103BA00004F1200309F1040B0193E36820686168C4
:103BB000A268D946A9E80F00019B10349C42CB466D
:103BC000F3D1A268206861684B4607C3A2891A80B6
:103BD000BBE700BF8C2F0020882F0020182F00206B
:103BE000A02F0020F0B590F8606090F85F202E23A1
:103BF00003FB06F600EB060C02EB42059CF8047092
:103C000006EB8505531C0544BB4283B005F1060550
:103C100039D0BA4238BF07F1FF3E2BD2541C04EB17
:103C2000440306EB83039645034412D02A899D89F9
:103C30000132AA4218D0013DADF80650ADF804207B
:103C400000230B70B0F85C0001A9FFF73BFF03B045
:103C5000F0BD2B89BCF82C209A4210D00133ADF86E
:103C60000430ADF80620EBE79D1DE2B2974280F8E4
:103C70005F20D3D8012300200B7003B0F0BD0025D6
:103C80000EF10104F1E72B89BCF82C209342E5D119
:103C9000F0E700BF2DE9F04190F86030384E013375
:103CA000DBB203EB4302C3EBC20204465200A1188D
:103CB00056F8330084F86030002584F85F50A05037
:103CC0000D712E2202FB0342B4F85C000121FFF7C4
:103CD000F5FE08B9BDE8F0812A4F84F861503A68D2
:103CE00094F86030002AF5D003EB4301C3EBC10325
:103CF0005B00E11896F802E089788E4538D0012AF9
:103D0000E8D9B57ADFF878E08D42E3D1BEF8081043
:103D1000E35A9942DED1012506EBC505D5F804E04A
:103D2000BEF1000FD6D0184D2B68012BD2D8C3EBB3
:103D3000C301164EB4F85C80C900741801334FF00B
:103D4000010C93422B60A4F802806060C4F834E058
:103D500006F801C0BED1736B304698473B68012B13
:103D600003D9F36E06F13800984700232B60B1E7C2
:103D7000B6F800C034F803E0F445C0D1CCE700BF8A
:103D80008C2F0020A02F0020882F0020182F00202B
:103D900030B40649064B074D074C0020012208604D
:103DA0001A702860206030BC704700BF882F002048
:103DB0009C2F0020A02F0020142F002028B121B11B
:103DC0000F4B1B781BB9082070470E2070470D4A17
:103DD0001368022B03D0012B03D90420704706205F
:103DE000704710B4084C006844F8330004EBC30477
:103DF00001336160136000205DF8044B704700BF21
:103E00009C2F0020A02F00208C2F002070B1144B7D
:103E10001B780BB908207047124B1B68002BF9D098
:103E200070B590F861401CB1112070BD0E20704734
:103E30000D4A0E4E0E4D346003461068A3F85C1018
:103E4000186083F8604008461A4601212C60FFF78D
:103E500035FE0028E9D1012283F8612070BD00BF42
:103E60009C2F0020A02F00208C2F0020142F00203A
:103E7000882F002090B389B3764B1B7873B32DE95C
:103E8000F0430B88103B83B00446232B00F29B8049
:103E9000DFE813F0CD01C401990099009900990061
:103EA000990099009900990099009900990099004A
:103EB000990099009900990099009900990099003A
:103EC000990099009900990099009900990099002A
:103ED0009900990025009900EC009C007047CB8860
:103EE000002B40F0C78190F86050D1F80E202E23AF
:103EF00003FB05F31844E250D1F81220C0F82A2041
:103F000094F85F20002A40F0EC81438DADF8043036
:103F10002E2303FB0545B4F85C00AB8DADF80630ED
:103F200001A9FFF7CDFD00284DD04B4E94F860302D
:103F30003168002784F86170002944D003EB430204
:103F4000C3EBC2035B00E518444AAD7892F802E087
:103F5000AE4500F0C282012935D9977ADFF8FCE03E
:103F6000AF4230D1BEF80850E35A9D422BD1012711
:103F700002EBC702D2F804E0BEF1000F23D0384DA7
:103F80002B68012B1FD8C3EBC302364FB4F85C80FB
:103F9000D200BC1801334FF0010C8B422B60A4F807
:103FA00002806060C4F834E007F802C00BD17B6B7C
:103FB000384698473368012B03D9FB6E07F1380068
:103FC000984700232B6003B0BDE8F083CB8890F8BE
:103FD00060E090F85F7093B98E8986B10A8A42F6E4
:103FE0000215AA4218BF0A4604D16BE1108AA84202
:103FF00000F068810133B34202F10602F6D12E23AC
:1040000003FB0E4E7B1C9EF80420002593428DF886
:10401000045000F0538184F85F3001A92046FFF777
:10402000E1FD002840F0A5819DF80430002BCAD0A6
:1040300001212046FFF748FD0B4A0749136809682C
:1040400001338B421360C0F03581002384F8613066
:10405000B9E700BF9C2F0020A02F00208C2F00204C
:10406000882F0020182F0020142F0020CB88002B31
:1040700040F0E18090F860600A7B06EB4600C6EBFA
:10408000C00004EB400003791A44032AD5BFD2B222
:10409000032515462A46AB42027144D20D462E270F
:1040A00007FB06F703EB430255F80E8F07EB82027E
:1040B0002244D5F804C0C2F80AC0C2F806802D898F
:1040C000D5814FF0000EA2F810E002795D1CAA42E3
:1040D00040F2128105EB45020D4607EB820255F8CE
:1040E000189F2244D5F80480C2F80A80C2F80690CE
:1040F0002D89D581A2F810E002799D1C954280F0AF
:10410000FB8005EB450251F822CF07EB82022244E7
:104110004F68C2F80A70C2F806C00989D181A2F8B6
:1041200010E002790333013B2E2101FB06F103EB82
:10413000430301EB830323446018DD89838D9D4293
:1041400079D2032A77D084F85F20002A40F0BA8120
:10415000438DADF804302E2303FB0646B4F85C0013
:10416000B38DADF8063001A9FFF7AAFC00283FF493
:104170002AAFA44E94F860303768002184F86110AB
:10418000002F3FF420AF03EB4302C3EBC2035B00FD
:10419000E5189D4AAD7892F802E0AE4500F0BB818B
:1041A000012F7FF610AF917ADFF85CE2A9427FF42D
:1041B0000AAFBEF80810E35A99427FF404AF012118
:1041C00002EBC101D1F804E0BEF1000F3FF4FBAEF9
:1041D0008E4D2A68012A3FF6F6AE8D4BB4F85C800E
:1041E000382101FB02F15C1801324FF0010CBA4298
:1041F0002A60A4F802806060C4F834E003F801C0CB
:104200007FF4E1AE1C46002733689F422046BFF48E
:10421000D8AE636B984701373834F5E76222002146
:10422000FBF762F94FF6FF73A4F85C30CBE68B889E
:10423000A0F85C30C7E6002584F85F5001A920464D
:10424000FFF7D0FC0746002840F0E6809DF80430D8
:10425000002B3FF4B8AE01212046FFF735FC6D4A34
:1042600068491368096801338B42136022D384F8CC
:104270006170A8E6634E90F860303168002900F064
:104280003C8103EB4302C3EBC2035B0018445E4A6C
:1042900080789578854266D0012940F23381957AFD
:1042A000594F85422AD05B4A136801338B42136011
:1042B000BFF4CBAE2046FFF7EDFC84E601238DF87A
:1042C0000430B5E62E2203EB430302FB0EF207EBAC
:1042D000470001EB430102EB80032344CA891A82A1
:1042E0008DE6013AD2B202EB420203EB8203234491
:1042F000DB8901339BB209E62B4614E7E35A388980
:10430000984208BF0123CED102EBC302D2F804E0E9
:10431000BEF1000FC7D03D4D2B68012BC3D8C3EBB6
:10432000C3023B4FB4F85CC0D200B81801334FF061
:10433000020899422B6007F80280A0F802C0C0F87A
:1043400034E0B0D17B6BDFF8BC80384698473168E9
:10435000012905D9FB6E07F138009847D8F80010FD
:1043600000232B609FE71788E55AAF4294D10023C2
:10437000CAE7244E84F86150316894F8603000290F
:104380003FF421AE03EB4302C3EBC2035B00E7182B
:104390001D4ABF7892F802E0BE4500F0A6800129D0
:1043A0007FF611AE957ADFF860E0BD427FF40BAE88
:1043B000BEF80850E35A9D427FF405AE012502EB9A
:1043C000C502D2F804C0BCF1000F3FF4FCAD0F4DA4
:1043D0002B68012B3FF6F7ADC3EBC3020C4FB4F8CB
:1043E0005C80D200BC1801334FF0010E8B422B6071
:1043F000A4F802806060C4F834C007F802E07FF4DB
:10440000E2ADD4E5A02F00208C2F0020882F0020C3
:10441000182F0020142F0020434E84F8615031687B
:1044200094F8603000293FF4CEAD03EB4302C3EBB8
:10443000C2035B00E0183D4A807892F802E08645AE
:1044400062D001297FF6BFAD957ADFF8E0E08542C2
:104450007FF4B9ADBEF80800E35A98427FF4B3ADDB
:10446000012502EBC505D5F804E0BEF1000F3FF4CD
:10447000AAAD2F4D2B68012B3FF6A5ADC3EBC302B0
:10448000DFF8B480B4F85CC0D20008EB020001335E
:1044900001248B422B60A0F802C04760C0F834E0D2
:1044A00008F802407FF48FADD8F834304046984782
:1044B0003368A3427FF685ADD8F86C3008F1380038
:1044C00098477EE5531EDBB203EB430301EB830306
:1044D0002344DB8901339BB23BE634F803C0B2F8D6
:1044E00000E0F4457FF437AD42E534F803C0B2F89C
:1044F00000E0F4457FF453AF61E70E4A13680133DF
:104500001360A2E50121CEE634F803C0B2F800E062
:10451000F44596D1A5E7B2F800C034F803E0F445BD
:104520007FF43EAE4CE600BFA02F00208C2F002071
:10453000882F0020142F0020182F002095DF7047AF
:1045400097DF704703782BB94268194922F07F4200
:104550008A4200D0704730B5164A418812681180EF
:10456000017A83B071B1458942F63724A54213D050
:10457000012907D0C38AA34217D0022902D0438C55
:10458000A34208D002A9012301F8043D1046936814
:10459000984703B030BD022303EB430300EB8303D2
:1045A000998A51805B8A9380ECE70123F4E700BF8E
:1045B0000D1801004C300020C8B1C1B110B582B057
:1045C000034602A841F60D0220F8042D0A689A60FD
:1045D000084C4FF6FF71002219805A80064923606B
:1045E00001228DF80620FFF7E9FB02B010BD0E2076
:1045F000704700BF4C3000204545020030B583B005
:1046000038B131B10B88372B1FD0382B03D0102B8A
:1046100017D003B030BD8A8983889A42F9D18B7C48
:104620000222DB0748BFCB7C8DF804204ABF0A7DFD
:10463000CB7C43EA0223ADF8063001A98368984792
:10464000E7E78B88038003B030BD0E4C0E4A236829
:1046500012689342DDD003EB83000C4D80002918D3
:104660008A7852B98988285AFFF768FF0028D0D184
:10467000013303F007032360CBE70831285AFFF723
:104680005FFFF3E7A82F0020A42F0020AC2F00200D
:10469000002833D0F8B51D4F1D4E3B681D4DB0F8B6
:1046A00000E02C68408803EB83018900013303F0AC
:1046B0000702731826F801E002213A6058811F1D95
:1046C0000020D98194424FF001011F6198815871F7
:1046D0001972197199700FD004EB84039B00F118C3
:1046E0008A786AB98988F05AFFF728FF20B901341F
:1046F00004F007042C60F8BD0020F8BD0E207047C0
:104700000831F05AFFF71CFFF0E700BFA42F00208C
:10471000AC2F0020A82F00207EDF70477FDF70477E
:1047200081DF7047A9DF7047AADF7047002070471C
:104730000020704738B54078124A45002B189B007E
:10474000D118D25842B1104C23449B7A13F0800FF9
:1047500012D10022114601E00B4C1146284404EB13
:10476000800003230089FFF7DDFF48F241030028A2
:1047700014BF1846002038BD5B06EAD4043192B25B
:10478000ECE700BF48310020703000200020704767
:10479000F0B54B782B4D85B003EB430305EB83035A
:1047A00004AA0C46062122F80A1D064602A9188909
:1047B0000323FFF7B9FF10B1002005B0F0BD60780A
:1047C000214FBDF8062000EB400007EB80000430CD
:1047D00002A901F083F880B9607800EB4000800006
:1047E0000544AB7A03F0020303F0FF01002BE3D191
:1047F00038440C22FAF778FEDEE76378BDF806202D
:10480000DFF84CE0114D03EB43039B0002A957F87E
:1048100003C0FA50607800EB400007EB80000430E2
:10482000BCF1000F08BF754601F067F8617801EB35
:10483000410107EB8101304634230C22A8470020B8
:1048400005B0F0BD7030002048310020792402000E
:104850000124020038B54B780A4C03EB43020D46A5
:104860003423014604EB82000C22FDF741FE38B9E7
:104870006B7803EB43039B00E258013208BFE05022
:1048800038BD00BF483100202DE9F047DFF86C81CA
:1048900090B0D8F80040189F002C48D05C2F46D824
:1048A0001D4600246FF0FF0391460E46824609958F
:1048B000089701938DF8104002E00134072C12D0C4
:1048C00002AAA1B24548FDF771FD0028F5D10822E2
:1048D0000DEB0201504601F001F80028EDD1E4B2E1
:1048E0008DF8064003E09DF80640FF2C1FD0032EF4
:1048F0002ED03B4BEB1AA72B1CD93A4BEB1A1B2B98
:1049000034D80AAA18230021099208938DF80510BB
:1049100007AA2023022E52D043F002038DF8103054
:104920000592D8F800304A4604A901A8984710B06B
:10493000BDE8F08707AA2C48B9F1000F10D0036832
:10494000012101FA04F423EA040303602023E1E7D0
:104950005C2F0CBF232343238DF8103007AADFE719
:1049600001210368A1401942E1D0E9E71F482B1A51
:104970000B2B12D91E4A95424FF040032BD01D4AF3
:1049800052F824209542D2D11B4AD17AA14207AADB
:10499000C0D100218DF80510BCE7174B9A7A00258D
:1049A000302302F00202012402F0FF018DF81030E2
:1049B0008DF805508DF8074032B107AAAAE743F0F9
:1049C00001038DF81030ABE70C22FAF78DFD9DF84E
:1049D000103007AA9EE74323BEE700BF2431002022
:1049E0007C3000202C310020543100204831002040
:1049F000286902005030002070300020583100201B
:104A0000002070470020704700207047002070474A
:104A100038B54B780A4C03EB43020D46342301466C
:104A200004EB82000C22FDF763FD38B96B7803EBD1
:104A300043039B00E258013208BFE05038BD00BF7D
:104A40004831002038B54078124A45002B189B00A9
:104A5000D118D25842B1104C23449B7A13F0800FE6
:104A600012D10022114601E00B4C1146284404EB00
:104A7000800003230089FFF755FE48F24103002818
:104A800014BF1846002038BD5B06EAD4043192B248
:104A9000ECE700BF4831002070300020F0B54B78C3
:104AA0002B4D85B003EB430305EB830304AA0C46AF
:104AB000062122F80A1D064602A918890323FFF7DA
:104AC00033FE10B1002005B0F0BD6078214FBDF875
:104AD000062000EB400007EB8000043002A900F044
:104AE000FDFE80B9607800EB400080000544AB7AA1
:104AF00003F0020303F0FF01002BE3D138440C2242
:104B0000FAF7F2FCDEE76378BDF80620DFF84CE048
:104B1000114D03EB43039B0002A957F803C0FA5061
:104B2000607800EB400007EB80000430BCF1000F20
:104B300008BF754600F0E1FE617801EB410107EB2B
:104B40008101304634230C22A847002005B0F0BD77
:104B50007030002048310020792402000124020036
:104B600038B543780178164A164D03EB430302EB40
:104B7000830301EB410105EB8101044604311889EF
:104B8000FFF7CAFDD0B9237803EB430305EB830598
:104B90006B7A43F001036B72637803EB430302EB20
:104BA0008303997A41F004019972637803EB43031C
:104BB00002EB8302937A23F02003937238BD00BF87
:104BC0007030002058310020002868D02DE9F047CF
:104BD0003D4B3E4A3E4C3F4EDFF8109101210025EF
:104BE00099724FF6FF711981D97284B02946156008
:104BF00055729572804607221846FAF775FC2946C9
:104C00000C223548FAF770FC2F4606220021204678
:104C1000FAF76AFC1022A4F111000021FAF764FCF3
:104C20004FF0010AD9F8003046F8047F0AFA05F27D
:104C3000554423EA0203072D4FF0FF0204F8012C2C
:104C4000A271C9F8003004F11804DED104A8234B86
:104C500040F8103D2249ADF806505C23ADF8043011
:104C6000FDF748FBC0B91F4F98F8004087F800A037
:104C7000C4B91D4D1A48A1B202AAFDF797FB013431
:104C800006460346182202A9C8B92846FDF730FC9B
:104C90001835B8B9072CEDD104B0BDE8F08748F25B
:104CA0000E007047BDF80410BDF806300C4811FB2B
:104CB00003F189B2FDF76CFC04B0BDE8F087002376
:104CC0003B70E9E73E70E7E7703000205831002084
:104CD0008D3000204C3000204831002089480200EF
:104CE000243100206C3000207C3000205431002022
:104CF000114B1B7813B948F208007047024650B1B7
:104D000049B10B683BB1F0B40C4C256848F2040083
:104D100025B1F0BC704748F20E0070470F4626469A
:104D200057F8050F46F8043B3B79606033710B7907
:104D3000A37228461570ECE76C3000205831002033
:104D4000494B1B7813B948F208007047F0B5044688
:104D500068B1037813B148F20800F0BD434B1A68FC
:104D6000002AF8D042782AB148F21000F0BD48F28B
:104D70000E00F0BD3E4DAA7A012AF5D09207EAD581
:104D80008278E97AFF2A01D1FF2908D0394AA17037
:104D9000288902F11201BDE8F040FFF7C1BC364F8F
:104DA000FA7DFF2A5ED097F82F10FF2958D097F888
:104DB0004710FF2952D097F85F10FF294CD097F881
:104DC0007710FF2946D097F88F10FF2908D097F861
:104DD000A720FF2A08BF062203D048F24300F0BDF7
:104DE000052228782249022832D003C9182606FB5A
:104DF00002764FEA114E3061B18286F816E0FD204E
:104E0000182101FB02770C21F8756078184F174EB6
:104E100001FB0055D2B2EA722078A27001FB003388
:104E20005B7ADB070FD5627801FB02720020957A6E
:104E300045F020059572227801FB02635A7A42F010
:104E400002025A72F0BD2046BDE8F040FFF788BE6E
:104E5000FE20D5E70422C4E70322C2E70222C0E70E
:104E60000122BEE70022BCE76C3000205831002050
:104E7000703000202C3100207C3000208C4B1B78BF
:104E800013B948F208007047002800F0E8800029B4
:104E900000F0E5800B68002B00F0E1808A68002AB2
:104EA00000F0DD800378002BEBD1824B1B68002BD8
:104EB000E7D030B48048C37A002B00F0EE800B7B43
:104EC00033B17E4BDC7DE50700F1EF8013600123F9
:104ED0000A7942B1794AD47DA40700F1E4800C68D4
:104EE000103222600122C47A734D012C00F0D08070
:104EF0000C7B9C4209D9714C94F82F50ED0704D4D7
:104F00008D68183445F8234001330C79944209D94F
:104F10006A4C94F82F50AD0704D40D68283445F836
:104F200022400132C47A644D022C00F0AC800C7B2C
:104F30009C4209D9614C94F84750ED0704D48D6820
:104F4000303445F8234001330C79944209D95B4C45
:104F500094F84750AD0704D40D68403445F822401A
:104F60000132C47A544D032C00F088800C7B9C42A3
:104F700009D9524C94F85F50ED0704D48D68483439
:104F800045F8234001330C79944209D94B4C94F8ED
:104F90005F50AD0704D40D68583445F82240013203
:104FA000C47A454D042C65D00C7B9C4209D9434CF6
:104FB00094F87750ED0704D48D68603445F82340A9
:104FC00001330C79944209D93C4C94F87750AD07E1
:104FD00004D40D68703445F822400132C47A364D4D
:104FE000052C43D00C7B9C4209D9344C94F88F504B
:104FF000ED0704D48D68783445F8234001330C79EB
:10500000944209D92D4C94F88F50AD0704D40D6803
:10501000883445F822400132C07A274C062821D036
:10502000087B984209D9254890F8A740E50704D4A1
:105030008C68903044F8230001330879904209D9F4
:105040001E4890F8A740A40704D40C68A03044F888
:105050002200013200200A710B7330BC704748F205
:105060000E007047A07A8007DAD5F3E7AC7AA40780
:10507000B8D5D5E7AC7AA40796D5B3E7AC7AA40740
:105080007FF574AF90E7AC7AA4077FF550AF6DE77A
:10509000AC7AA4077FF52CAF49E7847AA4077FF5A3
:1050A0000EAF1A4624E700221DE7002310E700BFD9
:1050B0006C30002058310020703000207C300020FF
:1050C000B74B1B7873B32DE9F043B64C26688BB011
:1050D0002EB30288FF232A25071D0021102AADF8D0
:1050E0000C508DF801308DF802308DF803300297A6
:1050F0008DF80010AC4D00F06B81A97AB0F804E097
:105100008F0710D49946172A00F098801AD91C2AC4
:1051100000F02481522A00F01A81182A32D00BB0F4
:10512000BDE8F08370474FF6FF77BE4502D02F8968
:105130007745E7D195F80B908DF8029000278DF810
:105140000170E0E7112A32D0132AE8D1EB7A974DAB
:10515000974A0492002403EB430305EBC305224660
:105160002146704604AB079408940994069405956B
:105170008D4CFFF7D3FA0028D1D1A37A43F0040372
:10518000A372CCE78379112B00F0A481A07A894B1C
:1051900061F07F01152253F82030A9728DF80420A8
:1051A0006846E8469847002217462668DCE001F08A
:1051B000FD0201F00801AA7201F0FF07DFF8E881A3
:1051C000002940F03E81B9F1FF0F24D0774E09EB62
:1051D0004902D200B0183946164411300622FAF7B7
:1051E00083F9102239463046FAF77EF9DFF8D4E128
:1051F0007148DEF8001040F82970012000FA09F328
:1052000021EA0301FF2098F80A203074F0758DF828
:105210000200CEF80010E84602F0040202F0FF0798
:1052200022B1637A23F00103637201271022122353
:10523000AA728DF804302668002295E0627A5A4BF3
:1052400022F0010201F0FB01A97262728279142737
:105250008DF80470002A40F0F180C77907F0040748
:1052600007F0FF0C002F00F06F81B9F1FF0F00F085
:10527000E58041F008019972827A970708D54B4A78
:1052800009EB490102EBC102D17D21F00101D17589
:10529000EA7A4549FF2A00F0D0800A78022A0DD028
:1052A000424A09EB490002EBC00203C9D67D1061F6
:1052B00026F00206080C91829075D67504AE494618
:1052C00032463E48FDF772F8002840F051819DF8C3
:1052D00001209DF80270DFF8F0E03449DFF8EC803F
:1052E00002EB420205EB820207EB4707937A13F0C9
:1052F000400F18BFF046034601EBC70118223046A5
:10530000C04790B99DF80130294903EB430205EBF2
:105310008202C3EBC303907A20F04000907201EB4D
:1053200083011C2218233046C0479DF80030244AD0
:1053300003EB430304EB830330469B7A694652F840
:105340002330E84698472668002201270CE0A27A1D
:10535000184B684653F822309847E0E613230022A2
:105360008DF804301746E846404601A9B0479DF83D
:105370000430122B00F0C680002F3FF4D0AE637AC9
:10538000084E99077FF5CBAEAA7A074C920600F13A
:10539000C98023F0020373720BB0BDE8F08300BF35
:1053A0006C30002058310020703000207C3000200C
:1053B0002C310020186902005030002024310020D8
:1053C000F868020054310020792402000124020010
:1053D000AB7ADA077FF5A3AE0223AB7283882B8109
:1053E0008046112358F8060F8DF80110B8F80460B4
:1053F00098F80620AE80684E28600F46AA718DF896
:10540000043030460722414600F068FA183600287A
:1054100000F09E800137072FF3D12368002201A9F5
:10542000684698479DF80430122B7FF478AEAB7A2B
:10543000012B18BF002769D171E600220127E84639
:1054400092E713067FF5E7AE04AE4946324653486D
:10545000FCF7ACFF0346002840F09B809DF801203C
:105460009DF802104E484F4F02EB420208EB8208B3
:105470004D4A98F80AE001EB41011EF0400F18BFB9
:10548000074602EBC10130461822B84790B99DF893
:105490000130464903EB430205EB8202C3EBC30331
:1054A000907A20F04000907201EB83011C221823B7
:1054B0003046B8479DF800303D4A03EB430304EB08
:1054C000830330469B7A694652F82330E846984772
:1054D000AA7AA1E608077FF559AE062200213548D1
:1054E000FAF702F8AA7A637A266842F0600243F07B
:1054F00002031621AA7263728DF80410002201279C
:10550000E84631E7AB7A012B3FF436AF4FF6FF7335
:10551000012607220021AE722B81EB722648F9F793
:10552000E3FF29E7311D2089FFF7F6F800287FF413
:10553000F6ADA37A727A23F0200343F0040342F01D
:105540000102A3727272EAE562460127E8460BE7A0
:10555000AB7A1248FEB243F0080304AAB9B2AB72A8
:10556000EE728DF80260FCF721FF18B1E8461AE6EA
:10557000E846E8E604A918231C220C48FCF7B8FF0B
:10558000A27A0E4B04A853F822306946E8469847A1
:1055900009E6E8469CE700BF8C300020243100205B
:1055A000792402002D4702007C3000202C3100209D
:1055B000F86802004C3100207030002008690200B9
:1055C000454B1B78062B18D0444AD2F8883043F458
:1055D0007003C2F88830BFF34F8FBFF36F8F4FF067
:1055E0001023D3F80022002A45DBD3F80032002B29
:1055F00041DB3B4B3B4A1A6070473B4B1B681A0729
:10560000E2D13A4B1B6803F0F003302B28D0374B24
:105610001B6803F0F003302B11D0344B1B6803F0F0
:10562000F003302BD0D1324B1A6812F0F002CBD1FC
:105630004FF08043C3F80C21C3F81021C4E72C4B72
:105640001B6813F0F00FE8D1234B2A4A1B78032183
:10565000062B1160B8D1244B1B681B07B4D1DCE7C3
:10566000234B1B6813F0F00FD1D1234AD36823F0EA
:105670008073D360CBE7214B0122C3F80425D3F814
:105680000024002AFBD04FF0102315221B49C3F839
:105690000022D1F80034002BFBD04FF0102315224C
:1056A0001649C3F80422D1F80024144B002AFAD07A
:1056B0000022C3F80425D3F80024002AFBD0BFF34E
:1056C0004F8F06490E4BCA6802F4E0621343CB6069
:1056D000BFF34F8FFEE700BFE00F00F000ED00E0EA
:1056E000642800200090D003E40F00F0E80F00F0E1
:1056F000EC0F00F0A0050040F0ED00E000E00140FC
:105700000400FA052EDF704751DF704710DF704745
:1057100061DF704708B508461146FDF785FF08BDF3
:105720002DE9F043DFF8C090DFF8C080D9F80050D1
:10573000D8F800402A4F2B4EB5FA85F5B4FA84F418
:105740006D0983B064099DB1002C3BD133683A8860
:10575000ADF80420184601A9FFF7DAFF052831D07B
:1057600030B300221146F9F7BBFF0024002DEBD126
:1057700001A8FFF7C9FF05280CD000221146E0B1AF
:10578000F9F7AEFF0CB301A8FFF7BEFF05284FF0F5
:105790000104F2D1B4B933683A88ADF80420184650
:1057A00001A9FFF7B5FF05280CD001250028D8D1A5
:1057B0001846D8F800309847D7E7D9F80030019854
:1057C0009847DFE703B0BDE8F08333683A88ADF867
:1057D0000420184601A9FFF79BFF0528C0D1D2E796
:1057E00066310020683100206C31002070310020CB
:1057F00011B111F0030F01D007207047F8B50A4F1F
:105800000A4E0B4D32800C460A493C602B60FFF774
:105810007DFF00B1F8BD084B01221A701620BDE8CB
:10582000F840FFF76FBF00BF6831002066310020ED
:10583000743100201557020064310020034618B16E
:10584000024A0020136070470E207047703100201C
:10585000034618B1024A0020136070470E207047BB
:105860006C31002008B50A4B1B6843B1984700B95A
:1058700008BD00221146BDE80840F9F731BF054BCD
:105880001B78002BF4D0BDE80840FFF749BF00BFEC
:1058900074310020643100200649074A074B9B1AE7
:1058A00003DD043BC858D050FBDC05488047054861
:1058B00000470000C8690200002800206828002076
:1058C000C155020001F40100FEE7FEE7FEE7FEE736
:1058D000FEE7FEE7FEE7FEE7FEE7C04610B501394A
:1058E0000244904207D010F8013B11F8014FA34247
:1058F000F7D0181B10BD002010BD10B5431E0A4480
:10590000914204D011F8014B03F8014FF8E710BDA4
:105910000FB40A4B13B51C6824B1A36913B9204610
:1059200000F04EF805AB049AA1680193204600F000
:105930004FF902B0BDE8104004B070476028002065
:10594000014900F0A9B800BFBD640200002310B5F2
:10595000044603604360836081814366C2810361C2
:1059600043618361194608225C30F9F7BDFD054BA0
:105970006362054BA362054BE362054B246223631C
:1059800010BD00BF6161020083610200BB610200C3
:10599000DF61020070B568234D1E5D430E4605F1C0
:1059A000740100F097F8044640B1002180E84200FD
:1059B0000C30A06005F16802F9F796FD204670BD35
:1059C000836910B5044633BB8364C3640365124B1B
:1059D000124A1B688262984204BF0123836100F06F
:1059E0001FF86060204600F01BF8A060204600F021
:1059F00017F80022E06004216068FFF7A7FF01228A
:105A00000921A068FFF7A2FF02221221E068FFF738
:105A10009DFF0123A36110BDDC6702004159020014
:105A2000F8B51C4B1E68B369074613B93046FFF73B
:105A3000C7FF4836B4687368013B04D4B4F90C500E
:105A40007DB16834F8E733680BB13668F2E70421BA
:105A50003846FFF79FFF30600028F6D10C233B60EB
:105A6000F8BD4FF6FF73E3810123A38165662560CE
:105A7000A560656025616561A5610822294604F17C
:105A80005C00F9F731FD6563A563A564E564204614
:105A9000F8BD00BFDC6702002DE9F8438046894667
:105AA00000F14804002694B1A5686768013F0CD452
:105AB000AB89012B07D9B5F90E30013303D0294644
:105AC0004046C84706436835F0E72468EBE73046B0
:105AD000BDE8F88370B5CD1C25F0030508350C2D05
:105AE00038BF0C25002D064603DA0C233360002056
:105AF00070BDA942F9D81F4B1C681A462146A1B1B6
:105B00000B685B1B0ED40B2B03D90B60CC18CD504C
:105B10001EE08C420DBF63684B686360136018BF62
:105B20000C4615E00C464968E9E7134C23681BB99D
:105B3000304600F005FB20602946304600F000FBAF
:105B4000431CD2D0C41C24F00304A0420AD1256017
:105B500004F10B00231D20F00700C31A09D05A429C
:105B6000E25070BD211A304600F0EAFA0130EED161
:105B7000BBE770BD7C310020783100209368013B89
:105B8000002B10B4936009DA9469A34202DBCBB214
:105B90000A2B03D15DF8044B00F026BB1368581C98
:105BA00010601970C8B25DF8044B7047F8B506462E
:105BB0000F461446D518AC4208D03A4614F8011BDB
:105BC0003046FFF7DBFF431CF5D100E00020F8BDB5
:105BD0002DE9F04F9DB00C4617460393064618B1C9
:105BE00083690BB9FFF7ECFE7F4B9C4201D17468CF
:105BF00008E07E4B9C4201D1B46803E07C4B9C42A0
:105C000008BFF468A38918070CD5236953B1002392
:105C1000099320238DF8293030238DF82A30DFF8BE
:105C2000D4B144E02146304600F044FB0028EED0D9
:105C30004FF0FF30D5E0039A111D12680391002A3E
:105C400080F28C80524243F002000792049098F850
:105C500000302E2B00F08480032298F80010654855
:105C600000F0B6FC48B14023CBEB000003FA00F093
:105C7000049B1843049008F1010898F800105E484E
:105C80008DF82810062208F1010700F0A1FC002879
:105C900000F09580594B002B40F08880039B073320
:105CA00023F0070308330393099B53440993B84631
:105CB000454615F8013B1BB9B8EB07090FD003E0C7
:105CC000252BF9D0A846F3E74B463A462146304605
:105CD000FFF76CFF01307FD0099B4B44099398F884
:105CE0000030002B78D000234FF0FF32049307934D
:105CF000059206938DF853301A93012705222978CF
:105D00003F4800F065FC05F10108049B38B13C4AAE
:105D1000801A07FA00F0184304904546EEE7D906CA
:105D200044BF20228DF853201A0744BF2B228DF840
:105D300053202A782A2A3FF47EAF079A00210A20AE
:105D4000A846013598F80030303B092B03D800FBFA
:105D500002320121F4E700293FF479AF079276E798
:105D600098F801302A2B0BD1039B1A1D1B68039254
:105D7000002BB8BF4FF0FF3308F1020805936BE723
:105D80000023059308F1010019460A2580460130D9
:105D900098F80020303A092A03D805FB0121012395
:105DA000F4E7002B3FF458AF059155E703AB0093A0
:105DB0002246144B04A93046AFF3008007E003AB42
:105DC000009322460F4B04A9304600F093F8B0F13F
:105DD000FF3F82467FF468AFA3895B063FF528AF9B
:105DE00009981DB0BDE8F08F2C6902004C690200D3
:105DF0006C690200926902009669020000000000CE
:105E00008C690200AD5B02002DE9F04791461F4608
:105E10000A698B68DDF820809342B8BF1346C9F841
:105E2000003091F8432006460C4612B10133C9F800
:105E300000302368990642BFD9F800300233C9F810
:105E40000030256815F0060510D104F1190A07E0A5
:105E50000123524639463046C04701301AD0013539
:105E6000E368D9F800209B1A9D42F1DB94F8433097
:105E70002268003318BF012392060FD5E1185A1C7F
:105E8000302081F84300224494F8451082F84310F2
:105E9000023303E04FF0FF30BDE8F08704F1430226
:105EA00039463046C0470130F4D02268D9F8005056
:105EB000E36802F00602042A08BF5D1B2269A3689A
:105EC0000CBF25EAE57500259342C4BF9B1AED1867
:105ED0004FF000091A344D4509D0012322463946B6
:105EE0003046C0470130D5D009F10109F3E7002061
:105EF000BDE8F0872DE9F04317460A7E85B06E2A8B
:105F0000984606460C460C9B01F1430E00F0AE800D
:105F100011D8632A22D009D8002A00F0BB80582A61
:105F200040F0CA8081F84520834955E0642A1ED09C
:105F3000692A1CD0C0E0732A00F0B08009D86F2A0B
:105F40002ED0702A40F0B8800A6842F020020A6021
:105F50003EE0752A24D0782A3AD0ADE01A6801F1E3
:105F60004205111D1960136884F84230A8E02168C9
:105F70001A6811F0800F02D0111D196008E011F0AD
:105F8000400F02F10401196002D0B2F9003000E0C4
:105F90001368002B3CDA2D225B4284F8432037E063
:105FA00021681A6811F0800F02D0111D196007E0F6
:105FB00011F0400F02F10401196001D0138800E0D4
:105FC0001368227E5C496F2A14BF0A2208221BE054
:105FD00078225A4984F845202268186812F0800F08
:105FE00000F104051D6003D1550601D5038800E0CA
:105FF0000368D00744BF42F0200222601BB9226828
:1060000022F0200222601022002084F8430001E0E8
:1060100049490A226568A560002D08DB206820F048
:10602000040020602BB9002D7DD175460CE0002BBB
:1060300079D07546B3FBF2F002FB1033CB5C05F868
:10604000013D03460028F5D1082A0BD12368DA0761
:1060500008D5236962689A42DEBF302305F8013C07
:1060600005F1FF35C5EB0E0323612EE008681A68C1
:10607000496910F0800F03D0101D1860136808E004
:1060800010F0400F02F104001860136801D019806D
:1060900000E0196000232361754616E01A68111D9F
:1060A0001960156862680021284600F091FA08B16D
:1060B000401B6060636804E004F1420584F84220FC
:1060C00001232361002384F84330CDF800803B4650
:1060D00003AA21463046FFF797FE013002D14FF068
:1060E000FF3026E023692A4639463046C047013052
:1060F000F5D023689B0710D5002504F1190907E0A6
:1061000001234A4639463046C0470130E7D00135C1
:10611000E368039A9B1A9D42F2DBE068039B984276
:10612000B8BF184605E00B7884F8423004F1420508
:106130008AE705B0BDE8F0839D690200AE69020000
:1061400038B5064C002305460846236000F02AFBBC
:10615000431C02D1236803B12B6038BD8431002079
:1061600010B50C46B1F90E1000F0C8FA0028ABBF0C
:10617000636DA3891B1823F48053ACBF6365A381AF
:1061800010BD2DE9F0411F468B89DB0505460C4605
:10619000164605D502230022B1F90E1000F0B8F919
:1061A000A389B4F90E1023F48053A38132463B46F1
:1061B0002846BDE8F04100F06BB810B50C46B1F9C7
:1061C0000E1000F0A5F9431CA38915BF606523F4E8
:1061D000805343F48053A38118BFA38110BDB1F94C
:1061E0000E1000F0D3B80000F8B50F46144606466E
:1061F00018B183690BB9FFF7E3FB224B9C4201D135
:10620000746808E0204B9C4201D1B46803E01F4B46
:106210009C4208BFF468A369A360A3891A0709D543
:1062200023693BB123682069181A63699842FDB25B
:106230000FDB08E02146304600F03CF80028F1D0A2
:106240004FF0FF30F8BD2146304600F037F9002806
:10625000F6D1A368013BA36023685A1C22601F701B
:106260006269431C934204D0A389DB0707D50A2D3A
:1062700005D12146304600F021F90028E0D128461A
:10628000F8BD00BF2C6902004C6902006C69020075
:1062900038B5074C054608461146002222601A46CA
:1062A000F9F798FF431C02D1236803B12B6038BD76
:1062B00084310020314B70B51D6806460C4625B16F
:1062C000AB6913B92846FFF77BFB2D4B9C4201D1EC
:1062D0006C6808E02B4B9C4201D1AC6803E02A4B70
:1062E0009C4208BFEC68A3899AB211071DD4D50659
:1062F00002D40922326038E0500712D5616B41B1F7
:1063000004F14403994202D0304600F0B1F9002371
:106310006363A38923F02403A381002363602369BB
:106320002360A38943F00803A38123694BB9A389A0
:1063300003F42073B3F5007F03D02146304600F00C
:10634000F9F8A38913F0010205D00022A260626966
:106350005242A26103E0990758BF6269A2602269B4
:106360004AB903F0800080B230B143F04003A3810A
:106370004FF0FF3070BD002070BD00BF60280020CE
:106380002C6902004C6902006C69020038B5064CA9
:10639000002305460846236000F0E4F9431C02D1BF
:1063A000236803B12B6038BD843100208A892DE930
:1063B000F041054610070C4659D44B68002B02DC0F
:1063C0000B6C002B17DDE66AAEB102F4805200239D
:1063D00092B22F682B600AB1606D15E0216A01232B
:1063E0002846B047411C0FD12B686BB11D2B01D043
:1063F000162B03D12F600020BDE8F081A38943F064
:106400004003A381BDE8F081A3895A0705D56368DD
:10641000C01A636B0BB1236CC01A00230246E66AF4
:10642000216A2846B047431CA38906D129681D2943
:106430003AD8214ACA40D60736D500226260D9042C
:106440002269226004D5421C01D12B6803B9606522
:10645000616B2F600029CED004F14403994202D031
:10646000284600F005F900206063BDE8F0810F695F
:10647000002FC0D093070E6808BF4B690F6018BF8C
:106480000023C7EB06088B6002E00744C0EB080856
:10649000B8F1000FAFDD43463A46216AA66A2846A6
:1064A000B0470028F1DCA38943F04003A3814FF0FB
:1064B000FF30BDE8F08100BF0100402038B50B6916
:1064C00005460C46DBB118B183690BB9FFF778FAC2
:1064D0000C4B9C4201D16C6808E00B4B9C4201D1F3
:1064E000AC6803E0094B9C4208BFEC68B4F90C307F
:1064F0002BB121462846BDE83840FFF757BF0020A2
:1065000038BD00BF2C6902004C6902006C690200B2
:1065100038B5074C054608461146002222601A4647
:1065200000F038F9431C02D1236803B12B6038BD59
:1065300084310020F0B58B899D0791B006460C464A
:1065400026D4B1F90E10002909DAA38913F0800FBF
:106550004FF0000514BF40274FF480670DE001AAFB
:1065600000F0DEF80028F0DB029D05F47045A5F58B
:1065700000514D424D414FF4806739463046FFF798
:10658000A9FA60B9A3899A051DD443F00203A38137
:1065900004F14703236023610123636113E00B4B84
:1065A000B362A389206043F08003A3812061676107
:1065B0004DB1B4F90E10304600F0C4F818B1A389FB
:1065C00043F00103A38111B0F0BD00BF41590200A7
:1065D00001F0FF01102A2BDB10F0070F08D010F894
:1065E000013B013A8B422DD010F0070F42B3F6D198
:1065F000F0B441EA012141EA014122F007047FF0B1
:1066000000070023F0E80256083C85EA010586EA07
:10661000010685FA47F5A3FA87F586FA47F6A5FA43
:1066200087F68EB9EED1F0BC01F0FF0102F007024F
:1066300032B110F8013B013A83EA010313B1F8D1FA
:106640000020704701387047002D06BF35460338DB
:10665000073815F0010F07D1013015F4807F02BF14
:10666000013015F4C03F0130F0BC0138704700BF65
:1066700030B500293ED051F8042C0B1F1E49002ACA
:10668000B8BF9B180A680C4612B95A600B6030BD3F
:106690009A420ED919685818824204BF106852688D
:1066A0005A6004BF09181960236030BD994203D8AD
:1066B0000A4651680029F9D1146815199D420AD17A
:1066C0001B682344D0188142136013D10868034427
:1066D00013604B680DE002D90C23036030BD1868CD
:1066E0001C18A14204BF0C684968596004BF001916
:1066F0001860536030BD00BF7C31002038B5074CB6
:10670000054608461146002222601A46F9F770FD38
:10671000431C02D1236803B12B6038BD84310020B3
:1067200038B5074C0023054608461146236000F0A3
:1067300021F8431C02D1236803B12B6038BD00BF90
:106740008431002038B5064C0023054608462360F6
:1067500000F018F8431C02D1236803B12B6038BD48
:1067600084310020024B58221A604FF0FF307047EE
:1067700084310020024B58221A604FF0FF307047DE
:1067800084310020024B58221A600020704700BF5D
:1067900084310020024B58221A604FF0FF307047BE
:1067A00084310020044A05491368002B08BF0B46BA
:1067B000184410601846704780310020883100204E
:1067C000F8B500BFF8BC08BC9E467047F8B500BFDE
:1067D000F8BC08BC9E46704743000000002800201B
:1067E000060000000800000007000000050000008F
:1067F000000000000000000000009D0003000000F9
:10680000060000000800000007000000050000006E
:10681000000000000000000000009D0003000000D8
:10682000F51802000916020081180200351702004F
:106830009D16020079190200D91702000D1D0200F1
:1068400049150200451B02000D0000000E0000006B
:106850000F000000100000000D000300552602008C
:106860000E000300552602000F000300552602000B
:10687000100003005526020008060507010000006D
:1068800000509D00060018000000900148656172EC
:106890007420726174652073657276696365206423
:1068A0006973636F7665726564200D0A00000000ED
:1068B00048656172742052617465203D2025640D25
:1068C0000A00000042617474657279203D202564DD
:1068D0002025250D0A000000486561727420726150
:1068E000746520636F6C6C6563746F72206578618A
:1068F0006D706C650D0A0000054A020091470200A8
:10690000094A02009D4A0200014A0200554802005D
:1069100031470200114A02000D4A020035470200C9
:106920008D470200454A0200FFFFFFFF0000000004
:106930000000000000000000000000000000000057
:106940000000000000000000000000000000000047
:106950000000000000000000000000000000000037
:106960000000000000000000000000000000000027
:106970000000000000000000000000000000000017
:10698000000000000000000000000000232D302B5C
:106990002000686C4C006566674546470030313220
:1069A0003334353637383941424344454600303177
:1069B00032333435363738396162636465660000D6
:0869C000408AFF7F0100000086
:1069C800000000002C6902004C6902006C6902009A
:1069D80000000000000000000000000000000000AF
:1069E800D86702000000000000000000000000005E
:1069F800000000000000000000000000000000008F
:106A0800000000000000000000000000000000007E
:106A1800000000000000000000000000000000006E
:086A2800002800200090D003BB
:0400000320005899E8
:00000001FF
